{
  "contractName": "ChannelManager",
  "abi": [
    {
      "constant": true,
      "inputs": [],
      "name": "numChannels",
      "outputs": [
        {
          "name": "",
          "type": "uint256"
        }
      ],
      "payable": false,
      "stateMutability": "view",
      "type": "function"
    },
    {
      "constant": true,
      "inputs": [
        {
          "name": "",
          "type": "bytes32"
        }
      ],
      "name": "Threads",
      "outputs": [
        {
          "name": "isClose",
          "type": "bool"
        },
        {
          "name": "isInSettlementState",
          "type": "bool"
        },
        {
          "name": "sequence",
          "type": "uint256"
        },
        {
          "name": "challenger",
          "type": "address"
        },
        {
          "name": "updateThreadTimeout",
          "type": "uint256"
        },
        {
          "name": "partyA",
          "type": "address"
        },
        {
          "name": "partyB",
          "type": "address"
        },
        {
          "name": "partyI",
          "type": "address"
        },
        {
          "name": "token",
          "type": "address"
        }
      ],
      "payable": false,
      "stateMutability": "view",
      "type": "function"
    },
    {
      "constant": true,
      "inputs": [],
      "name": "NAME",
      "outputs": [
        {
          "name": "",
          "type": "string"
        }
      ],
      "payable": false,
      "stateMutability": "view",
      "type": "function"
    },
    {
      "constant": true,
      "inputs": [
        {
          "name": "",
          "type": "bytes32"
        }
      ],
      "name": "Channels",
      "outputs": [
        {
          "name": "sequence",
          "type": "uint256"
        },
        {
          "name": "confirmTime",
          "type": "uint256"
        },
        {
          "name": "threadRootHash",
          "type": "bytes32"
        },
        {
          "name": "openTimeout",
          "type": "uint256"
        },
        {
          "name": "updateChannelTimeout",
          "type": "uint256"
        },
        {
          "name": "isOpen",
          "type": "bool"
        },
        {
          "name": "isUpdateChannelSettling",
          "type": "bool"
        },
        {
          "name": "numOpenThread",
          "type": "uint256"
        },
        {
          "name": "token",
          "type": "address"
        }
      ],
      "payable": false,
      "stateMutability": "view",
      "type": "function"
    },
    {
      "constant": true,
      "inputs": [],
      "name": "VERSION",
      "outputs": [
        {
          "name": "",
          "type": "string"
        }
      ],
      "payable": false,
      "stateMutability": "view",
      "type": "function"
    },
    {
      "anonymous": false,
      "inputs": [
        {
          "indexed": true,
          "name": "channelId",
          "type": "bytes32"
        },
        {
          "indexed": true,
          "name": "partyA",
          "type": "address"
        },
        {
          "indexed": true,
          "name": "partyI",
          "type": "address"
        },
        {
          "indexed": false,
          "name": "ethBalanceA",
          "type": "uint256"
        },
        {
          "indexed": false,
          "name": "token",
          "type": "address"
        },
        {
          "indexed": false,
          "name": "tokenBalanceA",
          "type": "uint256"
        },
        {
          "indexed": false,
          "name": "openTimeout",
          "type": "uint256"
        }
      ],
      "name": "DidChannelOpen",
      "type": "event"
    },
    {
      "anonymous": false,
      "inputs": [
        {
          "indexed": true,
          "name": "channelId",
          "type": "bytes32"
        },
        {
          "indexed": false,
          "name": "ethBalanceI",
          "type": "uint256"
        },
        {
          "indexed": false,
          "name": "tokenBalanceI",
          "type": "uint256"
        }
      ],
      "name": "DidChannelJoin",
      "type": "event"
    },
    {
      "anonymous": false,
      "inputs": [
        {
          "indexed": true,
          "name": "channelId",
          "type": "bytes32"
        },
        {
          "indexed": true,
          "name": "recipient",
          "type": "address"
        },
        {
          "indexed": false,
          "name": "deposit",
          "type": "uint256"
        },
        {
          "indexed": false,
          "name": "isToken",
          "type": "bool"
        }
      ],
      "name": "DidChannelDeposit",
      "type": "event"
    },
    {
      "anonymous": false,
      "inputs": [
        {
          "indexed": true,
          "name": "channelId",
          "type": "bytes32"
        },
        {
          "indexed": false,
          "name": "sequence",
          "type": "uint256"
        },
        {
          "indexed": false,
          "name": "numOpenThread",
          "type": "uint256"
        },
        {
          "indexed": false,
          "name": "ethBalanceA",
          "type": "uint256"
        },
        {
          "indexed": false,
          "name": "tokenBalanceA",
          "type": "uint256"
        },
        {
          "indexed": false,
          "name": "ethBalanceI",
          "type": "uint256"
        },
        {
          "indexed": false,
          "name": "tokenBalanceI",
          "type": "uint256"
        },
        {
          "indexed": false,
          "name": "threadRoot",
          "type": "bytes32"
        },
        {
          "indexed": false,
          "name": "updateChannelTimeout",
          "type": "uint256"
        }
      ],
      "name": "DidChannelUpdateState",
      "type": "event"
    },
    {
      "anonymous": false,
      "inputs": [
        {
          "indexed": true,
          "name": "channelId",
          "type": "bytes32"
        },
        {
          "indexed": false,
          "name": "sequence",
          "type": "uint256"
        },
        {
          "indexed": false,
          "name": "ethBalanceA",
          "type": "uint256"
        },
        {
          "indexed": false,
          "name": "tokenBalanceA",
          "type": "uint256"
        },
        {
          "indexed": false,
          "name": "ethBalanceI",
          "type": "uint256"
        },
        {
          "indexed": false,
          "name": "tokenBalanceI",
          "type": "uint256"
        }
      ],
      "name": "DidChannelClose",
      "type": "event"
    },
    {
      "anonymous": false,
      "inputs": [
        {
          "indexed": true,
          "name": "lcId",
          "type": "bytes32"
        },
        {
          "indexed": true,
          "name": "vcId",
          "type": "bytes32"
        },
        {
          "indexed": false,
          "name": "proof",
          "type": "bytes"
        },
        {
          "indexed": false,
          "name": "sequence",
          "type": "uint256"
        },
        {
          "indexed": false,
          "name": "partyA",
          "type": "address"
        },
        {
          "indexed": false,
          "name": "partyB",
          "type": "address"
        },
        {
          "indexed": false,
          "name": "balanceA",
          "type": "uint256"
        },
        {
          "indexed": false,
          "name": "balanceB",
          "type": "uint256"
        }
      ],
      "name": "DidThreadInit",
      "type": "event"
    },
    {
      "anonymous": false,
      "inputs": [
        {
          "indexed": true,
          "name": "lcId",
          "type": "bytes32"
        },
        {
          "indexed": true,
          "name": "vcId",
          "type": "bytes32"
        },
        {
          "indexed": false,
          "name": "updateSeq",
          "type": "uint256"
        },
        {
          "indexed": false,
          "name": "updateBalA",
          "type": "uint256"
        },
        {
          "indexed": false,
          "name": "updateBalB",
          "type": "uint256"
        },
        {
          "indexed": false,
          "name": "challenger",
          "type": "address"
        },
        {
          "indexed": false,
          "name": "updateThreadTimeout",
          "type": "uint256"
        }
      ],
      "name": "DidThreadSettle",
      "type": "event"
    },
    {
      "anonymous": false,
      "inputs": [
        {
          "indexed": true,
          "name": "lcId",
          "type": "bytes32"
        },
        {
          "indexed": true,
          "name": "vcId",
          "type": "bytes32"
        },
        {
          "indexed": false,
          "name": "balanceA",
          "type": "uint256"
        },
        {
          "indexed": false,
          "name": "balanceB",
          "type": "uint256"
        }
      ],
      "name": "DidThreadClose",
      "type": "event"
    },
    {
      "constant": false,
      "inputs": [
        {
          "name": "_channelId",
          "type": "bytes32"
        },
        {
          "name": "_partyI",
          "type": "address"
        },
        {
          "name": "_confirmTime",
          "type": "uint256"
        },
        {
          "name": "_token",
          "type": "address"
        },
        {
          "name": "_balances",
          "type": "uint256[2]"
        }
      ],
      "name": "createChannel",
      "outputs": [],
      "payable": true,
      "stateMutability": "payable",
      "type": "function"
    },
    {
      "constant": false,
      "inputs": [
        {
          "name": "_channelId",
          "type": "bytes32"
        }
      ],
      "name": "channelOpenTimeout",
      "outputs": [],
      "payable": false,
      "stateMutability": "nonpayable",
      "type": "function"
    },
    {
      "constant": false,
      "inputs": [
        {
          "name": "_channelId",
          "type": "bytes32"
        },
        {
          "name": "_balances",
          "type": "uint256[2]"
        }
      ],
      "name": "joinChannel",
      "outputs": [],
      "payable": true,
      "stateMutability": "payable",
      "type": "function"
    },
    {
      "constant": false,
      "inputs": [
        {
          "name": "_channelId",
          "type": "bytes32"
        },
        {
          "name": "recipient",
          "type": "address"
        },
        {
          "name": "_balance",
          "type": "uint256"
        },
        {
          "name": "isToken",
          "type": "bool"
        }
      ],
      "name": "deposit",
      "outputs": [],
      "payable": true,
      "stateMutability": "payable",
      "type": "function"
    },
    {
      "constant": false,
      "inputs": [
        {
          "name": "_channelId",
          "type": "bytes32"
        },
        {
          "name": "_sequence",
          "type": "uint256"
        },
        {
          "name": "_balances",
          "type": "uint256[4]"
        },
        {
          "name": "_sigA",
          "type": "string"
        },
        {
          "name": "_sigI",
          "type": "string"
        }
      ],
      "name": "consensusCloseChannel",
      "outputs": [],
      "payable": false,
      "stateMutability": "nonpayable",
      "type": "function"
    },
    {
      "constant": false,
      "inputs": [
        {
          "name": "_channelId",
          "type": "bytes32"
        },
        {
          "name": "updateParams",
          "type": "uint256[6]"
        },
        {
          "name": "_threadRoot",
          "type": "bytes32"
        },
        {
          "name": "_sigA",
          "type": "string"
        },
        {
          "name": "_sigI",
          "type": "string"
        }
      ],
      "name": "updateChannelState",
      "outputs": [],
      "payable": false,
      "stateMutability": "nonpayable",
      "type": "function"
    },
    {
      "constant": false,
      "inputs": [
        {
          "name": "_channelId",
          "type": "bytes32"
        },
        {
          "name": "_threadId",
          "type": "bytes32"
        },
        {
          "name": "_proof",
          "type": "bytes"
        },
        {
          "name": "_partyA",
          "type": "address"
        },
        {
          "name": "_partyB",
          "type": "address"
        },
        {
          "name": "_bond",
          "type": "uint256[2]"
        },
        {
          "name": "_balances",
          "type": "uint256[4]"
        },
        {
          "name": "sigA",
          "type": "string"
        }
      ],
      "name": "initThreadState",
      "outputs": [],
      "payable": false,
      "stateMutability": "nonpayable",
      "type": "function"
    },
    {
      "constant": false,
      "inputs": [
        {
          "name": "_channelId",
          "type": "bytes32"
        },
        {
          "name": "_threadId",
          "type": "bytes32"
        },
        {
          "name": "updateSeq",
          "type": "uint256"
        },
        {
          "name": "_partyA",
          "type": "address"
        },
        {
          "name": "_partyB",
          "type": "address"
        },
        {
          "name": "updateBal",
          "type": "uint256[4]"
        },
        {
          "name": "sigA",
          "type": "string"
        }
      ],
      "name": "settleThread",
      "outputs": [],
      "payable": false,
      "stateMutability": "nonpayable",
      "type": "function"
    },
    {
      "constant": false,
      "inputs": [
        {
          "name": "_channelId",
          "type": "bytes32"
        },
        {
          "name": "_threadId",
          "type": "bytes32"
        }
      ],
      "name": "closeThread",
      "outputs": [],
      "payable": false,
      "stateMutability": "nonpayable",
      "type": "function"
    },
    {
      "constant": false,
      "inputs": [
        {
          "name": "_channelId",
          "type": "bytes32"
        }
      ],
      "name": "byzantineCloseChannel",
      "outputs": [],
      "payable": false,
      "stateMutability": "nonpayable",
      "type": "function"
    },
    {
      "constant": true,
      "inputs": [
        {
          "name": "id",
          "type": "bytes32"
        }
      ],
      "name": "getChannel",
      "outputs": [
        {
          "name": "",
          "type": "address[2]"
        },
        {
          "name": "",
          "type": "uint256[4]"
        },
        {
          "name": "",
          "type": "uint256[4]"
        },
        {
          "name": "",
          "type": "uint256[2]"
        },
        {
          "name": "",
          "type": "uint256"
        },
        {
          "name": "",
          "type": "uint256"
        },
        {
          "name": "",
          "type": "bytes32"
        },
        {
          "name": "",
          "type": "uint256"
        },
        {
          "name": "",
          "type": "uint256"
        },
        {
          "name": "",
          "type": "bool"
        },
        {
          "name": "",
          "type": "bool"
        },
        {
          "name": "",
          "type": "uint256"
        }
      ],
      "payable": false,
      "stateMutability": "view",
      "type": "function"
    },
    {
      "constant": true,
      "inputs": [
        {
          "name": "id",
          "type": "bytes32"
        }
      ],
      "name": "getThread",
      "outputs": [
        {
          "name": "",
          "type": "bool"
        },
        {
          "name": "",
          "type": "bool"
        },
        {
          "name": "",
          "type": "uint256"
        },
        {
          "name": "",
          "type": "address"
        },
        {
          "name": "",
          "type": "uint256"
        },
        {
          "name": "",
          "type": "address"
        },
        {
          "name": "",
          "type": "address"
        },
        {
          "name": "",
          "type": "address"
        },
        {
          "name": "",
          "type": "uint256[2]"
        },
        {
          "name": "",
          "type": "uint256[2]"
        },
        {
          "name": "",
          "type": "uint256[2]"
        }
      ],
      "payable": false,
      "stateMutability": "view",
      "type": "function"
    }
  ],
  "bytecode": "0x60806040526000805534801561001457600080fd5b50614314806100246000396000f3006080604052600436106100f05763ffffffff7c01000000000000000000000000000000000000000000000000000000006000350416632386643881146100f5578063353910241461012d5780634247a0ba146101485780634f4536a11461020d57806365dca8701461022557806365dd43eb14610327578063831c2b821461034e578063843364a514610464578063a3f4df7e146104d5578063aeba142c1461055f578063cb2ec895146105af578063ce329570146105ce578063d32fc05a146105e6578063e27cd07414610652578063f5989d3314610749578063f88e31db1461080f578063ffa1ad74146108b0575b600080fd5b60408051808201825261012b9160048035923692606491906024906002908390839080828437509396506108c595505050505050565b005b34801561013957600080fd5b5061012b600435602435610b7c565b34801561015457600080fd5b5060408051608081810190925261012b9160048035926024359236929160c491604490849083908390808284375050604080516020601f88358a0180359182018390048302840183019094528083529699989781019691955091820193509150819084018382808284375050604080516020601f89358b018035918201839004830284018301909452808352979a999881019791965091820194509250829150840183828082843750949750610f0f9650505050505050565b34801561021957600080fd5b5061012b600435611722565b34801561023157600080fd5b50604080516020600460443581810135601f810184900484028501840190955284845261012b948235946024803595369594606494920191908190840183828082843750506040805180820182529598600160a060020a03883581169960208a0135909116989197909650608082019550935081019150600290839083908082843750506040805160808181019092529497969581810195945092506004915083908390808284375050604080516020601f88358a01803591820183900483028401830190945280835296999897810196919550918201935091508190840183828082843750949750611a319650505050505050565b34801561033357600080fd5b5061033c611f99565b60408051918252519081900360200190f35b34801561035a57600080fd5b50610366600435611f9f565b604051808d600260200280838360005b8381101561038e578181015183820152602001610376565b505050509050018c600460200280838360005b838110156103b95781810151838201526020016103a1565b505050509050018b600460200280838360005b838110156103e45781810151838201526020016103cc565b505050509050018a600260200280838360005b8381101561040f5781810151838201526020016103f7565b5050505091909101998a525050602088019690965260408088019590955260608701939093526080860191909152151560a0850152151560c084015260e0830191909152519081900361010001945092505050f35b34801561047057600080fd5b5061047c6004356121ef565b604080519915158a5297151560208a015288880196909652600160a060020a039485166060890152608088019390935290831660a0870152821660c0860152811660e08501521661010083015251908190036101200190f35b3480156104e157600080fd5b506104ea61224e565b6040805160208082528351818301528351919283929083019185019080838360005b8381101561052457818101518382015260200161050c565b50505050905090810190601f1680156105515780820380516001836020036101000a031916815260200191505b509250505060405180910390f35b60408051808201825261012b916004803592600160a060020a03602435811693604435936064359092169236929160c4919060849060029083908390808284375093965061228595505050505050565b61012b600435600160a060020a03602435166044356064351515612711565b3480156105da57600080fd5b5061012b600435612c0e565b3480156105f257600080fd5b506105fe600435613163565b60408051998a5260208a01989098528888019690965260608801949094526080870192909252151560a0860152151560c085015260e0840152600160a060020a031661010083015251908190036101200190f35b34801561065e57600080fd5b5061066a6004356131be565b604080518c151581528b151560208201528082018b9052600160a060020a03808b166060830152608082018a905288811660a083015287811660c0830152861660e082015290610100820190859080838360005b838110156106d65781810151838201526020016106be565b5050505090500183600260200280838360005b838110156107015781810151838201526020016106e9565b5050505090500182600260200280838360005b8381101561072c578181015183820152602001610714565b505050509050019b50505050505050505050505060405180910390f35b34801561075557600080fd5b506040805160c081810190925261012b916004803592369260e49190602490600690839083908082843750506040805160208781013589018035601f81018390048302840183018552808452979a89359a90999098940196509194509081019250819084018382808284375050604080516020601f89358b018035918201839004830284018301909452808352979a9998810197919650918201945092508291508401838280828437509497506133ad9650505050505050565b34801561081b57600080fd5b5060408051608081810190925261012b9160048035926024359260443592600160a060020a03606435811693608435909116923692916101249160a490849083908390808284375050604080516020601f88358a0180359182018390048302840183019094528083529699989781019691955091820193509150819084018382808284375094975061390e9650505050505050565b3480156108bc57600080fd5b506104ea613fc2565b60008281526002602052604090206011015460ff16156108e457600080fd5b600082815260026020526040902060010154600160a060020a0316331461090a57600080fd5b8051156109a5578051341461098f576040805160e560020a62461bcd02815260206004820152602760248201527f73746174652062616c616e636520646f6573206e6f74206d617463682073656e60448201527f742076616c756500000000000000000000000000000000000000000000000000606482015290519081900360840190fd5b6000828152600260205260409020346003909101555b602081015115610af7576000828152600260209081526040808320601301548483015182517f23b872dd00000000000000000000000000000000000000000000000000000000815233600482015230602482015260448101919091529151600160a060020a03909116936323b872dd93606480850194919392918390030190829087803b158015610a3557600080fd5b505af1158015610a49573d6000803e3d6000fd5b505050506040513d6020811015610a5f57600080fd5b50511515610add576040805160e560020a62461bcd02815260206004820152602360248201527f6a6f696e4368616e6e656c3a20746f6b656e207472616e73666572206661696c60448201527f7572650000000000000000000000000000000000000000000000000000000000606482015290519081900360840190fd5b602080820151600084815260029092526040909120600701555b80516000838152600260209081526040808320600a8101805490950190945581850151600b85018054820190556011909401805460ff191660019081179091558354019092558351825190815290810192909252805184927f7903740ac5c31a7959b06af79a62f0c4f64aa62b2ecd86fbc8c5559d0a47299e92908290030190a25050565b60008281526002602052604090206011015460ff161515610be7576040805160e560020a62461bcd02815260206004820152601260248201527f6368616e6e656c20697320636c6f7365642e0000000000000000000000000000604482015290519081900360640190fd5b600081815260016020526040902054610100900460ff161515610c7a576040805160e560020a62461bcd02815260206004820152602260248201527f746872656164206973206e6f7420696e20736574746c656d656e74207374617460448201527f652e000000000000000000000000000000000000000000000000000000000000606482015290519081900360840190fd5b6000818152600160205260409020600301544211610d08576040805160e560020a62461bcd02815260206004820152602660248201527f557064617465207468726561642074696d656f757420686173206e6f7420656c60448201527f61707365642e0000000000000000000000000000000000000000000000000000606482015290519081900360840190fd5b60008181526001602052604090205460ff1615610d6f576040805160e560020a62461bcd02815260206004820152601860248201527f74687265616420697320616c726561647920636c6f7365640000000000000000604482015290519081900360640190fd5b60008281526002602090815260408083206012810180546000190190558484526001928390529220805460ff191690911781559054600490910154600160a060020a0390811691161415610e1e5760008181526001602090815260408083206007808201548786526002948590529290942092830180549092019091556008810154600383018054909101905560098101546006830180549091019055600a0154910180549091019055610eb1565b60008281526002602052604081200154600082815260016020526040902060050154600160a060020a0390811691161415610eb1576000818152600160209081526040808320600881015486855260029384905291909320918201805490910190556007808301546003830180549091019055600a83015460068301805490910190556009909201549101805490910190555b6000818152600160209081526040918290206009810154600a909101548351918252918101919091528151839285927f5421fe646ecf7e80e354bb93a459b2d7594a4d398da21fd1eb6a96284dd7425a929081900390910190a35050565b6000858152600260205260408120601101548190819060ff161515600114610f3657600080fd5b600088815260026020908152604090912060058101546004820154600a83015460098401546008850154600b90950154958c01518c5192909301909301975093909201019350018314610f8857600080fd5b60608601516040870151018214610f9e57600080fd5b600088815260026020526040812089916001918a9190819081015460008e8152600260205260409020600160a060020a039091169060010154600160a060020a03168c600060200201518d600160200201518e600260200201518f600360209081029190910151604080518084019d909d529a15157f0100000000000000000000000000000000000000000000000000000000000000028c8c015260418c019990995260618b019790975260818a0195909552600160a060020a039384166c0100000000000000000000000090810260a18b01529290931690910260b588015260c987015260e9860152610109850152610129808501929092528251808503909201825261014990930191829052805190928291908401908083835b602083106110d95780518252601f1990920191602091820191016110ba565b51815160209384036101000a6000190180199092169116179052604080519290940182900382207fdca9541900000000000000000000000000000000000000000000000000000000835260048301818152602484019586528c5160448501528c5191985073__ECTools_______________________________975063dca95419965088958d9550909390926064909101919085019080838360005b8381101561118c578181015183820152602001611174565b50505050905090810190601f1680156111b95780820380516001836020036101000a031916815260200191505b50935050505060206040518083038186803b1580156111d757600080fd5b505af41580156111eb573d6000803e3d6000fd5b505050506040513d602081101561120157600080fd5b5051600089815260026020526040902054600160a060020a0390811691161461122957600080fd5b604080517fdca95419000000000000000000000000000000000000000000000000000000008152600481018381526024820192835286516044830152865173__ECTools_______________________________9363dca954199386938a9390929160640190602085019080838360005b838110156112b1578181015183820152602001611299565b50505050905090810190601f1680156112de5780820380516001836020036101000a031916815260200191505b50935050505060206040518083038186803b1580156112fc57600080fd5b505af4158015611310573d6000803e3d6000fd5b505050506040513d602081101561132657600080fd5b5051600089815260026020526040902060010154600160a060020a0390811691161461135157600080fd5b6000888152600260205260409020601101805460ff19169055855115158061137c5750602086015115155b15611418576000888152600260205260408082205488519151600160a060020a039091169282156108fc02929190818181858888f193505050501580156113c7573d6000803e3d6000fd5b50600088815260026020526040902060010154600160a060020a03166108fc87600160200201516040518115909202916000818181858888f19350505050158015611416573d6000803e3d6000fd5b505b604086015115158061142d5750606086015115155b156116a9576000888152600260209081526040808320601381015490548a83015183517fa9059cbb000000000000000000000000000000000000000000000000000000008152600160a060020a0392831660048201526024810191909152925191169363a9059cbb93604480850194919392918390030190829087803b1580156114b657600080fd5b505af11580156114ca573d6000803e3d6000fd5b505050506040513d60208110156114e057600080fd5b5051151561155e576040805160e560020a62461bcd02815260206004820152602960248201527f6861707079436c6f73654368616e6e656c3a20746f6b656e207472616e73666560448201527f72206661696c7572650000000000000000000000000000000000000000000000606482015290519081900360840190fd5b60008881526002602052604090206013810154600160a060020a03169063a9059cbb9060010154600160a060020a031688600360200201516040518363ffffffff167c01000000000000000000000000000000000000000000000000000000000281526004018083600160a060020a0316600160a060020a0316815260200182815260200192505050602060405180830381600087803b15801561160157600080fd5b505af1158015611615573d6000803e3d6000fd5b505050506040513d602081101561162b57600080fd5b505115156116a9576040805160e560020a62461bcd02815260206004820152602960248201527f6861707079436c6f73654368616e6e656c3a20746f6b656e207472616e73666560448201527f72206661696c7572650000000000000000000000000000000000000000000000606482015290519081900360840190fd5b6000805460001901905585516020808801516040808a01516060808c015183518e81529586019690965284830193909352918301919091526080820192909252905189917fea464e9e625d63a39a62726f6f8c5686e0680c0792968d9142c225840f0d11dc919081900360a00190a25050505050505050565b60008181526002602052604081200154600160a060020a03163314801561175b575060008181526002602052604090206011015460ff16155b151561176657600080fd5b6000818152600260205260409020600f0154421161178357600080fd5b6000818152600260205260409020600a0154156117e557600081815260026020819052604080832080549201549051600160a060020a039092169281156108fc029290818181858888f193505050501580156117e3573d6000803e3d6000fd5b505b6000818152600260205260409020600b01541561192a5760008181526002602090815260408083206013810154815460069092015483517fa9059cbb000000000000000000000000000000000000000000000000000000008152600160a060020a0393841660048201526024810191909152925191169363a9059cbb93604480850194919392918390030190829087803b15801561188257600080fd5b505af1158015611896573d6000803e3d6000fd5b505050506040513d60208110156118ac57600080fd5b5051151561192a576040805160e560020a62461bcd02815260206004820152602560248201527f4372656174654368616e6e656c3a20746f6b656e207472616e7366657220666160448201527f696c757265000000000000000000000000000000000000000000000000000000606482015290519081900360840190fd5b600081815260026020818152604080842092830154600690930154815185815292830193909352818101929092526060810183905260808101929092525182917fea464e9e625d63a39a62726f6f8c5686e0680c0792968d9142c225840f0d11dc919081900360a00190a26000818152600260205260408120906119ae8282614131565b6119bc60028301600061413f565b6119ca60068301600061413f565b6119d8600a83016000614131565b506000600c8201819055600d8201819055600e8201819055600f82018190556010820181905560118201805461ffff191690556012820155601301805473ffffffffffffffffffffffffffffffffffffffff1916905550565b60008881526002602052604081206011015460ff161515611a9c576040805160e560020a62461bcd02815260206004820152601260248201527f6368616e6e656c20697320636c6f7365642e0000000000000000000000000000604482015290519081900360640190fd5b60008881526001602052604090205460ff1615611b03576040805160e560020a62461bcd02815260206004820152601160248201527f74687265616420697320636c6f7365642e000000000000000000000000000000604482015290519081900360640190fd5b6000898152600260205260409020601001544211611b6b576040805160e560020a62461bcd02815260206004820152601960248201527f6368616e6e656c2074696d656f7574206e6f74206f7665722e00000000000000604482015290519081900360640190fd5b60008881526001602052604090206003015415611b8757600080fd5b8760008787878360200201518860016020020151886000602002015189600160200201518a600260200201518b600360209081029190910151604080518084019c909c528b81019a909a526c01000000000000000000000000600160a060020a03998a16810260608d01529790981690960260748a0152608889019490945260a888019290925260c887015260e8860152610108850152610128808501929092528251808503909201825261014890930191829052805190928291908401908083835b60208310611c695780518252601f199092019160209182019101611c4a565b51815160209384036101000a6000190180199092169116179052604080519290940182900382207fdca95419000000000000000000000000000000000000000000000000000000008352600483018181526024840195865289516044850152895191985073__ECTools_______________________________975063dca95419965088958a9550909390926064909101919085019080838360005b83811015611d1c578181015183820152602001611d04565b50505050905090810190601f168015611d495780820380516001836020036101000a031916815260200191505b50935050505060206040518083038186803b158015611d6757600080fd5b505af4158015611d7b573d6000803e3d6000fd5b505050506040513d6020811015611d9157600080fd5b5051600160a060020a03878116911614611daa57600080fd5b6000898152600260205260409020600e0154611dc99082908990613ff9565b1515600114611dd757600080fd5b6000888152600160208181526040808420600481018054600160a060020a038d811673ffffffffffffffffffffffffffffffffffffffff1992831617909255600583018054928d1692909116919091179055928301939093558551600783015585015160088201559084015160098201556060840151600a820155611e6190600b0185600261415b565b506000898152600260209081526040808320600d01548b845260019092528220429091016003820155805461ff00191661010017905588908a907fef621650a5cd8bc6cf61314abbb7f9348d6f77c9d01f63359a2368585200a131908a908a8a898360200201518a60016020020151604051808060200187815260200186600160a060020a0316600160a060020a0316815260200185600160a060020a0316600160a060020a03168152602001848152602001838152602001828103825288818151815260200191508051906020019080838360005b83811015611f4f578181015183820152602001611f37565b50505050905090810190601f168015611f7c5780820380516001836020036101000a031916815260200191505b5097505050505050505060405180910390a3505050505050505050565b60005481565b611fa7614199565b611faf6141b4565b611fb76141b4565b611fbf614199565b600080600080600080600080611fd36141d3565b60008e81526002602081905260409182902082516101e081019384905292909183916101a0830191849182845b8154600160a060020a0316815260019091019060200180831161200057505050918352505060408051608081019182905260209092019190600284019060049082845b81548152602001906001019080831161204357505050918352505060408051608081019182905260209092019190600684019060049082845b81548152602001906001019080831161207c575050509183525050604080518082019182905260209092019190600a84019060029082845b8154815260200190600101908083116120b45750505050508152602001600c8201548152602001600d8201548152602001600e82015460001916600019168152602001600f8201548152602001601082015481526020016011820160009054906101000a900460ff161515151581526020016011820160019054906101000a900460ff16151515158152602001601282015481526020016013820160009054906101000a9004600160a060020a0316600160a060020a0316600160a060020a0316815250509050806000015181602001518260400151836060015184608001518560a001518660c001518760e001518861010001518961012001518a61014001518b61016001518b9b508a9a508999508898509c509c509c509c509c509c509c509c509c509c509c509c505091939597999b5091939597999b565b600160208190526000918252604090912080549181015460028201546003830154600484015460058501546006860154600d9096015460ff8089169861010090041696600160a060020a03958616959384169392831692908116911689565b60408051808201909152600e81527f4368616e6e656c4d616e61676572000000000000000000000000000000000000602082015281565b600085815260026020526040902054600160a060020a031615612318576040805160e560020a62461bcd02815260206004820152602160248201527f4368616e6e656c2068617320616c7265616479206265656e206372656174656460448201527f2e00000000000000000000000000000000000000000000000000000000000000606482015290519081900360840190fd5b600160a060020a038416151561239e576040805160e560020a62461bcd02815260206004820152602e60248201527f4e6f2070617274794920616464726573732070726f766964656420746f20636860448201527f616e6e656c206372656174696f6e000000000000000000000000000000000000606482015290519081900360840190fd5b80516000118015906123b557506020810151600011155b151561240b576040805160e560020a62461bcd02815260206004820152601b60248201527f42616c616e6365732063616e6e6f74206265206e656761746976650000000000604482015290519081900360640190fd5b600085815260026020526040902080543373ffffffffffffffffffffffffffffffffffffffff1991821617825560019091018054909116600160a060020a0386161790558051156124ea57805134146124d4576040805160e560020a62461bcd02815260206004820152602560248201527f4574682062616c616e636520646f6573206e6f74206d617463682073656e742060448201527f76616c7565000000000000000000000000000000000000000000000000000000606482015290519081900360840190fd5b6000858152600260208190526040909120349101555b60208101511561265e576000858152600260209081526040808320601301805473ffffffffffffffffffffffffffffffffffffffff1916600160a060020a0387811691909117918290558584015183517f23b872dd000000000000000000000000000000000000000000000000000000008152336004820152306024820152604481019190915292519116936323b872dd93606480850194919392918390030190829087803b15801561259c57600080fd5b505af11580156125b0573d6000803e3d6000fd5b505050506040513d60208110156125c657600080fd5b50511515612644576040805160e560020a62461bcd02815260206004820152602560248201527f4372656174654368616e6e656c3a20746f6b656e207472616e7366657220666160448201527f696c757265000000000000000000000000000000000000000000000000000000606482015290519081900360840190fd5b602080820151600087815260029092526040909120600601555b60008581526002602081905260408220600c810192909255600d8201859055428501600f83015561269491600a0190839061415b565b508051602080830151600088815260028352604090819020600f01548151948552600160a060020a03878116948601949094528482019290925260608401919091525190861691339188917f574d1215f0e090754575daf97023b05d4bb8f680a0714decfd407185730838ec919081900360800190a45050505050565b60008481526002602052604090206011015460ff1615156001146127a5576040805160e560020a62461bcd02815260206004820152602660248201527f547269656420616464696e672066756e647320746f206120636c6f736564206360448201527f68616e6e656c0000000000000000000000000000000000000000000000000000606482015290519081900360840190fd5b60008481526002602052604081200154600160a060020a03848116911614806127ea5750600084815260026020526040902060010154600160a060020a038481169116145b15156127f557600080fd5b6000848152600260205260408120600160a060020a038516910154600160a060020a031614156129d95780156129445760008481526002602090815260408083206013015481517f23b872dd000000000000000000000000000000000000000000000000000000008152336004820152306024820152604481018790529151600160a060020a03909116936323b872dd93606480850194919392918390030190829087803b1580156128a657600080fd5b505af11580156128ba573d6000803e3d6000fd5b505050506040513d60208110156128d057600080fd5b50511515612928576040805160e560020a62461bcd02815260206004820152601f60248201527f6465706f7369743a20746f6b656e207472616e73666572206661696c75726500604482015290519081900360640190fd5b60008481526002602052604090206008018054830190556129d9565b3482146129c1576040805160e560020a62461bcd02815260206004820152602760248201527f73746174652062616c616e636520646f6573206e6f74206d617463682073656e60448201527f742076616c756500000000000000000000000000000000000000000000000000606482015290519081900360840190fd5b60008481526002602052604090206004018054340190555b6000848152600260205260409020600160a060020a0384169060010154600160a060020a03161415612bbf578015612b2a5760008481526002602090815260408083206013015481517f23b872dd000000000000000000000000000000000000000000000000000000008152336004820152306024820152604481018790529151600160a060020a03909116936323b872dd93606480850194919392918390030190829087803b158015612a8c57600080fd5b505af1158015612aa0573d6000803e3d6000fd5b505050506040513d6020811015612ab657600080fd5b50511515612b0e576040805160e560020a62461bcd02815260206004820152601f60248201527f6465706f7369743a20746f6b656e207472616e73666572206661696c75726500604482015290519081900360640190fd5b6000848152600260205260409020600901805483019055612bbf565b348214612ba7576040805160e560020a62461bcd02815260206004820152602760248201527f73746174652062616c616e636520646f6573206e6f74206d617463682073656e60448201527f742076616c756500000000000000000000000000000000000000000000000000606482015290519081900360840190fd5b60008481526002602052604090206005018054340190555b6040805183815282151560208201528151600160a060020a0386169287927fbd8db11a20cac7f77060c5a0312d283257ee318b67dc55af1693509508113fa2929081900390910190a350505050565b60008181526002602052604081206011810154909190819081908190819081908190819060ff161515612c8b576040805160e560020a62461bcd02815260206004820152601360248201527f4368616e6e656c206973206e6f74206f70656e00000000000000000000000000604482015290519081900360640190fd5b601189015460ff610100909104161515600114612ca757600080fd5b601289015415612cb657600080fd5b60108901544211612d11576040805160e560020a62461bcd02815260206004820152601560248201527f6368616e6e656c2074696d656f7574206f7665722e0000000000000000000000604482015290519081900360640190fd5b60028901600301546002808b010154600a8b016000015401019750600689016003015460068a0160020154600a8b016001015401019650600289016001015460028a0160000154019550600689016001015460068a016000015401945087861015612d9b57600489015460028a0180549091019055600589015460038a0180549091019055612da7565b858814612da757600080fd5b86851015612dd457600889015460068a0180549091019055600989015460078a0180549091019055612de0565b848714612de057600080fd5b5050505060028501805460038701805460068901805460078b018054600097889055948790559186905594905591929083151580612e1d57508215155b15612e9a578854604051600160a060020a03909116906108fc8615029086906000818181858888f19350505050158015612e5b573d6000803e3d6000fd5b508860010154604051600160a060020a039091169084156108fc029085906000818181858888f19350505050158015612e98573d6000803e3d6000fd5b505b81151580612ea757508015155b156130ec5760138901548954604080517fa9059cbb000000000000000000000000000000000000000000000000000000008152600160a060020a039283166004820152602481018690529051919092169163a9059cbb9160448083019260209291908290030181600087803b158015612f1f57600080fd5b505af1158015612f33573d6000803e3d6000fd5b505050506040513d6020811015612f4957600080fd5b50511515612fc7576040805160e560020a62461bcd02815260206004820152602d60248201527f62797a616e74696e65436c6f73654368616e6e656c3a20746f6b656e2074726160448201527f6e73666572206661696c75726500000000000000000000000000000000000000606482015290519081900360840190fd5b6013890154600160a060020a031663a9059cbb8a60010154604080517c010000000000000000000000000000000000000000000000000000000063ffffffff8516028152600160a060020a039092166004830152602482018590525160448083019260209291908290030181600087803b15801561304457600080fd5b505af1158015613058573d6000803e3d6000fd5b505050506040513d602081101561306e57600080fd5b505115156130ec576040805160e560020a62461bcd02815260206004820152602d60248201527f62797a616e74696e65436c6f73654368616e6e656c3a20746f6b656e2074726160448201527f6e73666572206661696c75726500000000000000000000000000000000000000606482015290519081900360840190fd5b60118901805460ff1916905560008054600019019055600c89015460408051918252602082018690528181018590526060820184905260808201839052518b917fea464e9e625d63a39a62726f6f8c5686e0680c0792968d9142c225840f0d11dc919081900360a00190a250505050505050505050565b6002602052600090815260409020600c810154600d820154600e830154600f8401546010850154601186015460128701546013909701549596949593949293919260ff808316936101009093041691600160a060020a031689565b6000806000806000806000806131d2614199565b6131da614199565b6131e2614199565b6131ea614256565b60008d815260016020818152604092839020835161018081018552815460ff8082161515835261010091829004161515938201939093529281015483850152600280820154600160a060020a039081166060860152600383015460808601526004830154811660a08601526005830154811660c086015260068301541660e085015284518086019586905293949193928501929160078501919082845b815481526020019060010190808311613287575050509183525050604080518082019182905260209092019190600984019060029082845b8154815260200190600101908083116132bf575050509183525050604080518082019182905260209092019190600b84019060029082845b8154815260200190600101908083116132f75750505050508152602001600d820160009054906101000a9004600160a060020a0316600160a060020a0316600160a060020a0316815250509050806000015181602001518260400151836060015184608001518560a001518660c001518760e001518861010001518961012001518a61014001518292508191508090509b509b509b509b509b509b509b509b509b509b509b505091939597999b90929496989a50565b6000858152600260205260408120601181015490919060ff1615156133d157600080fd5b8551600c830154106133e257600080fd5b6060860151604087015160038401546002850154919092019101101561340757600080fd5b60a0860151608087015160078401546006850154919092019101101561342c57600080fd5b601182015460ff61010090910416151560011415613454576010820154421061345457600080fd5b866000878160200201518860016020020151888660000154600160a060020a03168760010154600160a060020a03168c600260200201518d600360200201518e600460200201518f600560209081029190910151604080518084019d909d529a15157f0100000000000000000000000000000000000000000000000000000000000000028c8c015260418c019990995260618b019790975260818a0195909552600160a060020a039384166c0100000000000000000000000090810260a18b01529290931690910260b588015260c987015260e9860152610109850152610129808501929092528251808503909201825261014990930191829052805190928291908401908083835b6020831061357c5780518252601f19909201916020918201910161355d565b51815160209384036101000a6000190180199092169116179052604080519290940182900382207fdca9541900000000000000000000000000000000000000000000000000000000835260048301818152602484019586528b5160448501528b5191985073__ECTools_______________________________975063dca95419965088958c9550909390926064909101919085019080838360005b8381101561362f578181015183820152602001613617565b50505050905090810190601f16801561365c5780820380516001836020036101000a031916815260200191505b50935050505060206040518083038186803b15801561367a57600080fd5b505af415801561368e573d6000803e3d6000fd5b505050506040513d60208110156136a457600080fd5b5051600160a060020a03168260000154600160a060020a0316146136c757600080fd5b604080517fdca95419000000000000000000000000000000000000000000000000000000008152600481018381526024820192835285516044830152855173__ECTools_______________________________9363dca95419938693899390929160640190602085019080838360005b8381101561374f578181015183820152602001613737565b50505050905090810190601f16801561377c5780820380516001836020036101000a031916815260200191505b50935050505060206040518083038186803b15801561379a57600080fd5b505af41580156137ae573d6000803e3d6000fd5b505050506040513d60208110156137c457600080fd5b5051600160a060020a03168260010154600160a060020a0316146137e757600080fd5b8560006020020151600c8301558560016020020151601283015585600260200201516002830160000155856003602002015160028301600101558560046020020151600683016000015585600560200201516006830160010155600e820185905560118201805461ff001916610100179055600d82015442016010830155867f8d20d58d50d72d2420224743a4cb55dc22653ef029ba687b74f7010da8ea381a8760006020020151886001602002015189600260200201518a600360200201518b600460200201518c60056020908102919091015160108b01546040805198895292880196909652868201949094526060860192909252608085015260a084019190915260c083018a905260e083019190915251908190036101000190a250505050505050565b60008781526002602052604081206011015460ff161515613979576040805160e560020a62461bcd02815260206004820152601260248201527f6368616e6e656c20697320636c6f7365642e0000000000000000000000000000604482015290519081900360640190fd5b60008781526001602052604090205460ff16156139e0576040805160e560020a62461bcd02815260206004820152601160248201527f74687265616420697320636c6f7365642e000000000000000000000000000000604482015290519081900360640190fd5b600087815260016020819052604090912001548611613a6f576040805160e560020a62461bcd02815260206004820152602f60248201527f7468726561642073657175656e636520697320686967686572207468616e207560448201527f70646174652073657175656e63652e0000000000000000000000000000000000606482015290519081900360840190fd5b60208084015160008981526001909252604090912060080154108015613aa9575060608301516000888152600160205260409020600a0154105b1515613b25576040805160e560020a62461bcd02815260206004820152603260248201527f53746174652075706461746573206d6179206f6e6c7920696e6372656173652060448201527f726563697069656e742062616c616e63652e0000000000000000000000000000606482015290519081900360840190fd5b602080840151845160008a815260019093526040909220600b01549101148015613b6b5750606083015160408085015160008a8152600160205291909120600c01549101145b1515613be6576040805160e560020a62461bcd028152602060048201526024808201527f496e636f72726563742062616c616e63657320666f7220626f6e64656420616d60448201527f6f756e7400000000000000000000000000000000000000000000000000000000606482015290519081900360840190fd5b6000888152600260205260409020601001544211613c0357600080fd5b60008781526001602052604081208891889188918891600b01015460008c8152600160208190526040909120600b010154886000602002015189600160200201518a600260200201518b600360209081029190910151604080518084019c909c528b81019a909a526c01000000000000000000000000600160a060020a03998a16810260608d01529790981690960260748a0152608889019490945260a888019290925260c887015260e8860152610108850152610128808501929092528251808503909201825261014890930191829052805190928291908401908083835b60208310613d025780518252601f199092019160209182019101613ce3565b51815160209384036101000a6000190180199092169116179052604080519290940182900382207fdca95419000000000000000000000000000000000000000000000000000000008352600483018181526024840195865289516044850152895191985073__ECTools_______________________________975063dca95419965088958a9550909390926064909101919085019080838360005b83811015613db5578181015183820152602001613d9d565b50505050905090810190601f168015613de25780820380516001836020036101000a031916815260200191505b50935050505060206040518083038186803b158015613e0057600080fd5b505af4158015613e14573d6000803e3d6000fd5b505050506040513d6020811015613e2a57600080fd5b5051600088815260016020526040902060040154600160a060020a03908116911614613e5557600080fd5b6000878152600160208190526040822060028101805473ffffffffffffffffffffffffffffffffffffffff19163317905501879055839060209081029190910151600089815260019092526040822090916007909101015582600160209081029190910151600089815260019283905260409020909160079091010155826002602090810291909101516000898152600190925260408220909160099091010155826003602090810291909101516000898152600192839052604090209091600990910101556000888152600260209081526040808320600d01548a84526001909252822042909101600390910155879089907f1327434d71c83c8a853baf5da858f46cb10355491427140e5a01315049ed0c12908990879060200201518760016020908102919091015160008e81526001835260409081902060030154815195865292850193909352838301523360608401526080830152519081900360a00190a35050505050505050565b60408051808201909152600581527f302e302e31000000000000000000000000000000000000000000000000000000602082015281565b6000838160405b85518111614124578581015191508183101561409b57604080516020808201869052818301859052825180830384018152606090920192839052815191929182918401908083835b602083106140675780518252601f199092019160209182019101614048565b6001836020036101000a0380198251168184511680821785525050505050509050019150506040518091039020925061411c565b604080516020808201859052818301869052825180830384018152606090920192839052815191929182918401908083835b602083106140ec5780518252601f1990920191602091820191016140cd565b6001836020036101000a038019825116818451168082178552505050505050905001915050604051809103902092505b602001614000565b5050919091149392505050565b506000815560010160009055565b5060008155600101600081556001016000815560010160009055565b8260028101928215614189579160200282015b8281111561418957825182559160200191906001019061416e565b506141959291506142cb565b5090565b60408051808201825290600290829080388339509192915050565b6080604051908101604052806004906020820280388339509192915050565b6102a0604051908101604052806141e8614199565b81526020016141f56141b4565b81526020016142026141b4565b815260200161420f614199565b815260006020820181905260408201819052606082018190526080820181905260a0820181905260c0820181905260e0820181905261010082018190526101209091015290565b604080516101e081018252600080825260208201819052918101829052606081018290526080810182905260a0810182905260c0810182905260e081019190915261010081016142a4614199565b81526020016142b1614199565b81526020016142be614199565b8152600060209091015290565b6142e591905b8082111561419557600081556001016142d1565b905600a165627a7a7230582062351b8b68f5d8dc02080290ff495bc74f7a5f3b9a8a720e2de7be1441f4d9c20029",
  "source": "pragma solidity ^0.4.23;\n\nimport \"./lib/ECTools.sol\";\nimport \"./lib/token/HumanStandardToken.sol\";\n\n/// @title Set Virtual Channels - A layer2 hub and spoke payment network \n/// @author Nathan Ginnever\n\ncontract ChannelManager {\n\n    string public constant NAME = \"ChannelManager\";\n    string public constant VERSION = \"0.0.1\";\n\n    uint256 public numChannels = 0;\n\n    event DidChannelOpen (\n        bytes32 indexed channelId,\n        address indexed partyA,\n        address indexed partyI,\n        uint256 ethBalanceA,\n        address token,\n        uint256 tokenBalanceA,\n        uint256 openTimeout\n    );\n\n    event DidChannelJoin (\n        bytes32 indexed channelId,\n        uint256 ethBalanceI,\n        uint256 tokenBalanceI\n    );\n\n    event DidChannelDeposit (\n        bytes32 indexed channelId,\n        address indexed recipient,\n        uint256 deposit,\n        bool isToken\n    );\n\n    event DidChannelUpdateState (\n        bytes32 indexed channelId, \n        uint256 sequence, \n        uint256 numOpenThread, \n        uint256 ethBalanceA,\n        uint256 tokenBalanceA,\n        uint256 ethBalanceI,\n        uint256 tokenBalanceI,\n        bytes32 threadRoot,\n        uint256 updateChannelTimeout\n    );\n\n    event DidChannelClose (\n        bytes32 indexed channelId,\n        uint256 sequence,\n        uint256 ethBalanceA,\n        uint256 tokenBalanceA,\n        uint256 ethBalanceI,\n        uint256 tokenBalanceI\n    );\n\n    event DidThreadInit (\n        bytes32 indexed lcId, \n        bytes32 indexed vcId, \n        bytes proof, \n        uint256 sequence, \n        address partyA, \n        address partyB, \n        uint256 balanceA, \n        uint256 balanceB \n    );\n\n    event DidThreadSettle (\n        bytes32 indexed lcId, \n        bytes32 indexed vcId,\n        uint256 updateSeq, \n        uint256 updateBalA, \n        uint256 updateBalB,\n        address challenger,\n        uint256 updateThreadTimeout\n    );\n\n    event DidThreadClose(\n        bytes32 indexed lcId, \n        bytes32 indexed vcId, \n        uint256 balanceA, \n        uint256 balanceB\n    );\n\n    struct Channel {\n        //TODO: figure out if it's better just to split arrays by balances/deposits instead of eth/erc20\n        address[2] partyAddresses; // 0: partyA 1: partyI\n        uint256[4] ethBalances; // 0: balanceA 1:balanceI 2:depositedA 3:depositedI\n        uint256[4] erc20Balances; // 0: balanceA 1:balanceI 2:depositedA 3:depositedI\n        uint256[2] initialDeposit; // 0: eth 1: tokens\n        uint256 sequence;\n        uint256 confirmTime;\n        bytes32 threadRootHash;\n        uint256 openTimeout;\n        uint256 updateChannelTimeout; // when update channel times out\n        bool isOpen; // true when both parties have joined\n        bool isUpdateChannelSettling;\n        uint256 numOpenThread;\n        HumanStandardToken token;\n    }\n\n    // thread state\n    struct Thread {\n        bool isClose;\n        bool isInSettlementState;\n        uint256 sequence;\n        address challenger; // Initiator of challenge\n        uint256 updateThreadTimeout; // when update thread times out\n        // channel state\n        address partyA; // thread participant A\n        address partyB; // thread participant B\n        address partyI; // channel hub\n        uint256[2] ethBalances;\n        uint256[2] erc20Balances;\n        uint256[2] bond;\n        HumanStandardToken token;\n    }\n\n    mapping(bytes32 => Thread) public Threads;\n    mapping(bytes32 => Channel) public Channels;\n\n    function createChannel(\n        bytes32 _channelId,\n        address _partyI,\n        uint256 _confirmTime,\n        address _token,\n        uint256[2] _balances // [eth, token]\n    ) \n        public\n        payable \n    {\n        require(Channels[_channelId].partyAddresses[0] == address(0), \"Channel has already been created.\");\n        require(_partyI != 0x0, \"No partyI address provided to channel creation\");\n        require(_balances[0] >= 0 && _balances[1] >= 0, \"Balances cannot be negative\");\n        // Set initial channel state\n        // Alice must execute this and we assume the initial state \n        // to be signed from this requirement\n        // Alternative is to check a sig as in joinChannel\n        Channels[_channelId].partyAddresses[0] = msg.sender;\n        Channels[_channelId].partyAddresses[1] = _partyI;\n\n        if(_balances[0] != 0) {\n            require(msg.value == _balances[0], \"Eth balance does not match sent value\");\n            Channels[_channelId].ethBalances[0] = msg.value;\n        } \n        if(_balances[1] != 0) {\n            Channels[_channelId].token = HumanStandardToken(_token);\n            require(Channels[_channelId].token.transferFrom(msg.sender, this, _balances[1]),\"CreateChannel: token transfer failure\");\n            Channels[_channelId].erc20Balances[0] = _balances[1];\n        }\n\n        Channels[_channelId].sequence = 0;\n        Channels[_channelId].confirmTime = _confirmTime;\n        // is close flag, channel state sequence, number open vc, thread root hash, partyA... \n        //Channels[_channelId].stateHash = keccak256(uint256(0), uint256(0), uint256(0), bytes32(0x0), bytes32(msg.sender), bytes32(_partyI), balanceA, balanceI);\n        Channels[_channelId].openTimeout = now + _confirmTime;\n        Channels[_channelId].initialDeposit = _balances;\n\n        emit DidChannelOpen(_channelId, msg.sender, _partyI, _balances[0], _token, _balances[1], Channels[_channelId].openTimeout);\n    }\n\n    function channelOpenTimeout(bytes32 _channelId) public {\n        require(msg.sender == Channels[_channelId].partyAddresses[0] && Channels[_channelId].isOpen == false);\n        require(now > Channels[_channelId].openTimeout);\n\n        if(Channels[_channelId].initialDeposit[0] != 0) {\n            //TODO: what happens if eth transfer fails?\n            Channels[_channelId].partyAddresses[0].transfer(Channels[_channelId].ethBalances[0]);\n        } \n        if(Channels[_channelId].initialDeposit[1] != 0) {\n            require(Channels[_channelId].token.transfer(Channels[_channelId].partyAddresses[0], Channels[_channelId].erc20Balances[0]),\"CreateChannel: token transfer failure\");\n        }\n\n        emit DidChannelClose(_channelId, 0, Channels[_channelId].ethBalances[0], Channels[_channelId].erc20Balances[0], 0, 0);\n\n        // only safe to delete since no action was taken on this channel\n        delete Channels[_channelId];\n    }\n\n    function joinChannel(bytes32 _channelId, uint256[2] _balances) public payable {\n        // require the channel is not open yet\n        require(Channels[_channelId].isOpen == false);\n        require(msg.sender == Channels[_channelId].partyAddresses[1]);\n        //TODO check if balances are negative?\n\n        if(_balances[0] != 0) {\n            require(msg.value == _balances[0], \"state balance does not match sent value\");\n            Channels[_channelId].ethBalances[1] = msg.value;\n        } \n        if(_balances[1] != 0) {\n            require(Channels[_channelId].token.transferFrom(msg.sender, this, _balances[1]),\"joinChannel: token transfer failure\");\n            Channels[_channelId].erc20Balances[1] = _balances[1];          \n        }\n\n        Channels[_channelId].initialDeposit[0]+=_balances[0];\n        Channels[_channelId].initialDeposit[1]+=_balances[1];\n        // no longer allow joining functions to be called\n        Channels[_channelId].isOpen = true;\n        numChannels++;\n\n        emit DidChannelJoin(_channelId, _balances[0], _balances[1]);\n    }\n\n\n    // additive updates of monetary state\n    // TODO check this for attack vectors\n    function deposit(bytes32 _channelId, address recipient, uint256 _balance, bool isToken) public payable {\n        require(Channels[_channelId].isOpen == true, \"Tried adding funds to a closed channel\");\n        require(recipient == Channels[_channelId].partyAddresses[0] || recipient == Channels[_channelId].partyAddresses[1]);\n\n        //if(Channels[_channelId].token)\n\n        if (Channels[_channelId].partyAddresses[0] == recipient) {\n            if(isToken) {\n                require(Channels[_channelId].token.transferFrom(msg.sender, this, _balance),\"deposit: token transfer failure\");\n                Channels[_channelId].erc20Balances[2] += _balance;\n            } else {\n                require(msg.value == _balance, \"state balance does not match sent value\");\n                Channels[_channelId].ethBalances[2] += msg.value;\n            }\n        }\n\n        if (Channels[_channelId].partyAddresses[1] == recipient) {\n            if(isToken) {\n                require(Channels[_channelId].token.transferFrom(msg.sender, this, _balance),\"deposit: token transfer failure\");\n                Channels[_channelId].erc20Balances[3] += _balance;\n            } else {\n                require(msg.value == _balance, \"state balance does not match sent value\");\n                Channels[_channelId].ethBalances[3] += msg.value; \n            }\n        }\n        \n        emit DidChannelDeposit(_channelId, recipient, _balance, isToken);\n    }\n\n    // TODO: Check there are no open virtual channels, the client should have cought this before signing a close channel state update\n    function consensusCloseChannel(\n        bytes32 _channelId, \n        uint256 _sequence, \n        uint256[4] _balances, // 0: ethBalanceA 1:ethBalanceI 2:tokenBalanceA 3:tokenBalanceI\n        string _sigA, \n        string _sigI\n    ) \n        public \n    {\n        // assume num open thread is 0 and root hash is 0x0\n        //require(Channels[_channelId].sequence < _sequence);\n        require(Channels[_channelId].isOpen == true);\n        uint256 totalEthDeposit = Channels[_channelId].initialDeposit[0] + Channels[_channelId].ethBalances[2] + Channels[_channelId].ethBalances[3];\n        uint256 totalTokenDeposit = Channels[_channelId].initialDeposit[1] + Channels[_channelId].erc20Balances[2] + Channels[_channelId].erc20Balances[3];\n        require(totalEthDeposit == _balances[0] + _balances[1]);\n        require(totalTokenDeposit == _balances[2] + _balances[3]);\n\n        bytes32 _state = keccak256(\n            abi.encodePacked(\n                _channelId,\n                true,\n                _sequence,\n                uint256(0),\n                bytes32(0x0),\n                Channels[_channelId].partyAddresses[0], \n                Channels[_channelId].partyAddresses[1], \n                _balances[0], \n                _balances[1],\n                _balances[2],\n                _balances[3]\n            )\n        );\n\n        require(Channels[_channelId].partyAddresses[0] == ECTools.recoverSigner(_state, _sigA));\n        require(Channels[_channelId].partyAddresses[1] == ECTools.recoverSigner(_state, _sigI));\n\n        Channels[_channelId].isOpen = false;\n\n        if(_balances[0] != 0 || _balances[1] != 0) {\n            Channels[_channelId].partyAddresses[0].transfer(_balances[0]);\n            Channels[_channelId].partyAddresses[1].transfer(_balances[1]);\n        }\n\n        if(_balances[2] != 0 || _balances[3] != 0) {\n            require(Channels[_channelId].token.transfer(Channels[_channelId].partyAddresses[0], _balances[2]),\"happyCloseChannel: token transfer failure\");\n            require(Channels[_channelId].token.transfer(Channels[_channelId].partyAddresses[1], _balances[3]),\"happyCloseChannel: token transfer failure\");          \n        }\n\n        numChannels--;\n\n        emit DidChannelClose(_channelId, _sequence, _balances[0], _balances[1], _balances[2], _balances[3]);\n    }\n\n    // Byzantine functions\n\n    function updateChannelState(\n        bytes32 _channelId, \n        uint256[6] updateParams, // [sequence, numOpenThread, ethbalanceA, ethbalanceI, tokenbalanceA, tokenbalanceI]\n        bytes32 _threadRoot, \n        string _sigA, \n        string _sigI\n    ) \n        public \n    {\n        Channel storage channel = Channels[_channelId];\n        require(channel.isOpen);\n        require(channel.sequence < updateParams[0]); // do same as thread sequence check\n        require(channel.ethBalances[0] + channel.ethBalances[1] >= updateParams[2] + updateParams[3]);\n        require(channel.erc20Balances[0] + channel.erc20Balances[1] >= updateParams[4] + updateParams[5]);\n\n        if(channel.isUpdateChannelSettling == true) { \n            require(channel.updateChannelTimeout > now);\n        }\n      \n        bytes32 _state = keccak256(\n            abi.encodePacked(\n                _channelId,\n                false, \n                updateParams[0], \n                updateParams[1], \n                _threadRoot, \n                channel.partyAddresses[0], \n                channel.partyAddresses[1], \n                updateParams[2], \n                updateParams[3],\n                updateParams[4], \n                updateParams[5]\n            )\n        );\n\n        require(channel.partyAddresses[0] == ECTools.recoverSigner(_state, _sigA));\n        require(channel.partyAddresses[1] == ECTools.recoverSigner(_state, _sigI));\n\n        // update channel state\n        channel.sequence = updateParams[0];\n        channel.numOpenThread = updateParams[1];\n        channel.ethBalances[0] = updateParams[2];\n        channel.ethBalances[1] = updateParams[3];\n        channel.erc20Balances[0] = updateParams[4];\n        channel.erc20Balances[1] = updateParams[5];\n        channel.threadRootHash = _threadRoot;\n        channel.isUpdateChannelSettling = true;\n        channel.updateChannelTimeout = now + channel.confirmTime;\n\n        // make settlement flag\n\n        emit DidChannelUpdateState (\n            _channelId, \n            updateParams[0], \n            updateParams[1], \n            updateParams[2], \n            updateParams[3],\n            updateParams[4],\n            updateParams[5], \n            _threadRoot,\n            channel.updateChannelTimeout\n        );\n    }\n\n    // supply initial state of thread to \"prime\" the force push game  \n    function initThreadState(\n        bytes32 _channelId, \n        bytes32 _threadId, \n        bytes _proof, \n        address _partyA, \n        address _partyB, \n        uint256[2] _bond,\n        uint256[4] _balances, // 0: ethBalanceA 1:ethBalanceI 2:tokenBalanceA 3:tokenBalanceI\n        string sigA\n    ) \n        public \n    {\n        require(Channels[_channelId].isOpen, \"channel is closed.\");\n        // sub-channel must be open\n        require(!Threads[_threadId].isClose, \"thread is closed.\");\n        // Check time has passed on updateChannelTimeout and has not passed the time to store a thread state\n        require(Channels[_channelId].updateChannelTimeout < now, \"channel timeout not over.\");\n        // prevent rentry of initializing thread state\n        require(Threads[_threadId].updateThreadTimeout == 0);\n        // partyB is now Ingrid\n        bytes32 _initState = keccak256(\n            abi.encodePacked(_threadId, uint256(0), _partyA, _partyB, _bond[0], _bond[1], _balances[0], _balances[1], _balances[2], _balances[3])\n        );\n\n        // Make sure Alice has signed initial thread state (A/B in oldState)\n        require(_partyA == ECTools.recoverSigner(_initState, sigA));\n\n        // Check the oldState is in the root hash\n        require(_isContained(_initState, _proof, Channels[_channelId].threadRootHash) == true);\n\n        Threads[_threadId].partyA = _partyA; // thread participant A\n        Threads[_threadId].partyB = _partyB; // thread participant B\n        Threads[_threadId].sequence = uint256(0);\n        Threads[_threadId].ethBalances[0] = _balances[0];\n        Threads[_threadId].ethBalances[1] = _balances[1];\n        Threads[_threadId].erc20Balances[0] = _balances[2];\n        Threads[_threadId].erc20Balances[1] = _balances[3];\n        Threads[_threadId].bond = _bond;\n        Threads[_threadId].updateThreadTimeout = now + Channels[_channelId].confirmTime;\n        Threads[_threadId].isInSettlementState = true;\n\n        emit DidThreadInit(_channelId, _threadId, _proof, uint256(0), _partyA, _partyB, _balances[0], _balances[1]);\n    }\n\n    //TODO: verify state transition since the hub did not agree to this state\n    // make sure the A/B balances are not beyond ingrids bonds  \n    // Params: thread init state, thread final balance, vcID\n    function settleThread(\n        bytes32 _channelId, \n        bytes32 _threadId, \n        uint256 updateSeq, \n        address _partyA, \n        address _partyB,\n        uint256[4] updateBal, // [ethupdateBalA, ethupdateBalB, tokenupdateBalA, tokenupdateBalB]\n        string sigA\n    ) \n        public \n    {\n        require(Channels[_channelId].isOpen, \"channel is closed.\");\n        // sub-channel must be open\n        require(!Threads[_threadId].isClose, \"thread is closed.\");\n        require(Threads[_threadId].sequence < updateSeq, \"thread sequence is higher than update sequence.\");\n        require(\n            Threads[_threadId].ethBalances[1] < updateBal[1] && Threads[_threadId].erc20Balances[1] < updateBal[3],\n            \"State updates may only increase recipient balance.\"\n        );\n        require(\n            Threads[_threadId].bond[0] == updateBal[0] + updateBal[1] &&\n            Threads[_threadId].bond[1] == updateBal[2] + updateBal[3], \n            \"Incorrect balances for bonded amount\");\n        // Check time has passed on updateChannelTimeout and has not passed the time to store a thread state\n        // Threads[_threadId].updateThreadTimeout should be 0 on uninitialized thread state, and this should\n        // fail if initVC() isn't called first\n        // require(Channels[_channelId].updateChannelTimeout < now && now < Threads[_threadId].updateThreadTimeout);\n        require(Channels[_channelId].updateChannelTimeout < now); // for testing!\n\n        bytes32 _updateState = keccak256(\n            abi.encodePacked(\n                _threadId, \n                updateSeq, \n                _partyA, \n                _partyB, \n                Threads[_threadId].bond[0], \n                Threads[_threadId].bond[1], \n                updateBal[0], \n                updateBal[1], \n                updateBal[2], \n                updateBal[3]\n            )\n        );\n\n        // Make sure Alice has signed a higher sequence new state\n        require(Threads[_threadId].partyA == ECTools.recoverSigner(_updateState, sigA));\n\n        // store thread data\n        // we may want to record who is initiating on-chain settles\n        Threads[_threadId].challenger = msg.sender;\n        Threads[_threadId].sequence = updateSeq;\n\n        // channel state\n        Threads[_threadId].ethBalances[0] = updateBal[0];\n        Threads[_threadId].ethBalances[1] = updateBal[1];\n        Threads[_threadId].erc20Balances[0] = updateBal[2];\n        Threads[_threadId].erc20Balances[1] = updateBal[3];\n\n        Threads[_threadId].updateThreadTimeout = now + Channels[_channelId].confirmTime;\n\n        emit DidThreadSettle(_channelId, _threadId, updateSeq, updateBal[0], updateBal[1], msg.sender, Threads[_threadId].updateThreadTimeout);\n    }\n\n    function closeThread(bytes32 _channelId, bytes32 _threadId) public {\n        // require(updateChannelTimeout > now)\n        require(Channels[_channelId].isOpen, \"channel is closed.\");\n        require(Threads[_threadId].isInSettlementState, \"thread is not in settlement state.\");\n        require(Threads[_threadId].updateThreadTimeout < now, \"Update thread timeout has not elapsed.\");\n        require(!Threads[_threadId].isClose, \"thread is already closed\");\n        // reduce the number of open virtual channels stored on LC\n        Channels[_channelId].numOpenThread--;\n        // close thread flags\n        Threads[_threadId].isClose = true;\n        // re-introduce the balances back into the channel state from the settled VC\n        // decide if this channel is alice or bob in the vc\n        if(Threads[_threadId].partyA == Channels[_channelId].partyAddresses[0]) {\n            Channels[_channelId].ethBalances[0] += Threads[_threadId].ethBalances[0];\n            Channels[_channelId].ethBalances[1] += Threads[_threadId].ethBalances[1];\n\n            Channels[_channelId].erc20Balances[0] += Threads[_threadId].erc20Balances[0];\n            Channels[_channelId].erc20Balances[1] += Threads[_threadId].erc20Balances[1];\n        } else if (Threads[_threadId].partyB == Channels[_channelId].partyAddresses[0]) {\n            Channels[_channelId].ethBalances[0] += Threads[_threadId].ethBalances[1];\n            Channels[_channelId].ethBalances[1] += Threads[_threadId].ethBalances[0];\n\n            Channels[_channelId].erc20Balances[0] += Threads[_threadId].erc20Balances[1];\n            Channels[_channelId].erc20Balances[1] += Threads[_threadId].erc20Balances[0];\n        }\n\n        emit DidThreadClose(_channelId, _threadId, Threads[_threadId].erc20Balances[0], Threads[_threadId].erc20Balances[1]);\n    }\n\n\n    // todo: allow ethier lc.end-user to nullify the settled channel state and return to off-chain\n    function byzantineCloseChannel(bytes32 _channelId) public {\n        Channel storage channel = Channels[_channelId];\n\n        // check settlement flag\n        require(channel.isOpen, \"Channel is not open\");\n        require(channel.isUpdateChannelSettling == true);\n        require(channel.numOpenThread == 0);\n        require(channel.updateChannelTimeout < now, \"channel timeout over.\");\n\n        // if off chain state update didnt reblance deposits, just return to deposit owner\n        uint256 totalEthDeposit = channel.initialDeposit[0] + channel.ethBalances[2] + channel.ethBalances[3];\n        uint256 totalTokenDeposit = channel.initialDeposit[1] + channel.erc20Balances[2] + channel.erc20Balances[3];\n\n        uint256 possibleTotalEthBeforeDeposit = channel.ethBalances[0] + channel.ethBalances[1]; \n        uint256 possibleTotalTokenBeforeDeposit = channel.erc20Balances[0] + channel.erc20Balances[1];\n\n        if(possibleTotalEthBeforeDeposit < totalEthDeposit) {\n            channel.ethBalances[0]+=channel.ethBalances[2];\n            channel.ethBalances[1]+=channel.ethBalances[3];\n        } else {\n            require(possibleTotalEthBeforeDeposit == totalEthDeposit);\n        }\n\n        if(possibleTotalTokenBeforeDeposit < totalTokenDeposit) {\n            channel.erc20Balances[0]+=channel.erc20Balances[2];\n            channel.erc20Balances[1]+=channel.erc20Balances[3];\n        } else {\n            require(possibleTotalTokenBeforeDeposit == totalTokenDeposit);\n        }\n\n        // reentrancy\n        uint256 ethbalanceA = channel.ethBalances[0];\n        uint256 ethbalanceI = channel.ethBalances[1];\n        uint256 tokenbalanceA = channel.erc20Balances[0];\n        uint256 tokenbalanceI = channel.erc20Balances[1];\n\n        channel.ethBalances[0] = 0;\n        channel.ethBalances[1] = 0;\n        channel.erc20Balances[0] = 0;\n        channel.erc20Balances[1] = 0;\n\n        if(ethbalanceA != 0 || ethbalanceI != 0) {\n            channel.partyAddresses[0].transfer(ethbalanceA);\n            channel.partyAddresses[1].transfer(ethbalanceI);\n        }\n\n        if(tokenbalanceA != 0 || tokenbalanceI != 0) {\n            require(\n                channel.token.transfer(channel.partyAddresses[0], tokenbalanceA),\n                \"byzantineCloseChannel: token transfer failure\"\n            );\n            require(\n                channel.token.transfer(channel.partyAddresses[1], tokenbalanceI),\n                \"byzantineCloseChannel: token transfer failure\"\n            );          \n        }\n\n        channel.isOpen = false;\n        numChannels--;\n\n        emit DidChannelClose(_channelId, channel.sequence, ethbalanceA, ethbalanceI, tokenbalanceA, tokenbalanceI);\n    }\n\n    function _isContained(bytes32 _hash, bytes _proof, bytes32 _root) internal pure returns (bool) {\n        bytes32 cursor = _hash;\n        bytes32 proofElem;\n\n        for (uint256 i = 64; i <= _proof.length; i += 32) {\n            assembly { proofElem := mload(add(_proof, i)) }\n\n            if (cursor < proofElem) {\n                cursor = keccak256(abi.encodePacked(cursor, proofElem));\n            } else {\n                cursor = keccak256(abi.encodePacked(proofElem, cursor));\n            }\n        }\n\n        return cursor == _root;\n    }\n\n    //Struct Getters\n    function getChannel(bytes32 id) public view returns (\n        address[2],\n        uint256[4],\n        uint256[4],\n        uint256[2],\n        uint256,\n        uint256,\n        bytes32,\n        uint256,\n        uint256,\n        bool,\n        bool,\n        uint256\n    ) {\n        Channel memory channel = Channels[id];\n        return (\n            channel.partyAddresses,\n            channel.ethBalances,\n            channel.erc20Balances,\n            channel.initialDeposit,\n            channel.sequence,\n            channel.confirmTime,\n            channel.threadRootHash,\n            channel.openTimeout,\n            channel.updateChannelTimeout,\n            channel.isOpen,\n            channel.isUpdateChannelSettling,\n            channel.numOpenThread\n        );\n    }\n\n    function getThread(bytes32 id) public view returns(\n        bool,\n        bool,\n        uint256,\n        address,\n        uint256,\n        address,\n        address,\n        address,\n        uint256[2],\n        uint256[2],\n        uint256[2]\n    ) {\n        Thread memory thread = Threads[id];\n        return(\n            thread.isClose,\n            thread.isInSettlementState,\n            thread.sequence,\n            thread.challenger,\n            thread.updateThreadTimeout,\n            thread.partyA,\n            thread.partyB,\n            thread.partyI,\n            thread.ethBalances,\n            thread.erc20Balances,\n            thread.bond\n        );\n    }\n}\n",
  "sourcePath": "/home/arjun/repositories/connext-contracts/contracts/ChannelManager.sol",
  "compiler": {
    "name": "solc",
    "version": "0.4.24+commit.e67f0147.Emscripten.clang"
  },
  "schemaVersion": "2.0.1",
  "updatedAt": "2018-09-14T17:44:49.100Z"
}