{
  "contractName": "ChannelManager",
  "abi": [
    {
      "constant": true,
      "inputs": [
        {
          "name": "",
          "type": "bytes32"
        }
      ],
      "name": "channels",
      "outputs": [
        {
          "name": "agentA",
          "type": "address"
        },
        {
          "name": "agentB",
          "type": "address"
        },
        {
          "name": "tokenContract",
          "type": "address"
        },
        {
          "name": "depositA",
          "type": "uint256"
        },
        {
          "name": "depositB",
          "type": "uint256"
        },
        {
          "name": "status",
          "type": "uint8"
        },
        {
          "name": "challenge",
          "type": "uint256"
        },
        {
          "name": "nonce",
          "type": "uint256"
        },
        {
          "name": "closeTime",
          "type": "uint256"
        },
        {
          "name": "balanceA",
          "type": "uint256"
        },
        {
          "name": "balanceB",
          "type": "uint256"
        },
        {
          "name": "challengeStartedBy",
          "type": "address"
        }
      ],
      "payable": false,
      "stateMutability": "view",
      "type": "function"
    },
    {
      "constant": true,
      "inputs": [
        {
          "name": "",
          "type": "address"
        },
        {
          "name": "",
          "type": "address"
        },
        {
          "name": "",
          "type": "address"
        }
      ],
      "name": "activeIds",
      "outputs": [
        {
          "name": "",
          "type": "bytes32"
        }
      ],
      "payable": false,
      "stateMutability": "view",
      "type": "function"
    },
    {
      "anonymous": false,
      "inputs": [
        {
          "indexed": true,
          "name": "channelId",
          "type": "bytes32"
        },
        {
          "indexed": true,
          "name": "agentA",
          "type": "address"
        },
        {
          "indexed": true,
          "name": "agentB",
          "type": "address"
        },
        {
          "indexed": false,
          "name": "tokenContract",
          "type": "address"
        },
        {
          "indexed": false,
          "name": "depositA",
          "type": "uint256"
        },
        {
          "indexed": false,
          "name": "challenge",
          "type": "uint256"
        }
      ],
      "name": "ChannelOpen",
      "type": "event"
    },
    {
      "anonymous": false,
      "inputs": [
        {
          "indexed": true,
          "name": "channelId",
          "type": "bytes32"
        },
        {
          "indexed": true,
          "name": "agentA",
          "type": "address"
        },
        {
          "indexed": true,
          "name": "agentB",
          "type": "address"
        },
        {
          "indexed": false,
          "name": "depositA",
          "type": "uint256"
        },
        {
          "indexed": false,
          "name": "depositB",
          "type": "uint256"
        }
      ],
      "name": "ChannelJoin",
      "type": "event"
    },
    {
      "anonymous": false,
      "inputs": [
        {
          "indexed": true,
          "name": "channelId",
          "type": "bytes32"
        },
        {
          "indexed": false,
          "name": "closeTime",
          "type": "uint256"
        },
        {
          "indexed": false,
          "name": "challengeStartedBy",
          "type": "address"
        }
      ],
      "name": "ChannelChallenge",
      "type": "event"
    },
    {
      "anonymous": false,
      "inputs": [
        {
          "indexed": true,
          "name": "channelId",
          "type": "bytes32"
        },
        {
          "indexed": false,
          "name": "nonce",
          "type": "uint256"
        },
        {
          "indexed": false,
          "name": "balanceA",
          "type": "uint256"
        },
        {
          "indexed": false,
          "name": "balanceB",
          "type": "uint256"
        }
      ],
      "name": "ChannelUpdateState",
      "type": "event"
    },
    {
      "anonymous": false,
      "inputs": [
        {
          "indexed": true,
          "name": "channelId",
          "type": "bytes32"
        }
      ],
      "name": "ChannelClose",
      "type": "event"
    },
    {
      "constant": false,
      "inputs": [
        {
          "name": "to",
          "type": "address"
        },
        {
          "name": "tokenContract",
          "type": "address"
        },
        {
          "name": "tokenAmount",
          "type": "uint256"
        },
        {
          "name": "challenge",
          "type": "uint256"
        }
      ],
      "name": "openChannel",
      "outputs": [],
      "payable": true,
      "stateMutability": "payable",
      "type": "function"
    },
    {
      "constant": false,
      "inputs": [
        {
          "name": "id",
          "type": "bytes32"
        },
        {
          "name": "tokenAmount",
          "type": "uint256"
        }
      ],
      "name": "joinChannel",
      "outputs": [],
      "payable": true,
      "stateMutability": "payable",
      "type": "function"
    },
    {
      "constant": true,
      "inputs": [
        {
          "name": "channelId",
          "type": "bytes32"
        },
        {
          "name": "nonce",
          "type": "uint256"
        },
        {
          "name": "balanceA",
          "type": "uint256"
        },
        {
          "name": "balanceB",
          "type": "uint256"
        },
        {
          "name": "sigA",
          "type": "string"
        },
        {
          "name": "sigB",
          "type": "string"
        },
        {
          "name": "requireSigA",
          "type": "bool"
        },
        {
          "name": "requireSigB",
          "type": "bool"
        }
      ],
      "name": "isValidStateUpdate",
      "outputs": [
        {
          "name": "",
          "type": "bool"
        }
      ],
      "payable": false,
      "stateMutability": "view",
      "type": "function"
    },
    {
      "constant": false,
      "inputs": [
        {
          "name": "channelId",
          "type": "bytes32"
        },
        {
          "name": "nonce",
          "type": "uint256"
        },
        {
          "name": "balanceA",
          "type": "uint256"
        },
        {
          "name": "balanceB",
          "type": "uint256"
        },
        {
          "name": "sigA",
          "type": "string"
        },
        {
          "name": "sigB",
          "type": "string"
        }
      ],
      "name": "updateState",
      "outputs": [],
      "payable": false,
      "stateMutability": "nonpayable",
      "type": "function"
    },
    {
      "constant": false,
      "inputs": [
        {
          "name": "channelId",
          "type": "bytes32"
        }
      ],
      "name": "startChallenge",
      "outputs": [],
      "payable": false,
      "stateMutability": "nonpayable",
      "type": "function"
    },
    {
      "constant": false,
      "inputs": [
        {
          "name": "channelId",
          "type": "bytes32"
        }
      ],
      "name": "closeChannel",
      "outputs": [],
      "payable": false,
      "stateMutability": "nonpayable",
      "type": "function"
    },
    {
      "constant": true,
      "inputs": [
        {
          "name": "id",
          "type": "bytes32"
        }
      ],
      "name": "getChannel",
      "outputs": [
        {
          "name": "",
          "type": "address"
        },
        {
          "name": "",
          "type": "address"
        },
        {
          "name": "",
          "type": "address"
        },
        {
          "name": "",
          "type": "uint256"
        },
        {
          "name": "",
          "type": "uint256"
        },
        {
          "name": "",
          "type": "uint256"
        },
        {
          "name": "",
          "type": "uint256"
        },
        {
          "name": "",
          "type": "uint256"
        },
        {
          "name": "",
          "type": "uint256"
        },
        {
          "name": "",
          "type": "uint256"
        },
        {
          "name": "",
          "type": "uint256"
        },
        {
          "name": "",
          "type": "address"
        }
      ],
      "payable": false,
      "stateMutability": "view",
      "type": "function"
    }
  ],
  "bytecode": "0x608060405234801561001057600080fd5b50613421806100206000396000f300608060405260043610610099576000357c0100000000000000000000000000000000000000000000000000000000900463ffffffff16806339495ecf1461009e5780634c2ee09d146100cc5780637a7ebd7b146100fd578063831c2b821461024d5780638b1df7791461038f578063b2b8339e1461049a578063b7453cc514610539578063d8d9965a14610614578063ff2f02751461067e575b600080fd5b6100ca6004803603810190808035600019169060200190929190803590602001909291905050506106af565b005b3480156100d857600080fd5b506100fb6004803603810190808035600019169060200190929190505050610b52565b005b34801561010957600080fd5b5061012c60048036038101908080356000191690602001909291905050506114fb565b604051808d73ffffffffffffffffffffffffffffffffffffffff1673ffffffffffffffffffffffffffffffffffffffff1681526020018c73ffffffffffffffffffffffffffffffffffffffff1673ffffffffffffffffffffffffffffffffffffffff1681526020018b73ffffffffffffffffffffffffffffffffffffffff1673ffffffffffffffffffffffffffffffffffffffff1681526020018a81526020018981526020018860038111156101de57fe5b60ff1681526020018781526020018681526020018581526020018481526020018381526020018273ffffffffffffffffffffffffffffffffffffffff1673ffffffffffffffffffffffffffffffffffffffff1681526020019c5050505050505050505050505060405180910390f35b34801561025957600080fd5b5061027c60048036038101908080356000191690602001909291905050506115e8565b604051808d73ffffffffffffffffffffffffffffffffffffffff1673ffffffffffffffffffffffffffffffffffffffff1681526020018c73ffffffffffffffffffffffffffffffffffffffff1673ffffffffffffffffffffffffffffffffffffffff1681526020018b73ffffffffffffffffffffffffffffffffffffffff1673ffffffffffffffffffffffffffffffffffffffff1681526020018a81526020018981526020018881526020018781526020018681526020018581526020018481526020018381526020018273ffffffffffffffffffffffffffffffffffffffff1673ffffffffffffffffffffffffffffffffffffffff1681526020019c5050505050505050505050505060405180910390f35b34801561039b57600080fd5b506104806004803603810190808035600019169060200190929190803590602001909291908035906020019092919080359060200190929190803590602001908201803590602001908080601f0160208091040260200160405190810160405280939291908181526020018383808284378201915050505050509192919290803590602001908201803590602001908080601f0160208091040260200160405190810160405280939291908181526020018383808284378201915050505050509192919290803515159060200190929190803515159060200190929190505050611869565b604051808215151515815260200191505060405180910390f35b3480156104a657600080fd5b5061051b600480360381019080803573ffffffffffffffffffffffffffffffffffffffff169060200190929190803573ffffffffffffffffffffffffffffffffffffffff169060200190929190803573ffffffffffffffffffffffffffffffffffffffff1690602001909291905050506121a8565b60405180826000191660001916815260200191505060405180910390f35b34801561054557600080fd5b506106126004803603810190808035600019169060200190929190803590602001909291908035906020019092919080359060200190929190803590602001908201803590602001908080601f0160208091040260200160405190810160405280939291908181526020018383808284378201915050505050509192919290803590602001908201803590602001908080601f01602080910402602001604051908101604052809392919081815260200183838082843782019150505050505091929192905050506121da565b005b61067c600480360381019080803573ffffffffffffffffffffffffffffffffffffffff169060200190929190803573ffffffffffffffffffffffffffffffffffffffff1690602001909291908035906020019092919080359060200190929190505050612415565b005b34801561068a57600080fd5b506106ad600480360381019080803560001916906020019092919050505061300a565b005b600080600080856000191660001916815260200190815260200160002091508160010160009054906101000a900473ffffffffffffffffffffffffffffffffffffffff1673ffffffffffffffffffffffffffffffffffffffff163373ffffffffffffffffffffffffffffffffffffffff16141515610795576040517f08c379a00000000000000000000000000000000000000000000000000000000081526004018080602001828103825260118152602001807f4e6f7420796f7572206368616e6e656c2e00000000000000000000000000000081525060200191505060405180910390fd5b600060038111156107a257fe5b8260050160009054906101000a900460ff1660038111156107bf57fe5b141515610834576040517f08c379a000000000000000000000000000000000000000000000000000000000815260040180806020018281038252601b8152602001807f4368616e6e656c20737461747573206973206e6f74204f70656e2e000000000081525060200191505060405180910390fd5b600073ffffffffffffffffffffffffffffffffffffffff168260020160009054906101000a900473ffffffffffffffffffffffffffffffffffffffff1673ffffffffffffffffffffffffffffffffffffffff1614156108a4573482600401819055503482600a0181905550610a64565b8282600401819055508282600a01819055508160020160009054906101000a900473ffffffffffffffffffffffffffffffffffffffff1690508073ffffffffffffffffffffffffffffffffffffffff166323b872dd3330866040518463ffffffff167c0100000000000000000000000000000000000000000000000000000000028152600401808473ffffffffffffffffffffffffffffffffffffffff1673ffffffffffffffffffffffffffffffffffffffff1681526020018373ffffffffffffffffffffffffffffffffffffffff1673ffffffffffffffffffffffffffffffffffffffff1681526020018281526020019350505050602060405180830381600087803b1580156109b457600080fd5b505af11580156109c8573d6000803e3d6000fd5b505050506040513d60208110156109de57600080fd5b81019080805190602001909291905050501515610a63576040517f08c379a000000000000000000000000000000000000000000000000000000000815260040180806020018281038252601a8152602001807f4572726f72207472616e7366657272696e6720746f6b656e732e00000000000081525060200191505060405180910390fd5b5b60018260050160006101000a81548160ff02191690836003811115610a8557fe5b02179055508160010160009054906101000a900473ffffffffffffffffffffffffffffffffffffffff1673ffffffffffffffffffffffffffffffffffffffff168260000160009054906101000a900473ffffffffffffffffffffffffffffffffffffffff1673ffffffffffffffffffffffffffffffffffffffff1685600019167f7b285069ffcd2321527a5e4069cba2c8766e564c8df20bace16e3805e092c4df85600301548660040154604051808381526020018281526020019250505060405180910390a450505050565b600080600080846000191660001916815260200190815260200160002091508160000160009054906101000a900473ffffffffffffffffffffffffffffffffffffffff1673ffffffffffffffffffffffffffffffffffffffff163373ffffffffffffffffffffffffffffffffffffffff161480610c1e57508160010160009054906101000a900473ffffffffffffffffffffffffffffffffffffffff1673ffffffffffffffffffffffffffffffffffffffff163373ffffffffffffffffffffffffffffffffffffffff16145b1515610c92576040517f08c379a00000000000000000000000000000000000000000000000000000000081526004018080602001828103825260118152602001807f4e6f7420796f7572206368616e6e656c2e00000000000000000000000000000081525060200191505060405180910390fd5b60026003811115610c9f57fe5b8260050160009054906101000a900460ff166003811115610cbc57fe5b141515610d31576040517f08c379a000000000000000000000000000000000000000000000000000000000815260040180806020018281038252601d8152602001807f4368616e6e656c20737461747573206e6f74204368616c6c656e67652e00000081525060200191505060405180910390fd5b81600b0160009054906101000a900473ffffffffffffffffffffffffffffffffffffffff1673ffffffffffffffffffffffffffffffffffffffff163373ffffffffffffffffffffffffffffffffffffffff161415610e0557816008015442111515610e04576040517f08c379a000000000000000000000000000000000000000000000000000000000815260040180806020018281038252601a8152602001807f4368616c6c656e676520706572696f64206e6f74206f7665722e00000000000081525060200191505060405180910390fd5b5b60008260090181905550600082600a0181905550600073ffffffffffffffffffffffffffffffffffffffff168260020160009054906101000a900473ffffffffffffffffffffffffffffffffffffffff1673ffffffffffffffffffffffffffffffffffffffff161415610f55578160000160009054906101000a900473ffffffffffffffffffffffffffffffffffffffff1673ffffffffffffffffffffffffffffffffffffffff166108fc83600901549081150290604051600060405180830381858888f19350505050158015610ee0573d6000803e3d6000fd5b508160010160009054906101000a900473ffffffffffffffffffffffffffffffffffffffff1673ffffffffffffffffffffffffffffffffffffffff166108fc83600a01549081150290604051600060405180830381858888f19350505050158015610f4f573d6000803e3d6000fd5b50611271565b8160020160009054906101000a900473ffffffffffffffffffffffffffffffffffffffff1690508073ffffffffffffffffffffffffffffffffffffffff1663a9059cbb8360000160009054906101000a900473ffffffffffffffffffffffffffffffffffffffff1684600901546040518363ffffffff167c0100000000000000000000000000000000000000000000000000000000028152600401808373ffffffffffffffffffffffffffffffffffffffff1673ffffffffffffffffffffffffffffffffffffffff16815260200182815260200192505050602060405180830381600087803b15801561104757600080fd5b505af115801561105b573d6000803e3d6000fd5b505050506040513d602081101561107157600080fd5b810190808051906020019092919050505015156110f6576040517f08c379a000000000000000000000000000000000000000000000000000000000815260040180806020018281038252601a8152602001807f4572726f72207472616e7366657272696e6720746f6b656e732e00000000000081525060200191505060405180910390fd5b8073ffffffffffffffffffffffffffffffffffffffff1663a9059cbb8360010160009054906101000a900473ffffffffffffffffffffffffffffffffffffffff1684600a01546040518363ffffffff167c0100000000000000000000000000000000000000000000000000000000028152600401808373ffffffffffffffffffffffffffffffffffffffff1673ffffffffffffffffffffffffffffffffffffffff16815260200182815260200192505050602060405180830381600087803b1580156111c157600080fd5b505af11580156111d5573d6000803e3d6000fd5b505050506040513d60208110156111eb57600080fd5b81019080805190602001909291905050501515611270576040517f08c379a000000000000000000000000000000000000000000000000000000000815260040180806020018281038252601a8152602001807f4572726f72207472616e7366657272696e6720746f6b656e732e00000000000081525060200191505060405180910390fd5b5b60038260050160006101000a81548160ff0219169083600381111561129257fe5b0217905550600160008360000160009054906101000a900473ffffffffffffffffffffffffffffffffffffffff1673ffffffffffffffffffffffffffffffffffffffff1673ffffffffffffffffffffffffffffffffffffffff16815260200190815260200160002060008360010160009054906101000a900473ffffffffffffffffffffffffffffffffffffffff1673ffffffffffffffffffffffffffffffffffffffff1673ffffffffffffffffffffffffffffffffffffffff16815260200190815260200160002060008360020160009054906101000a900473ffffffffffffffffffffffffffffffffffffffff1673ffffffffffffffffffffffffffffffffffffffff1673ffffffffffffffffffffffffffffffffffffffff168152602001908152602001600020600090556000808460001916600019168152602001908152602001600020600080820160006101000a81549073ffffffffffffffffffffffffffffffffffffffff02191690556001820160006101000a81549073ffffffffffffffffffffffffffffffffffffffff02191690556002820160006101000a81549073ffffffffffffffffffffffffffffffffffffffff0219169055600382016000905560048201600090556005820160006101000a81549060ff02191690556006820160009055600782016000905560088201600090556009820160009055600a820160009055600b820160006101000a81549073ffffffffffffffffffffffffffffffffffffffff0219169055505082600019167f60c8851fb5a72061b2ddf28b0e4c661e6c2f2ba52b202fbb8a15e705f5269faa60405160405180910390a2505050565b60006020528060005260406000206000915090508060000160009054906101000a900473ffffffffffffffffffffffffffffffffffffffff16908060010160009054906101000a900473ffffffffffffffffffffffffffffffffffffffff16908060020160009054906101000a900473ffffffffffffffffffffffffffffffffffffffff16908060030154908060040154908060050160009054906101000a900460ff169080600601549080600701549080600801549080600901549080600a01549080600b0160009054906101000a900473ffffffffffffffffffffffffffffffffffffffff1690508c565b600080600080600080600080600080600080611602613330565b6000808f6000191660001916815260200190815260200160002061018060405190810160405290816000820160009054906101000a900473ffffffffffffffffffffffffffffffffffffffff1673ffffffffffffffffffffffffffffffffffffffff1673ffffffffffffffffffffffffffffffffffffffff1681526020016001820160009054906101000a900473ffffffffffffffffffffffffffffffffffffffff1673ffffffffffffffffffffffffffffffffffffffff1673ffffffffffffffffffffffffffffffffffffffff1681526020016002820160009054906101000a900473ffffffffffffffffffffffffffffffffffffffff1673ffffffffffffffffffffffffffffffffffffffff1673ffffffffffffffffffffffffffffffffffffffff16815260200160038201548152602001600482015481526020016005820160009054906101000a900460ff16600381111561175d57fe5b600381111561176857fe5b815260200160068201548152602001600782015481526020016008820154815260200160098201548152602001600a8201548152602001600b820160009054906101000a900473ffffffffffffffffffffffffffffffffffffffff1673ffffffffffffffffffffffffffffffffffffffff1673ffffffffffffffffffffffffffffffffffffffff16815250509050806000015181602001518260400151836060015184608001518560a00151600381111561181f57fe5b8660c001518760e001518861010001518961012001518a61014001518b61016001519c509c509c509c509c509c509c509c509c509c509c509c505091939597999b5091939597999b565b6000611873613330565b6000806000808d6000191660001916815260200190815260200160002061018060405190810160405290816000820160009054906101000a900473ffffffffffffffffffffffffffffffffffffffff1673ffffffffffffffffffffffffffffffffffffffff1673ffffffffffffffffffffffffffffffffffffffff1681526020016001820160009054906101000a900473ffffffffffffffffffffffffffffffffffffffff1673ffffffffffffffffffffffffffffffffffffffff1673ffffffffffffffffffffffffffffffffffffffff1681526020016002820160009054906101000a900473ffffffffffffffffffffffffffffffffffffffff1673ffffffffffffffffffffffffffffffffffffffff1673ffffffffffffffffffffffffffffffffffffffff16815260200160038201548152602001600482015481526020016005820160009054906101000a900460ff1660038111156119d157fe5b60038111156119dc57fe5b815260200160068201548152602001600782015481526020016008820154815260200160098201548152602001600a8201548152602001600b820160009054906101000a900473ffffffffffffffffffffffffffffffffffffffff1673ffffffffffffffffffffffffffffffffffffffff1673ffffffffffffffffffffffffffffffffffffffff168152505092508260800151836060015101898b01141515611b13576040517f08c379a00000000000000000000000000000000000000000000000000000000081526004018080602001828103825260238152602001807f42616c616e63657320646f206e6f742061646420757020746f206465706f736981526020017f74732e000000000000000000000000000000000000000000000000000000000081525060400191505060405180910390fd5b60016003811115611b2057fe5b8360a001516003811115611b3057fe5b1480611b56575060026003811115611b4457fe5b8360a001516003811115611b5457fe5b145b1515611bf0576040517f08c379a000000000000000000000000000000000000000000000000000000000815260040180806020018281038252602a8152602001807f4368616e6e656c20737461747573206973206e6f74204a6f696e6564206f722081526020017f4368616c6c656e67652e0000000000000000000000000000000000000000000081525060400191505060405180910390fd5b60026003811115611bfd57fe5b8360a001516003811115611c0d57fe5b1415611c905782610100015142101515611c8f576040517f08c379a00000000000000000000000000000000000000000000000000000000081526004018080602001828103825260198152602001807f4368616c6c656e676520706572696f64206973206f7665722e0000000000000081525060200191505060405180910390fd5b5b8260e001518b111515611d31576040517f08c379a00000000000000000000000000000000000000000000000000000000081526004018080602001828103825260308152602001807f4e6f6e6365206973206e6f7420686967686572207468616e206f6e206368616981526020017f6e206368616e6e656c2073746174652e0000000000000000000000000000000081525060400191505060405180910390fd5b8b8b8b8b6040518085600019166000191681526020018481526020018381526020018281526020019450505050506040518091039020915060405180807f6279746573333220686173680000000000000000000000000000000000000000815250600c0190506040518091039020826040518082600019166000191681526020019150506040518091039020604051808360001916600019168152602001826000191660001916815260200192505050604051809103902090508515611fc0576001151573__ECTools_______________________________631052506f838b87600001516040518463ffffffff167c0100000000000000000000000000000000000000000000000000000000028152600401808460001916600019168152602001806020018373ffffffffffffffffffffffffffffffffffffffff1673ffffffffffffffffffffffffffffffffffffffff168152602001828103825284818151815260200191508051906020019080838360005b83811015611ec1578082015181840152602081019050611ea6565b50505050905090810190601f168015611eee5780820380516001836020036101000a031916815260200191505b5094505050505060206040518083038186803b158015611f0d57600080fd5b505af4158015611f21573d6000803e3d6000fd5b505050506040513d6020811015611f3757600080fd5b81019080805190602001909291905050501515141515611fbf576040517f08c379a000000000000000000000000000000000000000000000000000000000815260040180806020018281038252601a8152602001807f4167656e7441207369676e6174757265206e6f742076616c696400000000000081525060200191505060405180910390fd5b5b8415612195576001151573__ECTools_______________________________631052506f838a87602001516040518463ffffffff167c0100000000000000000000000000000000000000000000000000000000028152600401808460001916600019168152602001806020018373ffffffffffffffffffffffffffffffffffffffff1673ffffffffffffffffffffffffffffffffffffffff168152602001828103825284818151815260200191508051906020019080838360005b8381101561209657808201518184015260208101905061207b565b50505050905090810190601f1680156120c35780820380516001836020036101000a031916815260200191505b5094505050505060206040518083038186803b1580156120e257600080fd5b505af41580156120f6573d6000803e3d6000fd5b505050506040513d602081101561210c57600080fd5b81019080805190602001909291905050501515141515612194576040517f08c379a000000000000000000000000000000000000000000000000000000000815260040180806020018281038252601a8152602001807f4167656e7441207369676e6174757265206e6f742076616c696400000000000081525060200191505060405180910390fd5b5b6001935050505098975050505050505050565b600160205282600052604060002060205281600052604060002060205280600052604060002060009250925050505481565b6000806000886000191660001916815260200190815260200160002090508060000160009054906101000a900473ffffffffffffffffffffffffffffffffffffffff1673ffffffffffffffffffffffffffffffffffffffff163373ffffffffffffffffffffffffffffffffffffffff1614806122a557508060010160009054906101000a900473ffffffffffffffffffffffffffffffffffffffff1673ffffffffffffffffffffffffffffffffffffffff163373ffffffffffffffffffffffffffffffffffffffff16145b1515612319576040517f08c379a00000000000000000000000000000000000000000000000000000000081526004018080602001828103825260118152602001807f4e6f7420796f7572206368616e6e656c2e00000000000000000000000000000081525060200191505060405180910390fd5b6001151561232e888888888888600180611869565b15151415156123a5576040517f08c379a000000000000000000000000000000000000000000000000000000000815260040180806020018281038252601a8152602001807f426f7468207369676e617475726573206e6f742076616c69642e00000000000081525060200191505060405180910390fd5b8481600901819055508381600a018190555085816007018190555086600019167f391169f9d5d0ff82a3ae52a568e6876cf6fb160e838898a0ce01bd0e0250453c87878760405180848152602001838152602001828152602001935050505060405180910390a250505050505050565b600061241f613330565b60008084141515156124bf576040517f08c379a00000000000000000000000000000000000000000000000000000000081526004018080602001828103825260228152602001807f4368616c6c656e676520706572696f64206d757374206265206e6f6e2d7a657281526020017f6f2e00000000000000000000000000000000000000000000000000000000000081525060400191505060405180910390fd5b600073ffffffffffffffffffffffffffffffffffffffff168773ffffffffffffffffffffffffffffffffffffffff1614151515612564576040517f08c379a000000000000000000000000000000000000000000000000000000000815260040180806020018281038252601a8152602001807f4e65656420636f756e746572706172747920616464726573732e00000000000081525060200191505060405180910390fd5b3373ffffffffffffffffffffffffffffffffffffffff168773ffffffffffffffffffffffffffffffffffffffff161415151561262e576040517f08c379a00000000000000000000000000000000000000000000000000000000081526004018080602001828103825260248152602001807f43616e6e6f7420637265617465206368616e6e656c207769746820796f75727381526020017f656c662e0000000000000000000000000000000000000000000000000000000081525060400191505060405180910390fd5b600060010260001916600160003373ffffffffffffffffffffffffffffffffffffffff1673ffffffffffffffffffffffffffffffffffffffff16815260200190815260200160002060008973ffffffffffffffffffffffffffffffffffffffff1673ffffffffffffffffffffffffffffffffffffffff16815260200190815260200160002060008873ffffffffffffffffffffffffffffffffffffffff1673ffffffffffffffffffffffffffffffffffffffff168152602001908152602001600020546000191614151561276a576040517f08c379a000000000000000000000000000000000000000000000000000000000815260040180806020018281038252600f8152602001807f4368616e6e656c206578697374732e000000000000000000000000000000000081525060200191505060405180910390fd5b600060010260001916600160008973ffffffffffffffffffffffffffffffffffffffff1673ffffffffffffffffffffffffffffffffffffffff16815260200190815260200160002060003373ffffffffffffffffffffffffffffffffffffffff1673ffffffffffffffffffffffffffffffffffffffff16815260200190815260200160002060008873ffffffffffffffffffffffffffffffffffffffff1673ffffffffffffffffffffffffffffffffffffffff16815260200190815260200160002054600019161415156128a6576040517f08c379a000000000000000000000000000000000000000000000000000000000815260040180806020018281038252600f8152602001807f4368616e6e656c206578697374732e000000000000000000000000000000000081525060200191505060405180910390fd5b600073ffffffffffffffffffffffffffffffffffffffff168673ffffffffffffffffffffffffffffffffffffffff1614151561297b5760003414151561297a576040517f08c379a00000000000000000000000000000000000000000000000000000000081526004018080602001828103825260228152602001807f43616e2774207573652045544820616e6420746f6b656e7320746f676574686581526020017f722e00000000000000000000000000000000000000000000000000000000000081525060400191505060405180910390fd5b5b338742604051808473ffffffffffffffffffffffffffffffffffffffff1673ffffffffffffffffffffffffffffffffffffffff166c010000000000000000000000000281526014018373ffffffffffffffffffffffffffffffffffffffff1673ffffffffffffffffffffffffffffffffffffffff166c0100000000000000000000000002815260140182815260200193505050506040518091039020925033826000019073ffffffffffffffffffffffffffffffffffffffff16908173ffffffffffffffffffffffffffffffffffffffff168152505086826020019073ffffffffffffffffffffffffffffffffffffffff16908173ffffffffffffffffffffffffffffffffffffffff1681525050600073ffffffffffffffffffffffffffffffffffffffff168673ffffffffffffffffffffffffffffffffffffffff161415612ad857348260600181815250503482610120018181525050612c77565b8482606001818152505084826101200181815250508590508073ffffffffffffffffffffffffffffffffffffffff166323b872dd3330886040518463ffffffff167c0100000000000000000000000000000000000000000000000000000000028152600401808473ffffffffffffffffffffffffffffffffffffffff1673ffffffffffffffffffffffffffffffffffffffff1681526020018373ffffffffffffffffffffffffffffffffffffffff1673ffffffffffffffffffffffffffffffffffffffff1681526020018281526020019350505050602060405180830381600087803b158015612bc757600080fd5b505af1158015612bdb573d6000803e3d6000fd5b505050506040513d6020811015612bf157600080fd5b81019080805190602001909291905050501515612c76576040517f08c379a000000000000000000000000000000000000000000000000000000000815260040180806020018281038252601a8152602001807f4572726f72207472616e7366657272696e6720746f6b656e732e00000000000081525060200191505060405180910390fd5b5b85826040019073ffffffffffffffffffffffffffffffffffffffff16908173ffffffffffffffffffffffffffffffffffffffff168152505060008260a001906003811115612cc157fe5b90816003811115612cce57fe5b81525050838260c001818152505082600160003373ffffffffffffffffffffffffffffffffffffffff1673ffffffffffffffffffffffffffffffffffffffff16815260200190815260200160002060008973ffffffffffffffffffffffffffffffffffffffff1673ffffffffffffffffffffffffffffffffffffffff16815260200190815260200160002060008873ffffffffffffffffffffffffffffffffffffffff1673ffffffffffffffffffffffffffffffffffffffff168152602001908152602001600020816000191690555081600080856000191660001916815260200190815260200160002060008201518160000160006101000a81548173ffffffffffffffffffffffffffffffffffffffff021916908373ffffffffffffffffffffffffffffffffffffffff16021790555060208201518160010160006101000a81548173ffffffffffffffffffffffffffffffffffffffff021916908373ffffffffffffffffffffffffffffffffffffffff16021790555060408201518160020160006101000a81548173ffffffffffffffffffffffffffffffffffffffff021916908373ffffffffffffffffffffffffffffffffffffffff160217905550606082015181600301556080820151816004015560a08201518160050160006101000a81548160ff02191690836003811115612ec657fe5b021790555060c0820151816006015560e082015181600701556101008201518160080155610120820151816009015561014082015181600a015561016082015181600b0160006101000a81548173ffffffffffffffffffffffffffffffffffffffff021916908373ffffffffffffffffffffffffffffffffffffffff160217905550905050816020015173ffffffffffffffffffffffffffffffffffffffff16826000015173ffffffffffffffffffffffffffffffffffffffff1684600019167f8cd544d236a3435e48a657e78803d9a0663a99ca62c66c571908f4ab7ecf95868986606001518760c00151604051808473ffffffffffffffffffffffffffffffffffffffff1673ffffffffffffffffffffffffffffffffffffffff168152602001838152602001828152602001935050505060405180910390a450505050505050565b6000806000836000191660001916815260200190815260200160002090508060000160009054906101000a900473ffffffffffffffffffffffffffffffffffffffff1673ffffffffffffffffffffffffffffffffffffffff163373ffffffffffffffffffffffffffffffffffffffff1614806130d557508060010160009054906101000a900473ffffffffffffffffffffffffffffffffffffffff1673ffffffffffffffffffffffffffffffffffffffff163373ffffffffffffffffffffffffffffffffffffffff16145b1515613149576040517f08c379a00000000000000000000000000000000000000000000000000000000081526004018080602001828103825260118152602001807f4e6f7420796f7572206368616e6e656c2e00000000000000000000000000000081525060200191505060405180910390fd5b6000600381111561315657fe5b8160050160009054906101000a900460ff16600381111561317357fe5b14806131a657506001600381111561318757fe5b8160050160009054906101000a900460ff1660038111156131a457fe5b145b1515613240576040517f08c379a00000000000000000000000000000000000000000000000000000000081526004018080602001828103825260218152602001807f4368616e6e656c20737461747573206e6f74204f70656e206f72204a6f696e6581526020017f640000000000000000000000000000000000000000000000000000000000000081525060400191505060405180910390fd5b60028160050160006101000a81548160ff0219169083600381111561326157fe5b02179055508060060154420181600801819055503381600b0160006101000a81548173ffffffffffffffffffffffffffffffffffffffff021916908373ffffffffffffffffffffffffffffffffffffffff16021790555081600019167fd0496bb63b707b32ebe9e8d4f9e1af77907f96ef8e54e525c3413f87e07aa33b826008015433604051808381526020018273ffffffffffffffffffffffffffffffffffffffff1673ffffffffffffffffffffffffffffffffffffffff1681526020019250505060405180910390a25050565b61018060405190810160405280600073ffffffffffffffffffffffffffffffffffffffff168152602001600073ffffffffffffffffffffffffffffffffffffffff168152602001600073ffffffffffffffffffffffffffffffffffffffff1681526020016000815260200160008152602001600060038111156133af57fe5b81526020016000815260200160008152602001600081526020016000815260200160008152602001600073ffffffffffffffffffffffffffffffffffffffff16815250905600a165627a7a723058200846dbb42af587597e2af6aaee5749fc6b24d12eb3ff33c16520f6d321829b380029",
  "source": "pragma solidity ^0.4.23;\n\nimport \"./ECTools.sol\";\nimport \"zeppelin-solidity/contracts/token/ERC20/ERC20.sol\";\n\ncontract ChannelManager {\n    event ChannelOpen(\n        bytes32 indexed channelId,\n        address indexed agentA,\n        address indexed agentB,\n        address tokenContract,\n        uint256 depositA,\n        uint256 challenge\n    );\n    event ChannelJoin(\n        bytes32 indexed channelId,\n        address indexed agentA,\n        address indexed agentB,\n        uint256 depositA,\n        uint256 depositB\n    );\n    event ChannelChallenge(\n        bytes32 indexed channelId,\n        uint256 closeTime,\n        address challengeStartedBy\n    );\n    event ChannelUpdateState(\n        bytes32 indexed channelId,\n        uint256 nonce,\n        uint256 balanceA,\n        uint256 balanceB\n    );\n    event ChannelClose(bytes32 indexed channelId);\n\n    enum ChannelStatus {\n        Open,\n        Joined,\n        Challenge,\n        Closed\n    }\n\n    struct Channel {\n        address agentA;\n        address agentB;\n        address tokenContract;\n        uint depositA; // Deposit of agent A\n        uint depositB; // Deposit of agent B\n        ChannelStatus status; \n        uint challenge;\n        uint nonce;\n        uint closeTime;\n        uint balanceA; // for state update\n        uint balanceB; // for state update\n        address challengeStartedBy; // for fast close\n    }\n\n    mapping (bytes32 => Channel) public channels;\n    // creator => counterparty => token contract\n    mapping (address => mapping(address => mapping(address => bytes32))) public activeIds;\n\n    function openChannel(\n        address to,\n        address tokenContract,\n        uint tokenAmount,\n        uint challenge\n    ) \n        public \n        payable\n    {\n        require(challenge != 0, \"Challenge period must be non-zero.\");\n        require(to != address(0), \"Need counterparty address.\");\n        require(to != msg.sender, \"Cannot create channel with yourself.\");\n        require(activeIds[msg.sender][to][tokenContract] == bytes32(0), \"Channel exists.\");\n        require(activeIds[to][msg.sender][tokenContract] == bytes32(0), \"Channel exists.\");\n        if (tokenContract != address(0)) {\n            require(msg.value == 0, \"Can't use ETH and tokens together.\");\n        }\n\n        // channel specific\n        bytes32 id = keccak256(msg.sender, to, now);\n        Channel memory channel;\n        channel.agentA = msg.sender;\n        channel.agentB = to;\n\n        // set deposits\n        if (tokenContract == address(0)) {\n            // eth\n            channel.depositA = msg.value;\n            channel.balanceA = msg.value; // so that close can happen without any state updates\n        } else {\n            // tokens\n            channel.depositA = tokenAmount;\n            channel.balanceA = tokenAmount; // so that close can happen without any state updates\n\n             // transfer tokens, must be approved\n            ERC20 erc20 = ERC20(tokenContract);\n            require(\n                erc20.transferFrom(msg.sender, address(this), tokenAmount),\n                \"Error transferring tokens.\"\n            );\n        }\n        channel.tokenContract = tokenContract;\n\n        // lifecycle\n        channel.status = ChannelStatus.Open;\n        channel.challenge = challenge;\n\n        // Add it to the lookup table\n        activeIds[msg.sender][to][tokenContract] = id;\n\n        // add to storage\n        channels[id] = channel;\n\n        emit ChannelOpen(\n            id,\n            channel.agentA,\n            channel.agentB,\n            tokenContract,\n            channel.depositA,\n            channel.challenge\n        );\n    }\n\n    function joinChannel(bytes32 id, uint tokenAmount) \n        public\n        payable \n    {\n        Channel storage channel = channels[id];\n\n        require(msg.sender == channel.agentB, \"Not your channel.\");\n        require(channel.status == ChannelStatus.Open, \"Channel status is not Open.\");\n\n        if (channel.tokenContract == address(0)) {\n            channel.depositB = msg.value;\n            channel.balanceB = msg.value;\n        } else {\n            channel.depositB = tokenAmount;\n            channel.balanceB = tokenAmount;\n\n            // transfer tokens, must be approved\n            ERC20 erc20 = ERC20(channel.tokenContract);\n            require(erc20.transferFrom(msg.sender, address(this), tokenAmount), \"Error transferring tokens.\");\n        }\n\n        channel.status = ChannelStatus.Joined;\n        emit ChannelJoin(\n            id,\n            channel.agentA,\n            channel.agentB,\n            channel.depositA,\n            channel.depositB\n        );\n    }\n\n    function isValidStateUpdate(\n        bytes32 channelId,\n        uint256 nonce,\n        uint256 balanceA,\n        uint256 balanceB,\n        string sigA,\n        string sigB,\n        bool requireSigA,\n        bool requireSigB\n    ) \n        public\n        view\n        returns (bool)\n    {\n        Channel memory channel = channels[channelId];\n\n        // sanity checks\n        require(\n            balanceA + balanceB == channel.depositA + channel.depositB,\n            \"Balances do not add up to deposits.\"\n        );\n        require(\n            channel.status == ChannelStatus.Joined || channel.status == ChannelStatus.Challenge,\n            \"Channel status is not Joined or Challenge.\"\n        );\n        if (channel.status == ChannelStatus.Challenge) {\n            require(now < channel.closeTime, \"Challenge period is over.\");\n        }\n        require(nonce > channel.nonce, \"Nonce is not higher than on chain channel state.\");\n\n        // require state info to be signed by both participants\n        // we are using eth_signTypedData, references:\n        // https://medium.com/metamask/scaling-web3-with-signtypeddata-91d6efc8b290\n        // https://github.com/ukstv/sign-typed-data-test/blob/master/contracts/SignTypedData.sol#L11\n        // https://github.com/MetaMask/eth-sig-util/blob/master/index.js\n        bytes32 fingerprint = keccak256(\n            channelId,\n            nonce,\n            balanceA,\n            balanceB\n        );\n\n        bytes32 signTypedDataFingerprint = keccak256(\n            keccak256(\"bytes32 hash\"),\n            keccak256(fingerprint)\n        );\n\n        if (requireSigA) {\n            require(\n                ECTools.isSignedBy(signTypedDataFingerprint, sigA, channel.agentA) == true,\n                \"AgentA signature not valid\"\n            );\n        }\n\n        if (requireSigB) {\n            require(\n                ECTools.isSignedBy(signTypedDataFingerprint, sigB, channel.agentB) == true,\n                \"AgentA signature not valid\"\n            );\n        }\n\n        // return true if all conditions pass\n        return true;\n    }\n\n    function updateState(\n        bytes32 channelId,\n        uint256 nonce,\n        uint256 balanceA,\n        uint256 balanceB,\n        string sigA,\n        string sigB\n    ) \n        public\n    {\n        Channel storage channel = channels[channelId];\n\n        // sanity checks\n        require(\n            msg.sender == channel.agentA || msg.sender == channel.agentB,\n            \"Not your channel.\"\n        );\n        require(\n            isValidStateUpdate(\n                channelId,\n                nonce,\n                balanceA,\n                balanceB,\n                sigA,\n                sigB,\n                true,\n                true\n            ) == true,\n            \"Both signatures not valid.\"\n        );\n\n        // set state variables\n        channel.balanceA = balanceA;\n        channel.balanceB = balanceB;\n        channel.nonce = nonce;\n\n        emit ChannelUpdateState(channelId, nonce, balanceA, balanceB);\n    }\n\n    function startChallenge(bytes32 channelId) public {\n        Channel storage channel = channels[channelId];\n\n        // sanity checks\n        require(\n            msg.sender == channel.agentA || msg.sender == channel.agentB,\n            \"Not your channel.\"\n        );\n        require(\n            channel.status == ChannelStatus.Open || channel.status == ChannelStatus.Joined,\n            \"Channel status not Open or Joined\"\n        );\n\n        // update channel status\n        channel.status = ChannelStatus.Challenge;\n        channel.closeTime = now + channel.challenge;\n        channel.challengeStartedBy = msg.sender;\n        \n        emit ChannelChallenge(channelId, channel.closeTime, msg.sender);\n    }\n\n    function closeChannel(bytes32 channelId) public {\n        Channel storage channel = channels[channelId];\n\n        // request must come from agents\n        require(\n            msg.sender == channel.agentA || msg.sender == channel.agentB,\n            \"Not your channel.\"\n        );\n\n        // channel must be in challenge and challenge period over\n        require(\n            channel.status == ChannelStatus.Challenge,\n            \"Channel status not Challenge.\"\n        );\n\n        // if closer is not the person who started the challenge, fast close channel\n        if (msg.sender == channel.challengeStartedBy) {\n            require(now > channel.closeTime, \"Challenge period not over.\");\n        }\n\n        // zero out to avoid reentrancy\n        channel.balanceA = 0;\n        channel.balanceB = 0;\n        // if true, then use final state to close channel\n        if (channel.tokenContract == address(0)) {\n            channel.agentA.transfer(channel.balanceA);\n            channel.agentB.transfer(channel.balanceB);\n        } else {\n            ERC20 token = ERC20(channel.tokenContract);\n            require(\n                token.transfer(channel.agentA, channel.balanceA),\n                \"Error transferring tokens.\"\n            );\n            require(\n                token.transfer(channel.agentB, channel.balanceB),\n                \"Error transferring tokens.\"\n            );\n        }\n\n        channel.status = ChannelStatus.Closed; // redundant bc channel is deleted\n        delete activeIds[channel.agentA][channel.agentB][channel.tokenContract];\n        delete channels[channelId];\n\n        emit ChannelClose(channelId);\n    }\n\n    function getChannel(bytes32 id) public view returns (\n        address,\n        address,\n        address,\n        uint,\n        uint,\n        uint,\n        uint,\n        uint,\n        uint,\n        uint,\n        uint,\n        address\n    ) {\n        Channel memory channel = channels[id];\n        return (\n            channel.agentA,\n            channel.agentB,\n            channel.tokenContract,\n            channel.depositA,\n            channel.depositB,\n            uint(channel.status),\n            channel.challenge,\n            channel.nonce,\n            channel.closeTime,\n            channel.balanceA,\n            channel.balanceB,\n            channel.challengeStartedBy\n        );\n    }\n}",
  "sourcePath": "/Users/rahul/Desktop/connext/ethcalate-bidirectional-erc20-single/contracts/ChannelManager.sol",
  "compiler": {
    "name": "solc",
    "version": "0.4.23+commit.124ca40d.Emscripten.clang"
  },
  "schemaVersion": "2.0.0",
  "updatedAt": "2018-05-02T23:48:19.562Z"
}