{
  "contractName": "ChannelManager",
  "abi": [
    {
      "constant": true,
      "inputs": [
        {
          "name": "",
          "type": "bytes32"
        }
      ],
      "name": "channels",
      "outputs": [
        {
          "name": "agentA",
          "type": "address"
        },
        {
          "name": "agentB",
          "type": "address"
        },
        {
          "name": "depositA",
          "type": "uint256"
        },
        {
          "name": "depositB",
          "type": "uint256"
        },
        {
          "name": "status",
          "type": "uint8"
        },
        {
          "name": "challenge",
          "type": "uint256"
        },
        {
          "name": "nonce",
          "type": "uint256"
        },
        {
          "name": "closeTime",
          "type": "uint256"
        },
        {
          "name": "balanceA",
          "type": "uint256"
        },
        {
          "name": "balanceB",
          "type": "uint256"
        }
      ],
      "payable": false,
      "stateMutability": "view",
      "type": "function"
    },
    {
      "constant": true,
      "inputs": [
        {
          "name": "",
          "type": "address"
        },
        {
          "name": "",
          "type": "address"
        }
      ],
      "name": "activeIds",
      "outputs": [
        {
          "name": "",
          "type": "bytes32"
        }
      ],
      "payable": false,
      "stateMutability": "view",
      "type": "function"
    },
    {
      "anonymous": false,
      "inputs": [
        {
          "indexed": true,
          "name": "channelId",
          "type": "bytes32"
        },
        {
          "indexed": true,
          "name": "agentA",
          "type": "address"
        },
        {
          "indexed": true,
          "name": "agentB",
          "type": "address"
        },
        {
          "indexed": false,
          "name": "depositA",
          "type": "uint256"
        },
        {
          "indexed": false,
          "name": "challenge",
          "type": "uint256"
        }
      ],
      "name": "ChannelOpen",
      "type": "event"
    },
    {
      "anonymous": false,
      "inputs": [
        {
          "indexed": true,
          "name": "channelId",
          "type": "bytes32"
        },
        {
          "indexed": true,
          "name": "agentA",
          "type": "address"
        },
        {
          "indexed": true,
          "name": "agentB",
          "type": "address"
        },
        {
          "indexed": false,
          "name": "depositA",
          "type": "uint256"
        },
        {
          "indexed": false,
          "name": "depositB",
          "type": "uint256"
        }
      ],
      "name": "ChannelJoin",
      "type": "event"
    },
    {
      "anonymous": false,
      "inputs": [
        {
          "indexed": true,
          "name": "channelId",
          "type": "bytes32"
        },
        {
          "indexed": false,
          "name": "closeTime",
          "type": "uint256"
        }
      ],
      "name": "ChannelChallenge",
      "type": "event"
    },
    {
      "anonymous": false,
      "inputs": [
        {
          "indexed": true,
          "name": "channelId",
          "type": "bytes32"
        },
        {
          "indexed": false,
          "name": "nonce",
          "type": "uint256"
        }
      ],
      "name": "ChannelUpdateState",
      "type": "event"
    },
    {
      "anonymous": false,
      "inputs": [
        {
          "indexed": true,
          "name": "channelId",
          "type": "bytes32"
        }
      ],
      "name": "ChannelClose",
      "type": "event"
    },
    {
      "constant": false,
      "inputs": [
        {
          "name": "to",
          "type": "address"
        },
        {
          "name": "challenge",
          "type": "uint256"
        }
      ],
      "name": "openChannel",
      "outputs": [],
      "payable": true,
      "stateMutability": "payable",
      "type": "function"
    },
    {
      "constant": false,
      "inputs": [
        {
          "name": "id",
          "type": "bytes32"
        }
      ],
      "name": "joinChannel",
      "outputs": [],
      "payable": true,
      "stateMutability": "payable",
      "type": "function"
    },
    {
      "constant": true,
      "inputs": [
        {
          "name": "channelId",
          "type": "bytes32"
        },
        {
          "name": "nonce",
          "type": "uint256"
        },
        {
          "name": "balanceA",
          "type": "uint256"
        },
        {
          "name": "balanceB",
          "type": "uint256"
        },
        {
          "name": "sigA",
          "type": "string"
        },
        {
          "name": "sigB",
          "type": "string"
        },
        {
          "name": "requireSigA",
          "type": "bool"
        },
        {
          "name": "requireSigB",
          "type": "bool"
        }
      ],
      "name": "isValidStateUpdate",
      "outputs": [
        {
          "name": "",
          "type": "bool"
        }
      ],
      "payable": false,
      "stateMutability": "view",
      "type": "function"
    },
    {
      "constant": false,
      "inputs": [
        {
          "name": "channelId",
          "type": "bytes32"
        },
        {
          "name": "nonce",
          "type": "uint256"
        },
        {
          "name": "balanceA",
          "type": "uint256"
        },
        {
          "name": "balanceB",
          "type": "uint256"
        },
        {
          "name": "sigA",
          "type": "string"
        },
        {
          "name": "sigB",
          "type": "string"
        }
      ],
      "name": "updateState",
      "outputs": [],
      "payable": false,
      "stateMutability": "nonpayable",
      "type": "function"
    },
    {
      "constant": false,
      "inputs": [
        {
          "name": "channelId",
          "type": "bytes32"
        }
      ],
      "name": "startChallenge",
      "outputs": [],
      "payable": false,
      "stateMutability": "nonpayable",
      "type": "function"
    },
    {
      "constant": false,
      "inputs": [
        {
          "name": "channelId",
          "type": "bytes32"
        }
      ],
      "name": "closeChannel",
      "outputs": [],
      "payable": false,
      "stateMutability": "nonpayable",
      "type": "function"
    },
    {
      "constant": true,
      "inputs": [
        {
          "name": "id",
          "type": "bytes32"
        }
      ],
      "name": "getChannel",
      "outputs": [
        {
          "name": "",
          "type": "address"
        },
        {
          "name": "",
          "type": "address"
        },
        {
          "name": "",
          "type": "uint256"
        },
        {
          "name": "",
          "type": "uint256"
        },
        {
          "name": "",
          "type": "uint256"
        },
        {
          "name": "",
          "type": "uint256"
        },
        {
          "name": "",
          "type": "uint256"
        },
        {
          "name": "",
          "type": "uint256"
        },
        {
          "name": "",
          "type": "uint256"
        },
        {
          "name": "",
          "type": "uint256"
        }
      ],
      "payable": false,
      "stateMutability": "view",
      "type": "function"
    }
  ],
  "bytecode": "0x6060604052341561000f57600080fd5b611b3c8061001e6000396000f300606060405260043610610099576000357c0100000000000000000000000000000000000000000000000000000000900463ffffffff16806324f453d11461009e5780634c2ee09d146100d55780637a7ebd7b146100fc578063831c2b82146101dc5780638b1df779146102ae578063b6f5a746146103a4578063b7453cc5146103c0578063c133eb9214610488578063ff2f0275146104fc575b600080fd5b6100d3600480803573ffffffffffffffffffffffffffffffffffffffff16906020019091908035906020019091905050610523565b005b34156100e057600080fd5b6100fa600480803560001916906020019091905050610a5a565b005b341561010757600080fd5b610121600480803560001916906020019091905050610e63565b604051808b73ffffffffffffffffffffffffffffffffffffffff1673ffffffffffffffffffffffffffffffffffffffff1681526020018a73ffffffffffffffffffffffffffffffffffffffff1673ffffffffffffffffffffffffffffffffffffffff1681526020018981526020018881526020018760038111156101a157fe5b60ff1681526020018681526020018581526020018481526020018381526020018281526020019a505050505050505050505060405180910390f35b34156101e757600080fd5b610201600480803560001916906020019091905050610f04565b604051808b73ffffffffffffffffffffffffffffffffffffffff1673ffffffffffffffffffffffffffffffffffffffff1681526020018a73ffffffffffffffffffffffffffffffffffffffff1673ffffffffffffffffffffffffffffffffffffffff1681526020018981526020018881526020018781526020018681526020018581526020018481526020018381526020018281526020019a505050505050505050505060405180910390f35b34156102b957600080fd5b61038a60048080356000191690602001909190803590602001909190803590602001909190803590602001909190803590602001908201803590602001908080601f0160208091040260200160405190810160405280939291908181526020018383808284378201915050505050509190803590602001908201803590602001908080601f01602080910402602001604051908101604052809392919081815260200183838082843782019150505050505091908035151590602001909190803515159060200190919050506110c4565b604051808215151515815260200191505060405180910390f35b6103be600480803560001916906020019091905050611558565b005b34156103cb57600080fd5b61048660048080356000191690602001909190803590602001909190803590602001909190803590602001909190803590602001908201803590602001908080601f0160208091040260200160405190810160405280939291908181526020018383808284378201915050505050509190803590602001908201803590602001908080601f01602080910402602001604051908101604052809392919081815260200183838082843782019150505050505091905050611708565b005b341561049357600080fd5b6104de600480803573ffffffffffffffffffffffffffffffffffffffff1690602001909190803573ffffffffffffffffffffffffffffffffffffffff169060200190919050506118a9565b60405180826000191660001916815260200191505060405180910390f35b341561050757600080fd5b6105216004808035600019169060200190919050506118ce565b005b600061052d611a85565b6000831415151561053d57600080fd5b600073ffffffffffffffffffffffffffffffffffffffff168473ffffffffffffffffffffffffffffffffffffffff161415151561057957600080fd5b3373ffffffffffffffffffffffffffffffffffffffff168473ffffffffffffffffffffffffffffffffffffffff16141515156105b457600080fd5b600060010260001916600160003373ffffffffffffffffffffffffffffffffffffffff1673ffffffffffffffffffffffffffffffffffffffff16815260200190815260200160002060008673ffffffffffffffffffffffffffffffffffffffff1673ffffffffffffffffffffffffffffffffffffffff168152602001908152602001600020546000191614151561064a57600080fd5b600060010260001916600160008673ffffffffffffffffffffffffffffffffffffffff1673ffffffffffffffffffffffffffffffffffffffff16815260200190815260200160002060003373ffffffffffffffffffffffffffffffffffffffff1673ffffffffffffffffffffffffffffffffffffffff16815260200190815260200160002054600019161415156106e057600080fd5b338442604051808473ffffffffffffffffffffffffffffffffffffffff1673ffffffffffffffffffffffffffffffffffffffff166c010000000000000000000000000281526014018373ffffffffffffffffffffffffffffffffffffffff1673ffffffffffffffffffffffffffffffffffffffff166c0100000000000000000000000002815260140182815260200193505050506040518091039020915033816000019073ffffffffffffffffffffffffffffffffffffffff16908173ffffffffffffffffffffffffffffffffffffffff168152505083816020019073ffffffffffffffffffffffffffffffffffffffff16908173ffffffffffffffffffffffffffffffffffffffff168152505034816040018181525050348161010001818152505060008160800190600381111561081557fe5b9081600381111561082257fe5b81525050828160a001818152505080600080846000191660001916815260200190815260200160002060008201518160000160006101000a81548173ffffffffffffffffffffffffffffffffffffffff021916908373ffffffffffffffffffffffffffffffffffffffff16021790555060208201518160010160006101000a81548173ffffffffffffffffffffffffffffffffffffffff021916908373ffffffffffffffffffffffffffffffffffffffff160217905550604082015181600201556060820151816003015560808201518160040160006101000a81548160ff0219169083600381111561091157fe5b021790555060a0820151816005015560c0820151816006015560e082015181600701556101008201518160080155610120820151816009015590505081600160003373ffffffffffffffffffffffffffffffffffffffff1673ffffffffffffffffffffffffffffffffffffffff16815260200190815260200160002060008673ffffffffffffffffffffffffffffffffffffffff1673ffffffffffffffffffffffffffffffffffffffff1681526020019081526020016000208160001916905550806020015173ffffffffffffffffffffffffffffffffffffffff16816000015173ffffffffffffffffffffffffffffffffffffffff1683600019167f699adc5141d4206746073dbba1f88e22cc6f284babd80e41370cfb28c5c5bf2784604001518560a00151604051808381526020018281526020019250505060405180910390a450505050565b610a62611a85565b600080836000191660001916815260200190815260200160002061014060405190810160405290816000820160009054906101000a900473ffffffffffffffffffffffffffffffffffffffff1673ffffffffffffffffffffffffffffffffffffffff1673ffffffffffffffffffffffffffffffffffffffff1681526020016001820160009054906101000a900473ffffffffffffffffffffffffffffffffffffffff1673ffffffffffffffffffffffffffffffffffffffff1673ffffffffffffffffffffffffffffffffffffffff16815260200160028201548152602001600382015481526020016004820160009054906101000a900460ff166003811115610b6757fe5b6003811115610b7257fe5b8152602001600582015481526020016006820154815260200160078201548152602001600882015481526020016009820154815250509050806000015173ffffffffffffffffffffffffffffffffffffffff163373ffffffffffffffffffffffffffffffffffffffff161480610c175750806020015173ffffffffffffffffffffffffffffffffffffffff163373ffffffffffffffffffffffffffffffffffffffff16145b1515610c2257600080fd5b60026003811115610c2f57fe5b81608001516003811115610c3f57fe5b141515610c4b57600080fd5b8060e0015142111515610c5d57600080fd5b806000015173ffffffffffffffffffffffffffffffffffffffff166108fc8261010001519081150290604051600060405180830381858888f193505050501515610ca657600080fd5b806020015173ffffffffffffffffffffffffffffffffffffffff166108fc8261012001519081150290604051600060405180830381858888f193505050501515610cef57600080fd5b6000808360001916600019168152602001908152602001600020600080820160006101000a81549073ffffffffffffffffffffffffffffffffffffffff02191690556001820160006101000a81549073ffffffffffffffffffffffffffffffffffffffff0219169055600282016000905560038201600090556004820160006101000a81549060ff021916905560058201600090556006820160009055600782016000905560088201600090556009820160009055505060016000826000015173ffffffffffffffffffffffffffffffffffffffff1673ffffffffffffffffffffffffffffffffffffffff1681526020019081526020016000206000826020015173ffffffffffffffffffffffffffffffffffffffff1673ffffffffffffffffffffffffffffffffffffffff1681526020019081526020016000206000905581600019167f60c8851fb5a72061b2ddf28b0e4c661e6c2f2ba52b202fbb8a15e705f5269faa60405160405180910390a25050565b60006020528060005260406000206000915090508060000160009054906101000a900473ffffffffffffffffffffffffffffffffffffffff16908060010160009054906101000a900473ffffffffffffffffffffffffffffffffffffffff16908060020154908060030154908060040160009054906101000a900460ff1690806005015490806006015490806007015490806008015490806009015490508a565b600080600080600080600080600080610f1b611a85565b6000808d6000191660001916815260200190815260200160002061014060405190810160405290816000820160009054906101000a900473ffffffffffffffffffffffffffffffffffffffff1673ffffffffffffffffffffffffffffffffffffffff1673ffffffffffffffffffffffffffffffffffffffff1681526020016001820160009054906101000a900473ffffffffffffffffffffffffffffffffffffffff1673ffffffffffffffffffffffffffffffffffffffff1673ffffffffffffffffffffffffffffffffffffffff16815260200160028201548152602001600382015481526020016004820160009054906101000a900460ff16600381111561102057fe5b600381111561102b57fe5b815260200160058201548152602001600682015481526020016007820154815260200160088201548152602001600982015481525050905080600001518160200151826040015183606001518460800151600381111561108757fe5b8560a001518660c001518760e001518861010001518961012001519a509a509a509a509a509a509a509a509a509a50509193959799509193959799565b60006110ce611a85565b60008060008c6000191660001916815260200190815260200160002061014060405190810160405290816000820160009054906101000a900473ffffffffffffffffffffffffffffffffffffffff1673ffffffffffffffffffffffffffffffffffffffff1673ffffffffffffffffffffffffffffffffffffffff1681526020016001820160009054906101000a900473ffffffffffffffffffffffffffffffffffffffff1673ffffffffffffffffffffffffffffffffffffffff1673ffffffffffffffffffffffffffffffffffffffff16815260200160028201548152602001600382015481526020016004820160009054906101000a900460ff1660038111156111d557fe5b60038111156111e057fe5b81526020016005820154815260200160068201548152602001600782015481526020016008820154815260200160098201548152505091508160600151826040015101888a0114151561123257600080fd5b6001600381111561123f57fe5b8260800151600381111561124f57fe5b148061127557506002600381111561126357fe5b8260800151600381111561127357fe5b145b151561128057600080fd5b8a8a8a8a6040518085600019166000191681526020018481526020018381526020018281526020019450505050506040518091039020905084156113ff576001151573__ECTools_______________________________631052506f838a86600001516040518463ffffffff167c0100000000000000000000000000000000000000000000000000000000028152600401808460001916600019168152602001806020018373ffffffffffffffffffffffffffffffffffffffff1673ffffffffffffffffffffffffffffffffffffffff168152602001828103825284818151815260200191508051906020019080838360005b8381101561138e578082015181840152602081019050611373565b50505050905090810190601f1680156113bb5780820380516001836020036101000a031916815260200191505b5094505050505060206040518083038186803b15156113d957600080fd5b5af415156113e657600080fd5b5050506040518051905015151415156113fe57600080fd5b5b8315611546576001151573__ECTools_______________________________631052506f838986602001516040518463ffffffff167c0100000000000000000000000000000000000000000000000000000000028152600401808460001916600019168152602001806020018373ffffffffffffffffffffffffffffffffffffffff1673ffffffffffffffffffffffffffffffffffffffff168152602001828103825284818151815260200191508051906020019080838360005b838110156114d55780820151818401526020810190506114ba565b50505050905090810190601f1680156115025780820380516001836020036101000a031916815260200191505b5094505050505060206040518083038186803b151561152057600080fd5b5af4151561152d57600080fd5b50505060405180519050151514151561154557600080fd5b5b60019250505098975050505050505050565b6000806000836000191660001916815260200190815260200160002090508060010160009054906101000a900473ffffffffffffffffffffffffffffffffffffffff1673ffffffffffffffffffffffffffffffffffffffff163373ffffffffffffffffffffffffffffffffffffffff161415156115d457600080fd5b600060038111156115e157fe5b8160040160009054906101000a900460ff1660038111156115fe57fe5b14151561160a57600080fd5b34816003018190555034816009018190555060018160040160006101000a81548160ff0219169083600381111561163d57fe5b02179055508060010160009054906101000a900473ffffffffffffffffffffffffffffffffffffffff1673ffffffffffffffffffffffffffffffffffffffff168160000160009054906101000a900473ffffffffffffffffffffffffffffffffffffffff1673ffffffffffffffffffffffffffffffffffffffff1683600019167f7b285069ffcd2321527a5e4069cba2c8766e564c8df20bace16e3805e092c4df84600201548560030154604051808381526020018281526020019250505060405180910390a45050565b6000806000886000191660001916815260200190815260200160002090508060000160009054906101000a900473ffffffffffffffffffffffffffffffffffffffff1673ffffffffffffffffffffffffffffffffffffffff163373ffffffffffffffffffffffffffffffffffffffff1614806117d357508060010160009054906101000a900473ffffffffffffffffffffffffffffffffffffffff1673ffffffffffffffffffffffffffffffffffffffff163373ffffffffffffffffffffffffffffffffffffffff16145b15156117de57600080fd5b6003808111156117ea57fe5b8160040160009054906101000a900460ff16600381111561180757fe5b1415151561181457600080fd5b600115156118298888888888886001806110c4565b151514151561183757600080fd5b80600601548611151561184957600080fd5b84816008018190555083816009018190555085816006018190555086600019167fe1d3ecf27c733d58cf2a80a67cee5dd12b7cdb8c3341e014a3025cc2b802bf68876040518082815260200191505060405180910390a250505050505050565b6001602052816000526040600020602052806000526040600020600091509150505481565b6000806000836000191660001916815260200190815260200160002090508060000160009054906101000a900473ffffffffffffffffffffffffffffffffffffffff1673ffffffffffffffffffffffffffffffffffffffff163373ffffffffffffffffffffffffffffffffffffffff16148061199957508060010160009054906101000a900473ffffffffffffffffffffffffffffffffffffffff1673ffffffffffffffffffffffffffffffffffffffff163373ffffffffffffffffffffffffffffffffffffffff16145b15156119a457600080fd5b600160038111156119b157fe5b8160040160009054906101000a900460ff1660038111156119ce57fe5b1480611a015750600060038111156119e257fe5b8160040160009054906101000a900460ff1660038111156119ff57fe5b145b1515611a0c57600080fd5b60028160040160006101000a81548160ff02191690836003811115611a2d57fe5b021790555080600501544201816007018190555081600019167fe0bbcc1d891fbc2a1b015d9f307f90e4942a5d0bea4aebc06ec8c0a54d6acbc282600701546040518082815260200191505060405180910390a25050565b61014060405190810160405280600073ffffffffffffffffffffffffffffffffffffffff168152602001600073ffffffffffffffffffffffffffffffffffffffff168152602001600081526020016000815260200160006003811115611ae757fe5b8152602001600081526020016000815260200160008152602001600081526020016000815250905600a165627a7a72305820000ab63822b21a3671d75b023f9d6a4e634c17b0adf46a561ee28c08532c19570029",
  "source": "pragma solidity ^0.4.21;\n\nimport \"./ECTools.sol\";\n\ncontract ChannelManager {\n    event ChannelOpen(\n        bytes32 indexed channelId,\n        address indexed agentA,\n        address indexed agentB,\n        uint256 depositA,\n        uint256 challenge\n    );\n    event ChannelJoin(\n        bytes32 indexed channelId,\n        address indexed agentA,\n        address indexed agentB,\n        uint256 depositA,\n        uint256 depositB\n    );\n    event ChannelChallenge(\n        bytes32 indexed channelId,\n        uint256 closeTime\n    );\n    event ChannelUpdateState(\n        bytes32 indexed channelId,\n        uint256 nonce\n    );\n    event ChannelClose(bytes32 indexed channelId);\n\n    enum ChannelStatus {\n        Open,\n        Joined,\n        Challenge,\n        Closed\n    }\n\n    struct Channel {\n        address agentA;\n        address agentB;\n        uint depositA; // Deposit of agent A\n        uint depositB; // Deposit of agent B\n        ChannelStatus status; \n        uint challenge;\n        uint nonce;\n        uint closeTime;\n        uint balanceA; // for state update\n        uint balanceB; // for state update\n    }\n\n    mapping (bytes32 => Channel) public channels;\n    mapping (address => mapping(address => bytes32)) public activeIds;\n\n    function openChannel(address to, uint challenge) payable public {\n        require(challenge != 0); // need to have challenge period\n        require(to != address(0)); // need counterparty address\n        require(to != msg.sender); // cant create with yourself\n        require(activeIds[msg.sender][to] == bytes32(0)); // if channel is already open dont create\n        require(activeIds[to][msg.sender] == bytes32(0)); // dont allow to open both ways\n\n        bytes32 id = keccak256(msg.sender, to, now);\n        Channel memory channel;\n        channel.agentA = msg.sender;\n        channel.agentB = to;\n        channel.depositA = msg.value;\n        channel.balanceA = msg.value; // so that close can happen without any state updates\n        channel.status = ChannelStatus.Open;\n        channel.challenge = challenge;\n\n        // save to state\n        channels[id] = channel;\n        // Add it to the lookup table\n        activeIds[msg.sender][to] = id;\n        emit ChannelOpen(id, channel.agentA, channel.agentB, channel.depositA, channel.challenge);\n    }\n\n    function joinChannel(bytes32 id) payable public {\n        Channel storage channel = channels[id];\n\n        require(msg.sender == channel.agentB);\n        require(channel.status == ChannelStatus.Open);\n\n        channel.depositB = msg.value;\n        channel.balanceB = msg.value;\n\n        channel.status = ChannelStatus.Joined;\n        emit ChannelJoin(id, channel.agentA, channel.agentB, channel.depositA, channel.depositB);\n    }\n\n    function isValidStateUpdate(\n        bytes32 channelId,\n        uint256 nonce,\n        uint256 balanceA,\n        uint256 balanceB,\n        string sigA,\n        string sigB,\n        bool requireSigA,\n        bool requireSigB\n    ) \n        public\n        view\n        returns (bool)\n    {\n        Channel memory channel = channels[channelId];\n\n        require(balanceA + balanceB == channel.depositA + channel.depositB); // balances must add up to deposit\n        require(channel.status == ChannelStatus.Joined || channel.status == ChannelStatus.Challenge); // channel must be joined\n\n        // require state info to be signed by both participants\n        bytes32 fingerprint = keccak256(channelId, nonce, balanceA, balanceB);\n\n        if (requireSigA) {\n            require(ECTools.isSignedBy(fingerprint, sigA, channel.agentA) == true);\n        }\n\n        if (requireSigB) {\n            require(ECTools.isSignedBy(fingerprint, sigB, channel.agentB) == true);\n        }\n\n        // return true if all conditions pass\n        return true;\n    }\n\n    function updateState(\n        bytes32 channelId,\n        uint256 nonce,\n        uint256 balanceA,\n        uint256 balanceB,\n        string sigA,\n        string sigB\n    ) \n        public\n    {\n        Channel storage channel = channels[channelId];\n\n        // sanity checks\n        require(msg.sender == channel.agentA || msg.sender == channel.agentB); // comes from agent\n        require(channel.status != ChannelStatus.Closed); // channel open or challenge status\n        require(\n            isValidStateUpdate(channelId, nonce, balanceA, balanceB, sigA, sigB, true, true) == true\n        ); // valid signatures from both parties\n        require(nonce > channel.nonce); // need a higher sequence update\n\n        // set state variables\n        channel.balanceA = balanceA;\n        channel.balanceB = balanceB;\n        channel.nonce = nonce;\n\n        emit ChannelUpdateState(channelId, nonce);\n    }\n\n    function startChallenge(bytes32 channelId) public {\n        Channel storage channel = channels[channelId];\n\n        // sanity checks\n        require(msg.sender == channel.agentA || msg.sender == channel.agentB); // comes from agent\n        require(channel.status == ChannelStatus.Joined || channel.status == ChannelStatus.Open); // channel open or joined status\n\n        // update channel status\n        channel.status = ChannelStatus.Challenge;\n        channel.closeTime = now + channel.challenge;\n        \n        emit ChannelChallenge(channelId, channel.closeTime);\n    }\n\n    function closeChannel(\n        bytes32 channelId\n    )\n        public\n    {\n        Channel memory channel = channels[channelId];\n\n        // request must come from agents\n        require(msg.sender == channel.agentA || msg.sender == channel.agentB);\n\n        // channel must be in challenge and challenge period over\n        require(channel.status == ChannelStatus.Challenge);\n        require(now > channel.closeTime);\n\n        // if true, then use final state to close channel\n        channel.agentA.transfer(channel.balanceA);\n        channel.agentB.transfer(channel.balanceB);\n\n        delete channels[channelId];\n        delete activeIds[channel.agentA][channel.agentB];\n\n        emit ChannelClose(channelId);\n    }\n\n    function getChannel(bytes32 id) public view returns(\n        address,\n        address,\n        uint,\n        uint,\n        uint,\n        uint,\n        uint,\n        uint,\n        uint,\n        uint\n    ) {\n        Channel memory channel = channels[id];\n        return (\n            channel.agentA,\n            channel.agentB,\n            channel.depositA,\n            channel.depositB,\n            uint(channel.status),\n            channel.challenge,\n            channel.nonce,\n            channel.closeTime,\n            channel.balanceA,\n            channel.balanceB\n        );\n    }\n}",
  "sourcePath": "/Users/rahul/Desktop/connext/ethcalate-2waypayment/contracts/ChannelManager.sol",
  "compiler": {
    "name": "solc",
    "version": "0.4.21+commit.dfe3193c.Emscripten.clang"
  },
  "schemaVersion": "2.0.0",
  "updatedAt": "2018-04-18T19:16:39.076Z"
}