{
  "contractName": "ChannelManager",
  "abi": [
    {
      "constant": true,
      "inputs": [],
      "name": "openedChannel",
      "outputs": [
        {
          "name": "member1",
          "type": "address"
        },
        {
          "name": "member2",
          "type": "address"
        },
        {
          "name": "startDate",
          "type": "uint256"
        },
        {
          "name": "timeout",
          "type": "uint256"
        }
      ],
      "payable": false,
      "stateMutability": "view",
      "type": "function"
    },
    {
      "constant": false,
      "inputs": [
        {
          "name": "timeout",
          "type": "uint256"
        }
      ],
      "name": "openChannel",
      "outputs": [],
      "payable": true,
      "stateMutability": "payable",
      "type": "function"
    },
    {
      "constant": false,
      "inputs": [],
      "name": "joinChannel",
      "outputs": [],
      "payable": true,
      "stateMutability": "payable",
      "type": "function"
    },
    {
      "constant": false,
      "inputs": [
        {
          "name": "h",
          "type": "bytes32"
        },
        {
          "name": "v",
          "type": "uint8"
        },
        {
          "name": "r",
          "type": "bytes32"
        },
        {
          "name": "s",
          "type": "bytes32"
        },
        {
          "name": "value1",
          "type": "uint256"
        },
        {
          "name": "value2",
          "type": "uint256"
        }
      ],
      "name": "closeChannel",
      "outputs": [],
      "payable": false,
      "stateMutability": "nonpayable",
      "type": "function"
    }
  ],
  "bytecode": "0x6060604052341561000f57600080fd5b61076d8061001e6000396000f300606060405260043610610062576000357c0100000000000000000000000000000000000000000000000000000000900463ffffffff168063393451f4146100675780633d41d88f146100c6578063af920dc71461015c578063fd85b1a714610166575b600080fd5b341561007257600080fd5b6100c460048080356000191690602001909190803560ff16906020019091908035600019169060200190919080356000191690602001909190803590602001909190803590602001909190505061017e565b005b34156100d157600080fd5b6100d96105a5565b604051808573ffffffffffffffffffffffffffffffffffffffff1673ffffffffffffffffffffffffffffffffffffffff1681526020018473ffffffffffffffffffffffffffffffffffffffff1673ffffffffffffffffffffffffffffffffffffffff16815260200183815260200182815260200194505050505060405180910390f35b610164610603565b005b61017c6004808035906020019091905050610649565b005b600080600188888888604051600081526020016040526000604051602001526040518085600019166000191681526020018460ff1660ff16815260200183600019166000191681526020018260001916600019168152602001945050505050602060405160208103908084039060008661646e5a03f115156101ff57600080fd5b50506020604051035191506000800160009054906101000a900473ffffffffffffffffffffffffffffffffffffffff1673ffffffffffffffffffffffffffffffffffffffff168273ffffffffffffffffffffffffffffffffffffffff1614806102b85750600060010160009054906101000a900473ffffffffffffffffffffffffffffffffffffffff1673ffffffffffffffffffffffffffffffffffffffff168273ffffffffffffffffffffffffffffffffffffffff16145b15156102c357600080fd5b308484604051808473ffffffffffffffffffffffffffffffffffffffff1673ffffffffffffffffffffffffffffffffffffffff166c010000000000000000000000000281526014018381526020018281526020019350505050604051809103902090508760001916816000191614151561033c57600080fd5b6000806004016000836000191660001916815260200190815260200160002060009054906101000a900473ffffffffffffffffffffffffffffffffffffffff1673ffffffffffffffffffffffffffffffffffffffff1614156103fa578160006004016000836000191660001916815260200190815260200160002060006101000a81548173ffffffffffffffffffffffffffffffffffffffff021916908373ffffffffffffffffffffffffffffffffffffffff16021790555061059b565b8173ffffffffffffffffffffffffffffffffffffffff1660006004016000836000191660001916815260200190815260200160002060009054906101000a900473ffffffffffffffffffffffffffffffffffffffff1673ffffffffffffffffffffffffffffffffffffffff1614151561059a576000800160009054906101000a900473ffffffffffffffffffffffffffffffffffffffff1673ffffffffffffffffffffffffffffffffffffffff166108fc859081150290604051600060405180830381858888f1935050505015156104d157600080fd5b600060010160009054906101000a900473ffffffffffffffffffffffffffffffffffffffff1673ffffffffffffffffffffffffffffffffffffffff166108fc859081150290604051600060405180830381858888f19350505050151561053657600080fd5b6000806000820160006101000a81549073ffffffffffffffffffffffffffffffffffffffff02191690556001820160006101000a81549073ffffffffffffffffffffffffffffffffffffffff02191690556002820160009055600382016000905550505b5b5050505050505050565b60008060000160009054906101000a900473ffffffffffffffffffffffffffffffffffffffff16908060010160009054906101000a900473ffffffffffffffffffffffffffffffffffffffff16908060020154908060030154905084565b33600060010160006101000a81548173ffffffffffffffffffffffffffffffffffffffff021916908373ffffffffffffffffffffffffffffffffffffffff160217905550565b6080604051908101604052803373ffffffffffffffffffffffffffffffffffffffff168152602001600073ffffffffffffffffffffffffffffffffffffffff168152602001428152602001828152506000808201518160000160006101000a81548173ffffffffffffffffffffffffffffffffffffffff021916908373ffffffffffffffffffffffffffffffffffffffff16021790555060208201518160010160006101000a81548173ffffffffffffffffffffffffffffffffffffffff021916908373ffffffffffffffffffffffffffffffffffffffff1602179055506040820151816002015560608201518160030155905050505600a165627a7a723058208ece19bb6568580f995bcb088bf28e193d705d3c0904423260f9aaca016e0d940029",
  "source": "pragma solidity ^0.4.18;\n\ncontract ChannelManager {\n    struct Channel {\n        address member1;\n        address member2;\n        uint startDate;\n        uint timeout;\n        mapping (bytes32 => address) signatures;\n        mapping (address => uint) balances;\n    }\n\n    Channel public openedChannel;\n\n    function openChannel(uint timeout) payable public {\n        openedChannel = Channel(\n            msg.sender,\n            address(0), // no member2 yet,\n            now,\n            timeout\n        );\n    }\n\n    function joinChannel() public payable {\n        openedChannel.member2 = msg.sender;\n    }\n\n    function closeChannel(bytes32 h, uint8 v, bytes32 r, bytes32 s, uint value1, uint value2) public {\n\t\taddress signer;\n\t\tbytes32 proof;\n\n\t\t// get signer from signature\n\t\tsigner = ecrecover(h, v, r, s);\n\n\t\t// signature is invalid, throw\n\t\trequire(signer == openedChannel.member1 || signer == openedChannel.member2);\n\n\t\tproof = keccak256(this, value1, value2);\n\n\t\t// signature is valid but doesn't match the data provided\n\t\trequire(proof == h);\n\n\t\tif (openedChannel.signatures[proof] == 0)\n\t\t\topenedChannel.signatures[proof] = signer;\n\t\telse if (openedChannel.signatures[proof] != signer) {\n\t\t\t// channel completed, both signatures provided\n            openedChannel.member1.transfer(value1);\n            openedChannel.member2.transfer(value1);\n\t\t\tdelete openedChannel;\n\t\t}\n\n\t}\n\n}",
  "sourcePath": "/Users/rahul/Desktop/connext/ethcalate-2waypayment/contracts/ChannelManager.sol",
  "compiler": {
    "name": "solc",
    "version": "0.4.19+commit.c4cbbb05.Emscripten.clang"
  },
  "schemaVersion": "2.0.0",
  "updatedAt": "2018-03-22T22:37:57.051Z"
}