{
  "contractName": "LedgerChannel",
  "abi": [
    {
      "constant": true,
      "inputs": [
        {
          "name": "",
          "type": "bytes32"
        }
      ],
      "name": "virtualChannels",
      "outputs": [
        {
          "name": "isClose",
          "type": "bool"
        },
        {
          "name": "isInSettlementState",
          "type": "bool"
        },
        {
          "name": "sequence",
          "type": "uint256"
        },
        {
          "name": "challenger",
          "type": "address"
        },
        {
          "name": "updateVCtimeout",
          "type": "uint256"
        },
        {
          "name": "partyA",
          "type": "address"
        },
        {
          "name": "partyB",
          "type": "address"
        },
        {
          "name": "partyI",
          "type": "address"
        },
        {
          "name": "balanceA",
          "type": "uint256"
        },
        {
          "name": "balanceB",
          "type": "uint256"
        },
        {
          "name": "bond",
          "type": "uint256"
        }
      ],
      "payable": false,
      "stateMutability": "view",
      "type": "function"
    },
    {
      "constant": true,
      "inputs": [],
      "name": "numChannels",
      "outputs": [
        {
          "name": "",
          "type": "uint256"
        }
      ],
      "payable": false,
      "stateMutability": "view",
      "type": "function"
    },
    {
      "constant": true,
      "inputs": [],
      "name": "NAME",
      "outputs": [
        {
          "name": "",
          "type": "string"
        }
      ],
      "payable": false,
      "stateMutability": "view",
      "type": "function"
    },
    {
      "constant": true,
      "inputs": [
        {
          "name": "",
          "type": "bytes32"
        }
      ],
      "name": "Channels",
      "outputs": [
        {
          "name": "partyA",
          "type": "address"
        },
        {
          "name": "partyI",
          "type": "address"
        },
        {
          "name": "balanceA",
          "type": "uint256"
        },
        {
          "name": "balanceI",
          "type": "uint256"
        },
        {
          "name": "sequence",
          "type": "uint256"
        },
        {
          "name": "confirmTime",
          "type": "uint256"
        },
        {
          "name": "VCrootHash",
          "type": "bytes32"
        },
        {
          "name": "LCopenTimeout",
          "type": "uint256"
        },
        {
          "name": "updateLCtimeout",
          "type": "uint256"
        },
        {
          "name": "isOpen",
          "type": "bool"
        },
        {
          "name": "isUpdateLCSettling",
          "type": "bool"
        },
        {
          "name": "numOpenVC",
          "type": "uint256"
        }
      ],
      "payable": false,
      "stateMutability": "view",
      "type": "function"
    },
    {
      "constant": true,
      "inputs": [],
      "name": "VERSION",
      "outputs": [
        {
          "name": "",
          "type": "string"
        }
      ],
      "payable": false,
      "stateMutability": "view",
      "type": "function"
    },
    {
      "anonymous": false,
      "inputs": [
        {
          "indexed": true,
          "name": "channelId",
          "type": "bytes32"
        },
        {
          "indexed": true,
          "name": "partyA",
          "type": "address"
        },
        {
          "indexed": true,
          "name": "partyI",
          "type": "address"
        },
        {
          "indexed": false,
          "name": "balanceA",
          "type": "uint256"
        }
      ],
      "name": "DidLCOpen",
      "type": "event"
    },
    {
      "anonymous": false,
      "inputs": [
        {
          "indexed": true,
          "name": "channelId",
          "type": "bytes32"
        },
        {
          "indexed": false,
          "name": "balanceI",
          "type": "uint256"
        }
      ],
      "name": "DidLCJoin",
      "type": "event"
    },
    {
      "anonymous": false,
      "inputs": [
        {
          "indexed": true,
          "name": "channelId",
          "type": "bytes32"
        },
        {
          "indexed": true,
          "name": "recipient",
          "type": "address"
        },
        {
          "indexed": false,
          "name": "deposit",
          "type": "uint256"
        }
      ],
      "name": "DidLCDeposit",
      "type": "event"
    },
    {
      "anonymous": false,
      "inputs": [
        {
          "indexed": true,
          "name": "channelId",
          "type": "bytes32"
        },
        {
          "indexed": false,
          "name": "sequence",
          "type": "uint256"
        },
        {
          "indexed": false,
          "name": "numOpenVc",
          "type": "uint256"
        },
        {
          "indexed": false,
          "name": "balanceA",
          "type": "uint256"
        },
        {
          "indexed": false,
          "name": "balanceI",
          "type": "uint256"
        },
        {
          "indexed": false,
          "name": "vcRoot",
          "type": "bytes32"
        },
        {
          "indexed": false,
          "name": "updateLCtimeout",
          "type": "uint256"
        }
      ],
      "name": "DidLCUpdateState",
      "type": "event"
    },
    {
      "anonymous": false,
      "inputs": [
        {
          "indexed": true,
          "name": "channelId",
          "type": "bytes32"
        },
        {
          "indexed": false,
          "name": "sequence",
          "type": "uint256"
        },
        {
          "indexed": false,
          "name": "balanceA",
          "type": "uint256"
        },
        {
          "indexed": false,
          "name": "balanceI",
          "type": "uint256"
        }
      ],
      "name": "DidLCClose",
      "type": "event"
    },
    {
      "anonymous": false,
      "inputs": [
        {
          "indexed": true,
          "name": "lcId",
          "type": "bytes32"
        },
        {
          "indexed": true,
          "name": "vcId",
          "type": "bytes32"
        },
        {
          "indexed": false,
          "name": "proof",
          "type": "bytes"
        },
        {
          "indexed": false,
          "name": "sequence",
          "type": "uint256"
        },
        {
          "indexed": false,
          "name": "partyA",
          "type": "address"
        },
        {
          "indexed": false,
          "name": "partyB",
          "type": "address"
        },
        {
          "indexed": false,
          "name": "balanceA",
          "type": "uint256"
        },
        {
          "indexed": false,
          "name": "balanceB",
          "type": "uint256"
        }
      ],
      "name": "DidVCInit",
      "type": "event"
    },
    {
      "anonymous": false,
      "inputs": [
        {
          "indexed": true,
          "name": "lcId",
          "type": "bytes32"
        },
        {
          "indexed": true,
          "name": "vcId",
          "type": "bytes32"
        },
        {
          "indexed": false,
          "name": "updateSeq",
          "type": "uint256"
        },
        {
          "indexed": false,
          "name": "updateBalA",
          "type": "uint256"
        },
        {
          "indexed": false,
          "name": "updateBalB",
          "type": "uint256"
        },
        {
          "indexed": false,
          "name": "challenger",
          "type": "address"
        },
        {
          "indexed": false,
          "name": "updateVCtimeout",
          "type": "uint256"
        }
      ],
      "name": "DidVCSettle",
      "type": "event"
    },
    {
      "anonymous": false,
      "inputs": [
        {
          "indexed": true,
          "name": "lcId",
          "type": "bytes32"
        },
        {
          "indexed": true,
          "name": "vcId",
          "type": "bytes32"
        },
        {
          "indexed": false,
          "name": "balanceA",
          "type": "uint256"
        },
        {
          "indexed": false,
          "name": "balanceB",
          "type": "uint256"
        }
      ],
      "name": "DidVCClose",
      "type": "event"
    },
    {
      "constant": false,
      "inputs": [
        {
          "name": "_lcID",
          "type": "bytes32"
        },
        {
          "name": "_partyI",
          "type": "address"
        },
        {
          "name": "_confirmTime",
          "type": "uint256"
        }
      ],
      "name": "createChannel",
      "outputs": [],
      "payable": true,
      "stateMutability": "payable",
      "type": "function"
    },
    {
      "constant": false,
      "inputs": [
        {
          "name": "_lcID",
          "type": "bytes32"
        }
      ],
      "name": "LCOpenTimeout",
      "outputs": [],
      "payable": false,
      "stateMutability": "nonpayable",
      "type": "function"
    },
    {
      "constant": false,
      "inputs": [
        {
          "name": "_lcID",
          "type": "bytes32"
        }
      ],
      "name": "joinChannel",
      "outputs": [],
      "payable": true,
      "stateMutability": "payable",
      "type": "function"
    },
    {
      "constant": false,
      "inputs": [
        {
          "name": "_lcID",
          "type": "bytes32"
        },
        {
          "name": "recipient",
          "type": "address"
        }
      ],
      "name": "deposit",
      "outputs": [],
      "payable": true,
      "stateMutability": "payable",
      "type": "function"
    },
    {
      "constant": false,
      "inputs": [
        {
          "name": "_lcID",
          "type": "bytes32"
        },
        {
          "name": "_sequence",
          "type": "uint256"
        },
        {
          "name": "_balanceA",
          "type": "uint256"
        },
        {
          "name": "_balanceI",
          "type": "uint256"
        },
        {
          "name": "_sigA",
          "type": "string"
        },
        {
          "name": "_sigI",
          "type": "string"
        }
      ],
      "name": "consensusCloseChannel",
      "outputs": [],
      "payable": false,
      "stateMutability": "nonpayable",
      "type": "function"
    },
    {
      "constant": false,
      "inputs": [
        {
          "name": "_lcID",
          "type": "bytes32"
        },
        {
          "name": "updateParams",
          "type": "uint256[4]"
        },
        {
          "name": "_VCroot",
          "type": "bytes32"
        },
        {
          "name": "_sigA",
          "type": "string"
        },
        {
          "name": "_sigI",
          "type": "string"
        }
      ],
      "name": "updateLCstate",
      "outputs": [],
      "payable": false,
      "stateMutability": "nonpayable",
      "type": "function"
    },
    {
      "constant": false,
      "inputs": [
        {
          "name": "_lcID",
          "type": "bytes32"
        },
        {
          "name": "_vcID",
          "type": "bytes32"
        },
        {
          "name": "_proof",
          "type": "bytes"
        },
        {
          "name": "_sequence",
          "type": "uint256"
        },
        {
          "name": "_partyA",
          "type": "address"
        },
        {
          "name": "_partyB",
          "type": "address"
        },
        {
          "name": "_bond",
          "type": "uint256"
        },
        {
          "name": "_balanceA",
          "type": "uint256"
        },
        {
          "name": "_balanceB",
          "type": "uint256"
        },
        {
          "name": "sigA",
          "type": "string"
        }
      ],
      "name": "initVCstate",
      "outputs": [],
      "payable": false,
      "stateMutability": "nonpayable",
      "type": "function"
    },
    {
      "constant": false,
      "inputs": [
        {
          "name": "_lcID",
          "type": "bytes32"
        },
        {
          "name": "_vcID",
          "type": "bytes32"
        },
        {
          "name": "updateSeq",
          "type": "uint256"
        },
        {
          "name": "_partyA",
          "type": "address"
        },
        {
          "name": "_partyB",
          "type": "address"
        },
        {
          "name": "updateBal",
          "type": "uint256[2]"
        },
        {
          "name": "sigA",
          "type": "string"
        }
      ],
      "name": "settleVC",
      "outputs": [],
      "payable": false,
      "stateMutability": "nonpayable",
      "type": "function"
    },
    {
      "constant": false,
      "inputs": [
        {
          "name": "_lcID",
          "type": "bytes32"
        },
        {
          "name": "_vcID",
          "type": "bytes32"
        }
      ],
      "name": "closeVirtualChannel",
      "outputs": [],
      "payable": false,
      "stateMutability": "nonpayable",
      "type": "function"
    },
    {
      "constant": false,
      "inputs": [
        {
          "name": "_lcID",
          "type": "bytes32"
        }
      ],
      "name": "byzantineCloseChannel",
      "outputs": [],
      "payable": false,
      "stateMutability": "nonpayable",
      "type": "function"
    }
  ],
  "bytecode": "0x60806040526000805534801561001457600080fd5b506126b9806100246000396000f3006080604052600436106100d95763ffffffff7c01000000000000000000000000000000000000000000000000000000006000350416622e1d7e81146100de57806316940125146100f857806336a84fe7146101795780634e34c4ce14610222578063659ee83e146102ec57806365dd43eb146103b1578063a3f4df7e146103d8578063aa03dfaa14610462578063b6f5a7461461047c578063ce32957014610487578063cec4c8551461049f578063d32fc05a146104b6578063f6a721381461053d578063fdb04023146105db578063ffa1ad74146105f6575b600080fd5b3480156100ea57600080fd5b506100f660043561060b565b005b34801561010457600080fd5b50610110600435610781565b604080519b15158c5299151560208c01528a8a0198909852600160a060020a0396871660608b015260808a019590955292851660a089015290841660c088015290921660e086015261010085019190915261012084015261014083015251908190036101600190f35b34801561018557600080fd5b50604080516020601f6084356004818101359283018490048402850184019095528184526100f6948035946024803595604435956064359536959460a494909391019190819084018382808284375050604080516020601f89358b018035918201839004830284018301909452808352979a9998810197919650918201945092508291508401838280828437509497506107ea9650505050505050565b34801561022e57600080fd5b50604080516020600460443581810135601f81018490048402850184019095528484526100f69482359460248035953695946064949201919081908401838280828437505060408051602060c08901358a018035601f81018390048302840183018552808452989b8a359b8b840135600160a060020a039081169c96870135169a60608701359a506080870135995060a087013598509196509460e0019392918201918190840183828082843750949750610c6f9650505050505050565b3480156102f857600080fd5b506040805160808181019092526100f6916004803592369260a491906024908490839083908082843750506040805160208781013589018035601f81018390048302840183018552808452979a89359a90999098940196509194509081019250819084018382808284375050604080516020601f89358b018035918201839004830284018301909452808352979a9998810197919650918201945092508291508401838280828437509497506112209650505050505050565b3480156103bd57600080fd5b506103c661166e565b60408051918252519081900360200190f35b3480156103e457600080fd5b506103ed611674565b6040805160208082528351818301528351919283929083019185019080838360005b8381101561042757818101518382015260200161040f565b50505050905090810190601f1680156104545780820380516001836020036101000a031916815260200191505b509250505060405180910390f35b6100f6600435600160a060020a03602435166044356116ab565b6100f660043561194d565b34801561049357600080fd5b506100f66004356119f8565b6100f6600435600160a060020a0360243516611b59565b3480156104c257600080fd5b506104ce600435611cfd565b60408051600160a060020a039d8e1681529b909c1660208c01528a8c019990995260608a0197909752608089019590955260a088019390935260c087019190915260e0860152610100850152151561012084015215156101408301526101608201529051908190036101800190f35b34801561054957600080fd5b506040805180820182526100f69160048035926024359260443592600160a060020a036064358116936084359091169236929160e49160a49060029083908390808284375050604080516020601f88358a01803591820183900483028401830190945280835296999897810196919550918201935091508190840183828082843750949750611d709650505050505050565b3480156105e757600080fd5b506100f660043560243561229b565b34801561060257600080fd5b506103ed6124fe565b600081815260026020526040902054600160a060020a031633148015610643575060008181526002602052604090206009015460ff16155b151561064e57600080fd5b60008181526002602052604090206007015442111561077e57600081815260026020819052604080832080549201549051600160a060020a039092169281156108fc029290818181858888f193505050501580156106b0573d6000803e3d6000fd5b50600081815260026020818152604080842090920154825184815291820152808201929092525182917f7c1f5b5692b9041a82500f5b6cf85c3c64419f74cf54ad839ecac18093a6cb91919081900360600190a260008181526002602081905260408220805473ffffffffffffffffffffffffffffffffffffffff199081168255600182018054909116905590810182905560038101829055600481018290556005810182905560068101829055600781018290556008810182905560098101805461ffff19169055600a01555b50565b6001602081905260009182526040909120805491810154600282015460038301546004840154600585015460068601546007870154600888015460099098015460ff808b169a61010090041698600160a060020a0397881697958616959485169490931692908b565b600086815260026020526040812060040154861161080757600080fd5b60008781526002602081905260409091206003810154910154018585011461082e57600080fd5b600087815260026020908152604080832080546001919091015482517f010000000000000000000000000000000000000000000000000000000000000081860152602181018c90526041810186905260618101959095526c01000000000000000000000000600160a060020a0392831681026081870152911602609584015260a9830188905260c98084018890528151808503909101815260e990930190819052825190918291908401908083835b602083106108fc5780518252601f1990920191602091820191016108dd565b51815160209384036101000a6000190180199092169116179052604080519290940182900382207fdca9541900000000000000000000000000000000000000000000000000000000835260048301818152602484019586528a5160448501528a5191985073__ECTools_______________________________975063dca95419965088958b9550909390926064909101919085019080838360005b838110156109af578181015183820152602001610997565b50505050905090810190601f1680156109dc5780820380516001836020036101000a031916815260200191505b50935050505060206040518083038186803b1580156109fa57600080fd5b505af4158015610a0e573d6000803e3d6000fd5b505050506040513d6020811015610a2457600080fd5b5051600088815260026020526040902054600160a060020a03908116911614610a4c57600080fd5b604080517fdca95419000000000000000000000000000000000000000000000000000000008152600481018381526024820192835284516044830152845173__ECTools_______________________________9363dca95419938693889390929160640190602085019080838360005b83811015610ad4578181015183820152602001610abc565b50505050905090810190601f168015610b015780820380516001836020036101000a031916815260200191505b50935050505060206040518083038186803b158015610b1f57600080fd5b505af4158015610b33573d6000803e3d6000fd5b505050506040513d6020811015610b4957600080fd5b5051600088815260026020526040902060010154600160a060020a03908116911614610b7457600080fd5b600087815260026020526040808220549051600160a060020a039091169187156108fc02918891818181858888f19350505050158015610bb8573d6000803e3d6000fd5b50600087815260026020526040808220600101549051600160a060020a039091169186156108fc02918791818181858888f19350505050158015610c00573d6000803e3d6000fd5b506000878152600260209081526040808320600901805460ff191690558254600019019092558151888152908101879052808201869052905188917f7c1f5b5692b9041a82500f5b6cf85c3c64419f74cf54ad839ecac18093a6cb91919081900360600190a250505050505050565b60008981526001602052604081205460ff1615610cdb576040805160008051602061266e833981519152815260206004820152600d60248201527f564320697320636c6f7365642e00000000000000000000000000000000000000604482015290519081900360640190fd5b60008a8152600160208190526040909120015415610d48576040805160008051602061266e833981519152815260206004820152601460248201527f56432073657175656e6365206973206e6f742030000000000000000000000000604482015290519081900360640190fd5b60008b8152600260205260409020600801544211610db5576040805160008051602061266e833981519152815260206004820152601060248201527f4c432074696d656f7574206f7665722e00000000000000000000000000000000604482015290519081900360640190fd5b60008a81526001602052604090206003015415610dd157600080fd5b6040805160208082018d90528183018b90526c01000000000000000000000000600160a060020a03808c16820260608501528a160260748301526088820188905260a8820187905260c88083018790528351808403909101815260e890920192839052815191929182918401908083835b60208310610e615780518252601f199092019160209182019101610e42565b51815160209384036101000a6000190180199092169116179052604080519290940182900382207fdca95419000000000000000000000000000000000000000000000000000000008352600483018181526024840195865289516044850152895191985073__ECTools_______________________________975063dca95419965088958a9550909390926064909101919085019080838360005b83811015610f14578181015183820152602001610efc565b50505050905090810190601f168015610f415780820380516001836020036101000a031916815260200191505b50935050505060206040518083038186803b158015610f5f57600080fd5b505af4158015610f73573d6000803e3d6000fd5b505050506040513d6020811015610f8957600080fd5b5051600160a060020a03888116911614610fa257600080fd5b60008b815260026020526040902060060154610fc19082908b90612535565b1515600114610fcf57600080fd5b86600160008c6000191660001916815260200190815260200160002060040160006101000a815481600160a060020a030219169083600160a060020a0316021790555085600160008c6000191660001916815260200190815260200160002060050160006101000a815481600160a060020a030219169083600160a060020a0316021790555087600160008c600019166000191681526020019081526020016000206001018190555083600160008c600019166000191681526020019081526020016000206007018190555082600160008c600019166000191681526020019081526020016000206008018190555084600160008c6000191660001916815260200190815260200160002060090181905550600260008c60001916600019168152602001908152602001600020600501544201600160008c600019166000191681526020019081526020016000206003018190555089600019168b600019167fcffb5a92cc488e2eed0a946d6ec257262e6d235c83295ebfbf4f11712330ca9a8b8b8b8b8a8a604051808060200187815260200186600160a060020a0316600160a060020a0316815260200185600160a060020a0316600160a060020a03168152602001848152602001838152602001828103825288818151815260200191508051906020019080838360005b838110156111d45781810151838201526020016111bc565b50505050905090810190601f1680156112015780820380516001836020036101000a031916815260200191505b5097505050505050505060405180910390a35050505050505050505050565b835160008681526002602052604081206004015490911161124057600080fd5b6060850151604080870151600089815260026020819052929020600381015492015492019101101561127157600080fd5b84516020808701516000898152600283526040808220805460019190910154828c015160608d015184518089019690965260218601989098526041850195909552606184018b90526c01000000000000000000000000600160a060020a0392831681026081860152911602609583015260a982019290925260c9808201949094528151808203909401845260e90190819052825190918291908401908083835b602083106113305780518252601f199092019160209182019101611311565b51815160209384036101000a6000190180199092169116179052604080519290940182900382207fdca9541900000000000000000000000000000000000000000000000000000000835260048301818152602484019586528a5160448501528a5191985073__ECTools_______________________________975063dca95419965088958b9550909390926064909101919085019080838360005b838110156113e35781810151838201526020016113cb565b50505050905090810190601f1680156114105780820380516001836020036101000a031916815260200191505b50935050505060206040518083038186803b15801561142e57600080fd5b505af4158015611442573d6000803e3d6000fd5b505050506040513d602081101561145857600080fd5b5051600087815260026020526040902054600160a060020a0390811691161461148057600080fd5b604080517fdca95419000000000000000000000000000000000000000000000000000000008152600481018381526024820192835284516044830152845173__ECTools_______________________________9363dca95419938693889390929160640190602085019080838360005b838110156115085781810151838201526020016114f0565b50505050905090810190601f1680156115355780820380516001836020036101000a031916815260200191505b50935050505060206040518083038186803b15801561155357600080fd5b505af4158015611567573d6000803e3d6000fd5b505050506040513d602081101561157d57600080fd5b5051600087815260026020526040902060010154600160a060020a039081169116146115a857600080fd5b8451600087815260026020818152604092839020600481019490945580890151600a8501819055838a01519285018390556060808b015160038701819055600687018b905560098701805461ff0019166101001790556005870154420160089097018790558b5186519081529384019290925282850193909352918101919091526080810187905260a08101929092525187917f58276922388af94484103f49a9c3b9633c210bcedeeab2c8a36e5f8f9f62952d919081900360c00190a2505050505050565b60005481565b60408051808201909152600e81527f4c6564676572204368616e6e656c000000000000000000000000000000000000602082015281565b600083815260026020526040902054600160a060020a031615611743576040805160008051602061266e833981519152815260206004820152602160248201527f4368616e6e656c2068617320616c7265616479206265656e206372656174656460448201527f2e00000000000000000000000000000000000000000000000000000000000000606482015290519081900360840190fd5b600160a060020a03821615156117ce576040805160008051602061266e833981519152815260206004820152602960248201527f4e6f2070617274794920616464726573732070726f766964656420746f204c4360448201527f206372656174696f6e0000000000000000000000000000000000000000000000606482015290519081900360840190fd5b60008381526002602052604090206009015460ff161561183d576040805160008051602061266e833981519152815260206004820152601460248201527f4368616e6e656c20616c7265616479206f70656e000000000000000000000000604482015290519081900360640190fd5b600083815260026020526040902060040154156118a9576040805160008051602061266e833981519152815260206004820152601d60248201527f4368616e6e656c2068617320616c7265616479206265656e2075736564000000604482015290519081900360640190fd5b6000838152600260208181526040808420805473ffffffffffffffffffffffffffffffffffffffff19908116339081178355600183018054600160a060020a038b16931683179055349583018690556004830196909655600582018790554287016007909201919091558151938452905190939287927f68126d20cacc996115635674c7f52e21d4899bec2433229fea94abccff19f24592918290030190a4505050565b60008181526002602052604090206009015460ff161561196c57600080fd5b600081815260026020526040902060010154600160a060020a0316331461199257600080fd5b600081815260026020908152604080832034600382018190556009909101805460ff1916600190811790915584540190935580519283525183927f196bcc18b8e4ce5e969796910301b87767ce277a789a28bf942745297f07faff92908290030190a250565b600081815260026020526040812060090154819060ff610100909104161515600114611a2357600080fd5b6000838152600260205260409020600a015415611a3f57600080fd5b505060008181526002602081905260408083209182018054600384018054928690558590559254915192939092600160a060020a039092169184156108fc0291859190818181858888f19350505050158015611a9f573d6000803e3d6000fd5b50600083815260026020526040808220600101549051600160a060020a039091169183156108fc02918491818181858888f19350505050158015611ae7573d6000803e3d6000fd5b50600083815260026020908152604080832060098101805460ff191690558354600019019093556004909201548251908152908101849052808201839052905184917f7c1f5b5692b9041a82500f5b6cf85c3c64419f74cf54ad839ecac18093a6cb91919081900360600190a2505050565b60008281526002602052604090206009015460ff161515600114611bf2576040805160008051602061266e833981519152815260206004820152602660248201527f547269656420616464696e672066756e647320746f206120636c6f736564206360448201527f68616e6e656c0000000000000000000000000000000000000000000000000000606482015290519081900360840190fd5b600082815260026020526040902054600160a060020a0382811691161480611c365750600082815260026020526040902060010154600160a060020a038281169116145b1515611c4157600080fd5b600082815260026020526040902054600160a060020a0382811691161415611c7c576000828152600260208190526040909120018054340190555b600082815260026020526040902060010154600160a060020a0382811691161415611cb95760008281526002602052604090206003018054340190555b604080513481529051600160a060020a0383169184917f8c72346718d0a1cae9c1c91c251ea5b04e497ddd50fd8938842c4f25541717359181900360200190a35050565b600260208190526000918252604090912080546001820154928201546003830154600484015460058501546006860154600787015460088801546009890154600a90990154600160a060020a039889169a90981698969795969495939492939192909160ff80831692610100900416908c565b60008681526001602052604081205460ff1615611ddc576040805160008051602061266e833981519152815260206004820152600d60248201527f564320697320636c6f7365642e00000000000000000000000000000000000000604482015290519081900360640190fd5b600087815260016020819052604090912001548611611e70576040805160008051602061266e833981519152815260206004820152602b60248201527f56432073657175656e636520697320686967686572207468616e20757064617460448201527f652073657175656e63652e000000000000000000000000000000000000000000606482015290519081900360840190fd5b6020808401516000898152600190925260409091206008015410611f09576040805160008051602061266e833981519152815260206004820152603260248201527f53746174652075706461746573206d6179206f6e6c7920696e6372656173652060448201527f726563697069656e742062616c616e63652e0000000000000000000000000000606482015290519081900360840190fd5b602080840151845160008a81526001909352604090922060090154910114611fa5576040805160008051602061266e8339815191528152602060048201526024808201527f496e636f72726563742062616c616e63657320666f7220626f6e64656420616d60448201527f6f756e7400000000000000000000000000000000000000000000000000000000606482015290519081900360840190fd5b6000888152600260205260409020600801544211611fc257600080fd5b6000878152600160209081526040918290206009015485518683015184518085018d90528086018c90526c01000000000000000000000000600160a060020a03808d16820260608401528b16026074820152608881019390935260a883019190915260c8808301919091528351808303909101815260e89091019283905280519092918291908401908083835b6020831061206e5780518252601f19909201916020918201910161204f565b51815160209384036101000a6000190180199092169116179052604080519290940182900382207fdca95419000000000000000000000000000000000000000000000000000000008352600483018181526024840195865289516044850152895191985073__ECTools_______________________________975063dca95419965088958a9550909390926064909101919085019080838360005b83811015612121578181015183820152602001612109565b50505050905090810190601f16801561214e5780820380516001836020036101000a031916815260200191505b50935050505060206040518083038186803b15801561216c57600080fd5b505af4158015612180573d6000803e3d6000fd5b505050506040513d602081101561219657600080fd5b5051600088815260016020526040902060040154600160a060020a039081169116146121c157600080fd5b60008781526001602081815260408084206002808201805473ffffffffffffffffffffffffffffffffffffffff1916339081179091558286018d905589516007840155898501805160088501558f885291855283872060050154968e90529484524290950160038201819055815461ff001916610100179091558751945182518c81529384019590955282820194909452606082019290925260808101929092525188918a917f1bfe1ed988e2858b674914f8271b4e1d1175facec158ae6deaf2de8845a4777d9181900360a00190a35050505050505050565b600081815260016020526040902054610100900460ff16151561230d576040805160008051602061266e833981519152815260206004820152601e60248201527f5643206973206e6f7420696e20736574746c656d656e742073746174652e0000604482015290519081900360640190fd5b60008181526001602052604090206003015442116123a0576040805160008051602061266e833981519152815260206004820152602260248201527f5570646174652076632074696d656f757420686173206e6f7420656c6170736560448201527f642e000000000000000000000000000000000000000000000000000000000000606482015290519081900360840190fd5b6000828152600260209081526040808320600a8101805460001901905554848452600190925290912060040154600160a060020a039081169116141561242457600081815260016020908152604080832060078101548685526002938490529190932091820180549091019055600890910154600390910180549091019055612498565b600082815260026020908152604080832054848452600190925290912060050154600160a060020a0390811691161415612498576000818152600160209081526040808320600881015486855260029384905291909320918201805490910190556007909101546003909101805490910190555b600081815260016020818152604092839020805460ff1916909217825560078201546008909201548351928352908201528151839285927f6ffd15c8707cc55ead84f4bd6e1a07360d2a825d7dacb1456403604948e7ebbf929081900390910190a35050565b60408051808201909152600581527f302e302e31000000000000000000000000000000000000000000000000000000602082015281565b6000838160405b8551811161266057858101519150818310156125d757604080516020808201869052818301859052825180830384018152606090920192839052815191929182918401908083835b602083106125a35780518252601f199092019160209182019101612584565b6001836020036101000a03801982511681845116808217855250505050505090500191505060405180910390209250612658565b604080516020808201859052818301869052825180830384018152606090920192839052815191929182918401908083835b602083106126285780518252601f199092019160209182019101612609565b6001836020036101000a038019825116818451168082178552505050505050905001915050604051809103902092505b60200161253c565b5050919091149392505050560008c379a000000000000000000000000000000000000000000000000000000000a165627a7a72305820452153aa8fd379cce18a0cbed4e63550e303028a03ee3eded9c7eae8618112d90029",
  "source": "pragma solidity ^0.4.23;\n\nimport \"./lib/ECTools.sol\";\n\n/// @title Set Virtual Channels - A layer2 hub and spoke payment network \n/// @author Nathan Ginnever\n\ncontract LedgerChannel {\n\n    string public constant NAME = \"Ledger Channel\";\n    string public constant VERSION = \"0.0.1\";\n\n    uint256 public numChannels = 0;\n\n    event DidLCOpen (\n        bytes32 indexed channelId,\n        address indexed partyA,\n        address indexed partyI,\n        uint256 balanceA\n    );\n\n    event DidLCJoin (\n        bytes32 indexed channelId,\n        uint256 balanceI\n    );\n\n    event DidLCDeposit (\n        bytes32 indexed channelId,\n        address indexed recipient,\n        uint256 deposit\n    );\n\n    event DidLCUpdateState (\n        bytes32 indexed channelId, \n        uint256 sequence, \n        uint256 numOpenVc, \n        uint256 balanceA, \n        uint256 balanceI, \n        bytes32 vcRoot,\n        uint256 updateLCtimeout\n    );\n\n    event DidLCClose (\n        bytes32 indexed channelId,\n        uint256 sequence,\n        uint256 balanceA,\n        uint256 balanceI\n    );\n\n    event DidVCInit (\n        bytes32 indexed lcId, \n        bytes32 indexed vcId, \n        bytes proof, \n        uint256 sequence, \n        address partyA, \n        address partyB, \n        uint256 balanceA, \n        uint256 balanceB \n    );\n\n    event DidVCSettle (\n        bytes32 indexed lcId, \n        bytes32 indexed vcId,\n        uint256 updateSeq, \n        uint256 updateBalA, \n        uint256 updateBalB,\n        address challenger,\n        uint256 updateVCtimeout\n    );\n\n    event DidVCClose(\n        bytes32 indexed lcId, \n        bytes32 indexed vcId, \n        uint256 balanceA, \n        uint256 balanceB\n    );\n\n    struct Channel {\n        address partyA;\n        address partyI;\n        uint256 balanceA;\n        uint256 balanceI;\n        uint256 sequence;\n        uint256 confirmTime;\n        bytes32 VCrootHash;\n        uint256 LCopenTimeout;\n        uint256 updateLCtimeout; // when update LC times out\n        bool isOpen; // true when both parties have joined\n        bool isUpdateLCSettling;\n        uint256 numOpenVC;\n        //address closingParty;\n    }\n\n    // virtual-channel state\n    struct VirtualChannel {\n        bool isClose;\n        bool isInSettlementState;\n        uint256 sequence;\n        address challenger; // Initiator of challenge\n        uint256 updateVCtimeout; // when update VC times out\n        // channel state\n        address partyA; // VC participant A\n        address partyB; // VC participant B\n        address partyI; // LC hub\n        uint256 balanceA;\n        uint256 balanceB;\n        uint256 bond;\n        //uint256 balanceI;\n    }\n\n    mapping(bytes32 => VirtualChannel) public virtualChannels;\n    mapping(bytes32 => Channel) public Channels;\n\n    function createChannel(bytes32 _lcID, address _partyI, uint256 _confirmTime) public payable {\n        require(Channels[_lcID].partyA == address(0), \"Channel has already been created.\");\n        require(_partyI != 0x0, \"No partyI address provided to LC creation\");\n        require(Channels[_lcID].isOpen == false, \"Channel already open\");\n        require(Channels[_lcID].sequence == 0, \"Channel has already been used\");\n        // Set initial ledger channel state\n        // Alice must execute this and we assume the initial state \n        // to be signed from this requirement\n        // Alternative is to check a sig as in joinChannel\n        Channels[_lcID].partyA = msg.sender;\n        Channels[_lcID].partyI = _partyI;\n        Channels[_lcID].balanceA = msg.value;\n        Channels[_lcID].sequence = 0;\n        Channels[_lcID].confirmTime = _confirmTime;\n        // is close flag, lc state sequence, number open vc, vc root hash, partyA... \n        //Channels[_lcID].stateHash = keccak256(uint256(0), uint256(0), uint256(0), bytes32(0x0), bytes32(msg.sender), bytes32(_partyI), balanceA, balanceI);\n        Channels[_lcID].LCopenTimeout = now + _confirmTime;\n\n        emit DidLCOpen(_lcID, msg.sender, _partyI, msg.value);\n    }\n\n    function LCOpenTimeout(bytes32 _lcID) public {\n        require(msg.sender == Channels[_lcID].partyA && Channels[_lcID].isOpen == false);\n        if (now > Channels[_lcID].LCopenTimeout) {\n            Channels[_lcID].partyA.transfer(Channels[_lcID].balanceA);\n            // only safe to delete since no action was taken on this channel\n            emit DidLCClose(_lcID, 0, Channels[_lcID].balanceA, 0);\n            delete Channels[_lcID];\n        }\n    }\n\n    function joinChannel(bytes32 _lcID) public payable {\n        // require the channel is not open yet\n        require(Channels[_lcID].isOpen == false);\n        require(msg.sender == Channels[_lcID].partyI);\n        // Initial state\n        //address recover = ECTools.recoverSigner(Channels[_lcID].stateHash, _sigI);\n        Channels[_lcID].balanceI = msg.value;\n\n        // no longer allow joining functions to be called\n        Channels[_lcID].isOpen = true;\n        numChannels++;\n\n        emit DidLCJoin(_lcID, msg.value);\n    }\n\n\n    // additive updates of monetary state\n    function deposit(bytes32 _lcID, address recipient) public payable {\n        require(Channels[_lcID].isOpen == true, \"Tried adding funds to a closed channel\");\n        require(recipient == Channels[_lcID].partyA || recipient == Channels[_lcID].partyI);\n\n        if (Channels[_lcID].partyA == recipient) { Channels[_lcID].balanceA += msg.value; }\n        if (Channels[_lcID].partyI == recipient) { Channels[_lcID].balanceI += msg.value; }\n        \n        emit DidLCDeposit(_lcID, recipient, msg.value);\n    }\n\n    // TODO: Check there are no open virtual channels, the client should have cought this before signing a close LC state update\n    function consensusCloseChannel(\n        bytes32 _lcID, \n        uint256 _sequence, \n        uint256 _balanceA, \n        uint256 _balanceI, \n        string _sigA, \n        string _sigI\n    ) \n        public \n    {\n        // assume num open vc is 0 and root hash is 0x0\n        require(Channels[_lcID].sequence < _sequence);\n        require(Channels[_lcID].balanceA + Channels[_lcID].balanceI == _balanceA + _balanceI);\n\n        bytes32 _state = keccak256(\n            abi.encodePacked(\n                true,\n                _sequence,\n                uint256(0),\n                bytes32(0x0),\n                Channels[_lcID].partyA, \n                Channels[_lcID].partyI, \n                _balanceA, \n                _balanceI\n            )\n        );\n\n        require(Channels[_lcID].partyA == ECTools.recoverSigner(_state, _sigA));\n        require(Channels[_lcID].partyI == ECTools.recoverSigner(_state, _sigI));\n\n        Channels[_lcID].partyA.transfer(_balanceA);\n        Channels[_lcID].partyI.transfer(_balanceI);\n\n        Channels[_lcID].isOpen = false;\n        numChannels--;\n\n        emit DidLCClose(_lcID, _sequence, _balanceA, _balanceI);\n    }\n\n    // Byzantine functions\n\n    // make sure this can only be called once on an LC, prevent trolling from forced closing\n    function updateLCstate(\n        bytes32 _lcID, \n        uint256[4] updateParams, // [sequence, numOpenVc, balanceA, balanceI]\n        bytes32 _VCroot, \n        string _sigA, \n        string _sigI\n    ) \n        public \n    {\n        require(Channels[_lcID].sequence < updateParams[0]); // do same as vc sequence check\n        require(Channels[_lcID].balanceA + Channels[_lcID].balanceI >= updateParams[2] + updateParams[3]);\n        bytes32 _state = keccak256(\n            abi.encodePacked(\n                false, \n                updateParams[0], \n                updateParams[1], \n                _VCroot, \n                Channels[_lcID].partyA, \n                Channels[_lcID].partyI, \n                updateParams[2], \n                updateParams[3]\n            )\n        );\n\n        require(Channels[_lcID].partyA == ECTools.recoverSigner(_state, _sigA));\n        require(Channels[_lcID].partyI == ECTools.recoverSigner(_state, _sigI));\n\n        // update LC state\n        Channels[_lcID].sequence = updateParams[0];\n        Channels[_lcID].numOpenVC = updateParams[1];\n        Channels[_lcID].balanceA = updateParams[2];\n        Channels[_lcID].balanceI = updateParams[3];\n        Channels[_lcID].VCrootHash = _VCroot;\n\n        Channels[_lcID].isUpdateLCSettling = true;\n        Channels[_lcID].updateLCtimeout = now + Channels[_lcID].confirmTime;\n\n        // make settlement flag\n\n        emit DidLCUpdateState (\n            _lcID, \n            updateParams[0], \n            updateParams[1], \n            updateParams[2], \n            updateParams[3], \n            _VCroot,\n            Channels[_lcID].updateLCtimeout\n        );\n    }\n\n    //TODO: verify state transition since the hub did not agree to this state\n    // make sure the A/B balances are not beyond ingrids bonds    \n    function initVCstate(\n        bytes32 _lcID, \n        bytes32 _vcID, \n        bytes _proof, \n        uint256 _sequence, \n        address _partyA, \n        address _partyB, \n        uint256 _bond,\n        uint256 _balanceA,\n        uint256 _balanceB,\n        string sigA\n    ) \n        public \n    {\n        // sub-channel must be open\n        require(!virtualChannels[_vcID].isClose, \"VC is closed.\");\n        require(virtualChannels[_vcID].sequence == 0, \"VC sequence is not 0\");\n        // Check time has passed on updateLCtimeout and has not passed the time to store a vc state\n        require(Channels[_lcID].updateLCtimeout < now, \"LC timeout over.\");\n        // prevent rentry of initializing vc state\n        require(virtualChannels[_vcID].updateVCtimeout == 0);\n        // partyB is now Ingrid\n        bytes32 _initState = keccak256(\n            abi.encodePacked(_vcID, _sequence, _partyA, _partyB, _bond, _balanceA, _balanceB)\n        );\n\n        // Make sure Alice has signed initial vc state (A/B in oldState)\n        require(_partyA == ECTools.recoverSigner(_initState, sigA));\n\n        // Check the oldState is in the root hash\n        require(_isContained(_initState, _proof, Channels[_lcID].VCrootHash) == true);\n\n        virtualChannels[_vcID].partyA = _partyA; // VC participant A\n        virtualChannels[_vcID].partyB = _partyB; // VC participant B\n        virtualChannels[_vcID].sequence = _sequence;\n        virtualChannels[_vcID].balanceA = _balanceA;\n        virtualChannels[_vcID].balanceB = _balanceB;\n        virtualChannels[_vcID].bond = _bond;\n        virtualChannels[_vcID].updateVCtimeout = now + Channels[_lcID].confirmTime;\n\n        emit DidVCInit(_lcID, _vcID, _proof, _sequence, _partyA, _partyB, _balanceA, _balanceB);\n    }\n\n    // Params: vc init state, vc final balance, vcID\n    function settleVC(\n        bytes32 _lcID, \n        bytes32 _vcID, \n        uint256 updateSeq, \n        address _partyA, \n        address _partyB,\n        uint256[2] updateBal, // [updateBalA, updateBalB]\n        string sigA\n    ) \n        public \n    {\n        // sub-channel must be open\n        require(!virtualChannels[_vcID].isClose, \"VC is closed.\");\n        require(virtualChannels[_vcID].sequence < updateSeq, \"VC sequence is higher than update sequence.\");\n        require(virtualChannels[_vcID].balanceB < updateBal[1], \"State updates may only increase recipient balance.\");\n        require(virtualChannels[_vcID].bond == updateBal[0] + updateBal[1], \"Incorrect balances for bonded amount\");\n        // Check time has passed on updateLCtimeout and has not passed the time to store a vc state\n        // virtualChannels[_vcID].updateVCtimeout should be 0 on uninitialized vc state, and this should\n        // fail if initVC() isn't called first\n        //require(Channels[_lcID].updateLCtimeout < now && now < virtualChannels[_vcID].updateVCtimeout);\n        require(Channels[_lcID].updateLCtimeout < now); // for testing!\n\n        bytes32 _updateState = keccak256(\n            abi.encodePacked(_vcID, updateSeq, _partyA, _partyB, virtualChannels[_vcID].bond, updateBal[0], updateBal[1])\n        );\n\n        // Make sure Alice has signed a higher sequence new state\n        require(virtualChannels[_vcID].partyA == ECTools.recoverSigner(_updateState, sigA));\n\n        // store VC data\n        // we may want to record who is initiating on-chain settles\n        virtualChannels[_vcID].challenger = msg.sender;\n        virtualChannels[_vcID].sequence = updateSeq;\n\n        // channel state\n        virtualChannels[_vcID].balanceA = updateBal[0];\n        virtualChannels[_vcID].balanceB = updateBal[1];\n\n        virtualChannels[_vcID].updateVCtimeout = now + Channels[_lcID].confirmTime;\n        virtualChannels[_vcID].isInSettlementState = true;\n\n        emit DidVCSettle(_lcID, _vcID, updateSeq, updateBal[0], updateBal[1], msg.sender, virtualChannels[_vcID].updateVCtimeout);\n    }\n\n    function closeVirtualChannel(bytes32 _lcID, bytes32 _vcID) public {\n        // require(updateLCtimeout > now)\n        require(virtualChannels[_vcID].isInSettlementState, \"VC is not in settlement state.\");\n        require(virtualChannels[_vcID].updateVCtimeout < now, \"Update vc timeout has not elapsed.\");\n        // reduce the number of open virtual channels stored on LC\n        Channels[_lcID].numOpenVC--;\n        // re-introduce the balances back into the LC state from the settled VC\n        // decide if this lc is alice or bob in the vc\n        if(virtualChannels[_vcID].partyA == Channels[_lcID].partyA) {\n            Channels[_lcID].balanceA += virtualChannels[_vcID].balanceA;\n            Channels[_lcID].balanceI += virtualChannels[_vcID].balanceB;\n        } else if (virtualChannels[_vcID].partyB == Channels[_lcID].partyA) {\n            Channels[_lcID].balanceA += virtualChannels[_vcID].balanceB;\n            Channels[_lcID].balanceI += virtualChannels[_vcID].balanceA;\n        }\n        // close vc flags\n        virtualChannels[_vcID].isClose = true;\n\n        emit DidVCClose(_lcID, _vcID, virtualChannels[_vcID].balanceA, virtualChannels[_vcID].balanceB);\n    }\n\n\n    function byzantineCloseChannel(bytes32 _lcID) public{\n        // check settlement flag\n        require(Channels[_lcID].isUpdateLCSettling == true);\n        require(Channels[_lcID].numOpenVC == 0);\n\n        // reentrancy\n        uint256 balanceA = Channels[_lcID].balanceA;\n        uint256 balanceI = Channels[_lcID].balanceI;\n        Channels[_lcID].balanceA = 0;\n        Channels[_lcID].balanceI = 0;\n\n        Channels[_lcID].partyA.transfer(balanceA);\n        Channels[_lcID].partyI.transfer(balanceI);\n        Channels[_lcID].isOpen = false;\n        numChannels--;\n\n        emit DidLCClose(_lcID, Channels[_lcID].sequence, balanceA, balanceI);\n    }\n\n    function _isContained(bytes32 _hash, bytes _proof, bytes32 _root) internal pure returns (bool) {\n        bytes32 cursor = _hash;\n        bytes32 proofElem;\n\n        for (uint256 i = 64; i <= _proof.length; i += 32) {\n            assembly { proofElem := mload(add(_proof, i)) }\n\n            if (cursor < proofElem) {\n                cursor = keccak256(abi.encodePacked(cursor, proofElem));\n            } else {\n                cursor = keccak256(abi.encodePacked(proofElem, cursor));\n            }\n        }\n\n        return cursor == _root;\n    }\n}\n",
  "sourcePath": "/Users/laynehaber/Developer/connext/repos/spankchain/virtual-channels/contracts/LedgerChannel.sol",
  "compiler": {
    "name": "solc",
    "version": "0.4.24+commit.e67f0147.Emscripten.clang"
  },
  "schemaVersion": "2.0.0",
  "updatedAt": "2018-06-26T21:43:14.871Z"
}