{
  "contractName": "LedgerChannel",
  "abi": [
    {
      "constant": true,
      "inputs": [
        {
          "name": "",
          "type": "bytes32"
        }
      ],
      "name": "virtualChannels",
      "outputs": [
        {
          "name": "isClose",
          "type": "bool"
        },
        {
          "name": "isInSettlementState",
          "type": "bool"
        },
        {
          "name": "sequence",
          "type": "uint256"
        },
        {
          "name": "challenger",
          "type": "address"
        },
        {
          "name": "updateVCtimeout",
          "type": "uint256"
        },
        {
          "name": "partyA",
          "type": "address"
        },
        {
          "name": "partyB",
          "type": "address"
        },
        {
          "name": "partyI",
          "type": "address"
        },
        {
          "name": "balanceA",
          "type": "uint256"
        },
        {
          "name": "balanceB",
          "type": "uint256"
        },
        {
          "name": "bond",
          "type": "uint256"
        }
      ],
      "payable": false,
      "stateMutability": "view",
      "type": "function"
    },
    {
      "constant": true,
      "inputs": [],
      "name": "numChannels",
      "outputs": [
        {
          "name": "",
          "type": "uint256"
        }
      ],
      "payable": false,
      "stateMutability": "view",
      "type": "function"
    },
    {
      "constant": true,
      "inputs": [],
      "name": "NAME",
      "outputs": [
        {
          "name": "",
          "type": "string"
        }
      ],
      "payable": false,
      "stateMutability": "view",
      "type": "function"
    },
    {
      "constant": true,
      "inputs": [
        {
          "name": "",
          "type": "bytes32"
        }
      ],
      "name": "Channels",
      "outputs": [
        {
          "name": "partyA",
          "type": "address"
        },
        {
          "name": "partyI",
          "type": "address"
        },
        {
          "name": "balanceA",
          "type": "uint256"
        },
        {
          "name": "balanceI",
          "type": "uint256"
        },
        {
          "name": "initialDeposit",
          "type": "uint256"
        },
        {
          "name": "sequence",
          "type": "uint256"
        },
        {
          "name": "confirmTime",
          "type": "uint256"
        },
        {
          "name": "VCrootHash",
          "type": "bytes32"
        },
        {
          "name": "LCopenTimeout",
          "type": "uint256"
        },
        {
          "name": "updateLCtimeout",
          "type": "uint256"
        },
        {
          "name": "isOpen",
          "type": "bool"
        },
        {
          "name": "isUpdateLCSettling",
          "type": "bool"
        },
        {
          "name": "numOpenVC",
          "type": "uint256"
        }
      ],
      "payable": false,
      "stateMutability": "view",
      "type": "function"
    },
    {
      "constant": true,
      "inputs": [],
      "name": "VERSION",
      "outputs": [
        {
          "name": "",
          "type": "string"
        }
      ],
      "payable": false,
      "stateMutability": "view",
      "type": "function"
    },
    {
      "anonymous": false,
      "inputs": [
        {
          "indexed": true,
          "name": "channelId",
          "type": "bytes32"
        },
        {
          "indexed": true,
          "name": "partyA",
          "type": "address"
        },
        {
          "indexed": true,
          "name": "partyI",
          "type": "address"
        },
        {
          "indexed": false,
          "name": "balanceA",
          "type": "uint256"
        },
        {
          "indexed": false,
          "name": "LCopenTimeout",
          "type": "uint256"
        }
      ],
      "name": "DidLCOpen",
      "type": "event"
    },
    {
      "anonymous": false,
      "inputs": [
        {
          "indexed": true,
          "name": "channelId",
          "type": "bytes32"
        },
        {
          "indexed": false,
          "name": "balanceI",
          "type": "uint256"
        }
      ],
      "name": "DidLCJoin",
      "type": "event"
    },
    {
      "anonymous": false,
      "inputs": [
        {
          "indexed": true,
          "name": "channelId",
          "type": "bytes32"
        },
        {
          "indexed": true,
          "name": "recipient",
          "type": "address"
        },
        {
          "indexed": false,
          "name": "deposit",
          "type": "uint256"
        }
      ],
      "name": "DidLCDeposit",
      "type": "event"
    },
    {
      "anonymous": false,
      "inputs": [
        {
          "indexed": true,
          "name": "channelId",
          "type": "bytes32"
        },
        {
          "indexed": false,
          "name": "sequence",
          "type": "uint256"
        },
        {
          "indexed": false,
          "name": "numOpenVc",
          "type": "uint256"
        },
        {
          "indexed": false,
          "name": "balanceA",
          "type": "uint256"
        },
        {
          "indexed": false,
          "name": "balanceI",
          "type": "uint256"
        },
        {
          "indexed": false,
          "name": "vcRoot",
          "type": "bytes32"
        },
        {
          "indexed": false,
          "name": "updateLCtimeout",
          "type": "uint256"
        }
      ],
      "name": "DidLCUpdateState",
      "type": "event"
    },
    {
      "anonymous": false,
      "inputs": [
        {
          "indexed": true,
          "name": "channelId",
          "type": "bytes32"
        },
        {
          "indexed": false,
          "name": "sequence",
          "type": "uint256"
        },
        {
          "indexed": false,
          "name": "balanceA",
          "type": "uint256"
        },
        {
          "indexed": false,
          "name": "balanceI",
          "type": "uint256"
        }
      ],
      "name": "DidLCClose",
      "type": "event"
    },
    {
      "anonymous": false,
      "inputs": [
        {
          "indexed": true,
          "name": "lcId",
          "type": "bytes32"
        },
        {
          "indexed": true,
          "name": "vcId",
          "type": "bytes32"
        },
        {
          "indexed": false,
          "name": "proof",
          "type": "bytes"
        },
        {
          "indexed": false,
          "name": "sequence",
          "type": "uint256"
        },
        {
          "indexed": false,
          "name": "partyA",
          "type": "address"
        },
        {
          "indexed": false,
          "name": "partyB",
          "type": "address"
        },
        {
          "indexed": false,
          "name": "balanceA",
          "type": "uint256"
        },
        {
          "indexed": false,
          "name": "balanceB",
          "type": "uint256"
        }
      ],
      "name": "DidVCInit",
      "type": "event"
    },
    {
      "anonymous": false,
      "inputs": [
        {
          "indexed": true,
          "name": "lcId",
          "type": "bytes32"
        },
        {
          "indexed": true,
          "name": "vcId",
          "type": "bytes32"
        },
        {
          "indexed": false,
          "name": "updateSeq",
          "type": "uint256"
        },
        {
          "indexed": false,
          "name": "updateBalA",
          "type": "uint256"
        },
        {
          "indexed": false,
          "name": "updateBalB",
          "type": "uint256"
        },
        {
          "indexed": false,
          "name": "challenger",
          "type": "address"
        },
        {
          "indexed": false,
          "name": "updateVCtimeout",
          "type": "uint256"
        }
      ],
      "name": "DidVCSettle",
      "type": "event"
    },
    {
      "anonymous": false,
      "inputs": [
        {
          "indexed": true,
          "name": "lcId",
          "type": "bytes32"
        },
        {
          "indexed": true,
          "name": "vcId",
          "type": "bytes32"
        },
        {
          "indexed": false,
          "name": "balanceA",
          "type": "uint256"
        },
        {
          "indexed": false,
          "name": "balanceB",
          "type": "uint256"
        }
      ],
      "name": "DidVCClose",
      "type": "event"
    },
    {
      "constant": false,
      "inputs": [
        {
          "name": "_lcID",
          "type": "bytes32"
        },
        {
          "name": "_partyI",
          "type": "address"
        },
        {
          "name": "_confirmTime",
          "type": "uint256"
        }
      ],
      "name": "createChannel",
      "outputs": [],
      "payable": true,
      "stateMutability": "payable",
      "type": "function"
    },
    {
      "constant": false,
      "inputs": [
        {
          "name": "_lcID",
          "type": "bytes32"
        }
      ],
      "name": "LCOpenTimeout",
      "outputs": [],
      "payable": false,
      "stateMutability": "nonpayable",
      "type": "function"
    },
    {
      "constant": false,
      "inputs": [
        {
          "name": "_lcID",
          "type": "bytes32"
        }
      ],
      "name": "joinThread",
      "outputs": [],
      "payable": true,
      "stateMutability": "payable",
      "type": "function"
    },
    {
      "constant": false,
      "inputs": [
        {
          "name": "_lcID",
          "type": "bytes32"
        },
        {
          "name": "recipient",
          "type": "address"
        }
      ],
      "name": "deposit",
      "outputs": [],
      "payable": true,
      "stateMutability": "payable",
      "type": "function"
    },
    {
      "constant": false,
      "inputs": [
        {
          "name": "_lcID",
          "type": "bytes32"
        },
        {
          "name": "_sequence",
          "type": "uint256"
        },
        {
          "name": "_balanceA",
          "type": "uint256"
        },
        {
          "name": "_balanceI",
          "type": "uint256"
        },
        {
          "name": "_sigA",
          "type": "string"
        },
        {
          "name": "_sigI",
          "type": "string"
        }
      ],
      "name": "consensusCloseChannel",
      "outputs": [],
      "payable": false,
      "stateMutability": "nonpayable",
      "type": "function"
    },
    {
      "constant": false,
      "inputs": [
        {
          "name": "_lcID",
          "type": "bytes32"
        },
        {
          "name": "updateParams",
          "type": "uint256[4]"
        },
        {
          "name": "_VCroot",
          "type": "bytes32"
        },
        {
          "name": "_sigA",
          "type": "string"
        },
        {
          "name": "_sigI",
          "type": "string"
        }
      ],
      "name": "updateLCstate",
      "outputs": [],
      "payable": false,
      "stateMutability": "nonpayable",
      "type": "function"
    },
    {
      "constant": false,
      "inputs": [
        {
          "name": "_lcID",
          "type": "bytes32"
        },
        {
          "name": "_vcID",
          "type": "bytes32"
        },
        {
          "name": "_proof",
          "type": "bytes"
        },
        {
          "name": "_partyA",
          "type": "address"
        },
        {
          "name": "_partyB",
          "type": "address"
        },
        {
          "name": "_bond",
          "type": "uint256"
        },
        {
          "name": "_balanceA",
          "type": "uint256"
        },
        {
          "name": "_balanceB",
          "type": "uint256"
        },
        {
          "name": "sigA",
          "type": "string"
        }
      ],
      "name": "initVCstate",
      "outputs": [],
      "payable": false,
      "stateMutability": "nonpayable",
      "type": "function"
    },
    {
      "constant": false,
      "inputs": [
        {
          "name": "_lcID",
          "type": "bytes32"
        },
        {
          "name": "_vcID",
          "type": "bytes32"
        },
        {
          "name": "updateSeq",
          "type": "uint256"
        },
        {
          "name": "_partyA",
          "type": "address"
        },
        {
          "name": "_partyB",
          "type": "address"
        },
        {
          "name": "updateBal",
          "type": "uint256[2]"
        },
        {
          "name": "sigA",
          "type": "string"
        }
      ],
      "name": "settleVC",
      "outputs": [],
      "payable": false,
      "stateMutability": "nonpayable",
      "type": "function"
    },
    {
      "constant": false,
      "inputs": [
        {
          "name": "_lcID",
          "type": "bytes32"
        },
        {
          "name": "_vcID",
          "type": "bytes32"
        }
      ],
      "name": "closeVirtualChannel",
      "outputs": [],
      "payable": false,
      "stateMutability": "nonpayable",
      "type": "function"
    },
    {
      "constant": false,
      "inputs": [
        {
          "name": "_lcID",
          "type": "bytes32"
        }
      ],
      "name": "byzantineCloseChannel",
      "outputs": [],
      "payable": false,
      "stateMutability": "nonpayable",
      "type": "function"
    }
  ],
  "bytecode": "0x60806040526000805534801561001457600080fd5b506128af806100246000396000f3006080604052600436106100d95763ffffffff7c01000000000000000000000000000000000000000000000000000000006000350416622e1d7e81146100de57806316940125146100f857806336a84fe714610179578063659ee83e1461022257806365dd43eb146102e7578063924a7b781461030e578063a3f4df7e146103d4578063aa03dfaa1461045e578063b6f5a74614610478578063ce32957014610483578063cec4c8551461049b578063d32fc05a146104b2578063f6a721381461053f578063fdb04023146105dd578063ffa1ad74146105f8575b600080fd5b3480156100ea57600080fd5b506100f660043561060d565b005b34801561010457600080fd5b506101106004356107a0565b604080519b15158c5299151560208c01528a8a0198909852600160a060020a0396871660608b015260808a019590955292851660a089015290841660c088015290921660e086015261010085019190915261012084015261014083015251908190036101600190f35b34801561018557600080fd5b50604080516020601f6084356004818101359283018490048402850184019095528184526100f6948035946024803595604435956064359536959460a494909391019190819084018382808284375050604080516020601f89358b018035918201839004830284018301909452808352979a9998810197919650918201945092508291508401838280828437509497506108099650505050505050565b34801561022e57600080fd5b506040805160808181019092526100f6916004803592369260a491906024908490839083908082843750506040805160208781013589018035601f81018390048302840183018552808452979a89359a90999098940196509194509081019250819084018382808284375050604080516020601f89358b018035918201839004830284018301909452808352979a999881019791965091820194509250829150840183828082843750949750610c969650505050505050565b3480156102f357600080fd5b506102fc611144565b60408051918252519081900360200190f35b34801561031a57600080fd5b50604080516020600460443581810135601f81018490048402850184019095528484526100f694823594602480359536959460649492019190819084018382808284375050604080516020601f60a08a01358b0180359182018390048302840183018552818452989b600160a060020a038b3581169c848d01359091169b958601359a60608701359a5060808701359950919750955060c090940193820191819084018382808284375094975061114a9650505050505050565b3480156103e057600080fd5b506103e96116ff565b6040805160208082528351818301528351919283929083019185019080838360005b8381101561042357818101518382015260200161040b565b50505050905090810190601f1680156104505780820380516001836020036101000a031916815260200191505b509250505060405180910390f35b6100f6600435600160a060020a0360243516604435611736565b6100f6600435611909565b34801561048f57600080fd5b506100f66004356119be565b6100f6600435600160a060020a0360243516611c0f565b3480156104be57600080fd5b506104ca600435611db2565b60408051600160a060020a039e8f1681529c909d1660208d01528b8d019a909a5260608b019890985260808a019690965260a089019490945260c088019290925260e0870152610100860152610120850152151561014084015215156101608301526101808201529051908190036101a00190f35b34801561054b57600080fd5b506040805180820182526100f69160048035926024359260443592600160a060020a036064358116936084359091169236929160e49160a49060029083908390808284375050604080516020601f88358a01803591820183900483028401830190945280835296999897810196919550918201935091508190840183828082843750949750611e2d9650505050505050565b3480156105e957600080fd5b506100f660043560243561240d565b34801561060457600080fd5b506103e96126e6565b600081815260026020526040902054600160a060020a03163314801561064557506000818152600260205260409020600c015460ff16155b151561065057600080fd5b6000818152600260205260409020600a0154421161066d57600080fd5b600081815260026020819052604080832080549201549051600160a060020a039092169281156108fc029290818181858888f193505050501580156106b6573d6000803e3d6000fd5b50600081815260026020818152604080842090920154825184815291820152808201929092525182917f7c1f5b5692b9041a82500f5b6cf85c3c64419f74cf54ad839ecac18093a6cb91919081900360600190a260008181526002602081905260408220805473ffffffffffffffffffffffffffffffffffffffff1990811682556001820180549091169055908101829055600381018290559061075d6004830182612855565b50600060068201819055600782018190556008820181905560098201819055600a8201819055600b8201819055600c8201805461ffff19169055600d9091015550565b6001602081905260009182526040909120805491810154600282015460038301546004840154600585015460068601546007870154600888015460099098015460ff808b169a61010090041698600160a060020a0397881697958616959485169490931692908b565b6000868152600260205260408120600c0154819060ff16151560011461082e57600080fd5b600088815260026020526040902060058101546004820154600690920154909101019150848601821461086057600080fd5b600088815260026020908152604080832080546001919091015482517f010000000000000000000000000000000000000000000000000000000000000081860152602181018d90526041810186905260618101959095526c01000000000000000000000000600160a060020a0392831681026081870152911602609584015260a9830189905260c98084018990528151808503909101815260e990930190819052825190918291908401908083835b6020831061092e5780518252601f19909201916020918201910161090f565b51815160209384036101000a6000190180199092169116179052604080519290940182900382207fdca9541900000000000000000000000000000000000000000000000000000000835260048301818152602484019586528b5160448501528b5191985073__ECTools_______________________________975063dca95419965088958c9550909390926064909101919085019080838360005b838110156109e15781810151838201526020016109c9565b50505050905090810190601f168015610a0e5780820380516001836020036101000a031916815260200191505b50935050505060206040518083038186803b158015610a2c57600080fd5b505af4158015610a40573d6000803e3d6000fd5b505050506040513d6020811015610a5657600080fd5b5051600089815260026020526040902054600160a060020a03908116911614610a7e57600080fd5b604080517fdca95419000000000000000000000000000000000000000000000000000000008152600481018381526024820192835285516044830152855173__ECTools_______________________________9363dca95419938693899390929160640190602085019080838360005b83811015610b06578181015183820152602001610aee565b50505050905090810190601f168015610b335780820380516001836020036101000a031916815260200191505b50935050505060206040518083038186803b158015610b5157600080fd5b505af4158015610b65573d6000803e3d6000fd5b505050506040513d6020811015610b7b57600080fd5b5051600089815260026020526040902060010154600160a060020a03908116911614610ba657600080fd5b600088815260026020526040808220600c8101805460ff19169055549051600160a060020a039091169188156108fc02918991818181858888f19350505050158015610bf6573d6000803e3d6000fd5b50600088815260026020526040808220600101549051600160a060020a039091169187156108fc02918891818181858888f19350505050158015610c3e573d6000803e3d6000fd5b50600080546000190190556040805188815260208101889052808201879052905189917f7c1f5b5692b9041a82500f5b6cf85c3c64419f74cf54ad839ecac18093a6cb91919081900360600190a25050505050505050565b6000858152600260205260408120600c015460ff161515610cb657600080fd5b845160008781526002602052604090206007015410610cd457600080fd5b60608501516040808701516000898152600260208190529290206003810154920154920191011015610d0557600080fd5b6000868152600260205260409020600c015460ff61010090910416151560011415610d47576000868152600260205260409020600b01544210610d4757600080fd5b84516020808701516000898152600283526040808220805460019190910154828c015160608d015184518089019690965260218601989098526041850195909552606184018b90526c01000000000000000000000000600160a060020a0392831681026081860152911602609583015260a982019290925260c9808201949094528151808203909401845260e90190819052825190918291908401908083835b60208310610e065780518252601f199092019160209182019101610de7565b51815160209384036101000a6000190180199092169116179052604080519290940182900382207fdca9541900000000000000000000000000000000000000000000000000000000835260048301818152602484019586528a5160448501528a5191985073__ECTools_______________________________975063dca95419965088958b9550909390926064909101919085019080838360005b83811015610eb9578181015183820152602001610ea1565b50505050905090810190601f168015610ee65780820380516001836020036101000a031916815260200191505b50935050505060206040518083038186803b158015610f0457600080fd5b505af4158015610f18573d6000803e3d6000fd5b505050506040513d6020811015610f2e57600080fd5b5051600087815260026020526040902054600160a060020a03908116911614610f5657600080fd5b604080517fdca95419000000000000000000000000000000000000000000000000000000008152600481018381526024820192835284516044830152845173__ECTools_______________________________9363dca95419938693889390929160640190602085019080838360005b83811015610fde578181015183820152602001610fc6565b50505050905090810190601f16801561100b5780820380516001836020036101000a031916815260200191505b50935050505060206040518083038186803b15801561102957600080fd5b505af415801561103d573d6000803e3d6000fd5b505050506040513d602081101561105357600080fd5b5051600087815260026020526040902060010154600160a060020a0390811691161461107e57600080fd5b8451600087815260026020818152604092839020600781019490945580890151600d8501819055838a01519285018390556060808b015160038701819055600987018b9055600c8701805461ff00191661010017905560088701544201600b9097018790558b5186519081529384019290925282850193909352918101919091526080810187905260a08101929092525187917f58276922388af94484103f49a9c3b9633c210bcedeeab2c8a36e5f8f9f62952d919081900360c00190a2505050505050565b60005481565b6000898152600260205260408120600c015460ff1615156111ba5760408051600080516020612864833981519152815260206004820152600d60248201527f4c4320697320636c6f7365642e00000000000000000000000000000000000000604482015290519081900360640190fd5b60008981526001602052604090205460ff16156112265760408051600080516020612864833981519152815260206004820152600d60248201527f564320697320636c6f7365642e00000000000000000000000000000000000000604482015290519081900360640190fd5b60008a8152600260205260409020600b015442116112935760408051600080516020612864833981519152815260206004820152601060248201527f4c432074696d656f7574206f7665722e00000000000000000000000000000000604482015290519081900360640190fd5b600089815260016020526040902060030154156112af57600080fd5b6040805160208082018c90526000828401526c01000000000000000000000000600160a060020a03808c16820260608501528a160260748301526088820188905260a8820187905260c88083018790528351808403909101815260e890920192839052815191929182918401908083835b6020831061133f5780518252601f199092019160209182019101611320565b51815160209384036101000a6000190180199092169116179052604080519290940182900382207fdca95419000000000000000000000000000000000000000000000000000000008352600483018181526024840195865289516044850152895191985073__ECTools_______________________________975063dca95419965088958a9550909390926064909101919085019080838360005b838110156113f25781810151838201526020016113da565b50505050905090810190601f16801561141f5780820380516001836020036101000a031916815260200191505b50935050505060206040518083038186803b15801561143d57600080fd5b505af4158015611451573d6000803e3d6000fd5b505050506040513d602081101561146757600080fd5b5051600160a060020a0388811691161461148057600080fd5b60008a81526002602052604090206009015461149f9082908a9061271d565b15156001146114ad57600080fd5b86600160008b6000191660001916815260200190815260200160002060040160006101000a815481600160a060020a030219169083600160a060020a0316021790555085600160008b6000191660001916815260200190815260200160002060050160006101000a815481600160a060020a030219169083600160a060020a031602179055506000600160008b600019166000191681526020019081526020016000206001018190555083600160008b600019166000191681526020019081526020016000206007018190555082600160008b600019166000191681526020019081526020016000206008018190555084600160008b6000191660001916815260200190815260200160002060090181905550600260008b60001916600019168152602001908152602001600020600801544201600160008b600019166000191681526020019081526020016000206003018190555088600019168a600019167fcffb5a92cc488e2eed0a946d6ec257262e6d235c83295ebfbf4f11712330ca9a8a60008b8b8a8a604051808060200187815260200186600160a060020a0316600160a060020a0316815260200185600160a060020a0316600160a060020a03168152602001848152602001838152602001828103825288818151815260200191508051906020019080838360005b838110156116b457818101518382015260200161169c565b50505050905090810190601f1680156116e15780820380516001836020036101000a031916815260200191505b5097505050505050505060405180910390a350505050505050505050565b60408051808201909152600e81527f4c6564676572204368616e6e656c000000000000000000000000000000000000602082015281565b600083815260026020526040902054600160a060020a0316156117ce5760408051600080516020612864833981519152815260206004820152602160248201527f4368616e6e656c2068617320616c7265616479206265656e206372656174656460448201527f2e00000000000000000000000000000000000000000000000000000000000000606482015290519081900360840190fd5b600160a060020a03821615156118595760408051600080516020612864833981519152815260206004820152602960248201527f4e6f2070617274794920616464726573732070726f766964656420746f204c4360448201527f206372656174696f6e0000000000000000000000000000000000000000000000606482015290519081900360840190fd5b6000838152600260208181526040808420805473ffffffffffffffffffffffffffffffffffffffff19908116339081178355600183018054600160a060020a038b1693168317905534958301869055600783019690965560088201879055428701600a83018190556006909201859055825194855292840152805191939287927f0ba63a912bc059b3488bca028f369e682d9c963cea472f813e28023f1c6829e6929181900390910190a4505050565b6000818152600260205260409020600c015460ff161561192857600080fd5b600081815260026020526040902060010154600160a060020a0316331461194e57600080fd5b6000818152600260209081526040808320346003820181905560068201805482019055600c909101805460ff1916600190811790915584540190935580519283525183927f196bcc18b8e4ce5e969796910301b87767ce277a789a28bf942745297f07faff92908290030190a250565b6000818152600260205260408120600c015481908190819060ff6101009091041615156001146119ed57600080fd5b6000858152600260205260409020600d015415611a0957600080fd5b6000858152600260205260409020600b01544211611a765760408051600080516020612864833981519152815260206004820152601060248201527f4c432074696d656f7574206f7665722e00000000000000000000000000000000604482015290519081900360640190fd5b600085815260026020819052604090912060058101546004820154600683015460038401549390940154930101955001925083831015611ae7576000858152600260208190526040909120600481015491810180549092019091556005810154600390910180549091019055611af3565b828414611af357600080fd5b505060008381526002602081905260408083209182018054600384018054928690558590559254915192939092600160a060020a039092169184156108fc0291859190818181858888f19350505050158015611b53573d6000803e3d6000fd5b50600085815260026020526040808220600101549051600160a060020a039091169183156108fc02918491818181858888f19350505050158015611b9b573d6000803e3d6000fd5b506000858152600260209081526040808320600c8101805460ff191690558354600019019093556007909201548251908152908101849052808201839052905186917f7c1f5b5692b9041a82500f5b6cf85c3c64419f74cf54ad839ecac18093a6cb91919081900360600190a25050505050565b6000828152600260205260409020600c015460ff161515600114611ca85760408051600080516020612864833981519152815260206004820152602660248201527f547269656420616464696e672066756e647320746f206120636c6f736564206360448201527f68616e6e656c0000000000000000000000000000000000000000000000000000606482015290519081900360840190fd5b600082815260026020526040902054600160a060020a0382811691161480611cec5750600082815260026020526040902060010154600160a060020a038281169116145b1515611cf757600080fd5b600082815260026020526040902054600160a060020a0382811691161415611d315760008281526002602052604090206004018054340190555b600082815260026020526040902060010154600160a060020a0382811691161415611d6e5760008281526002602052604090206005018054340190555b604080513481529051600160a060020a0383169184917f8c72346718d0a1cae9c1c91c251ea5b04e497ddd50fd8938842c4f25541717359181900360200190a35050565b6002602081905260009182526040909120805460018201549282015460038301546006840154600785015460088601546009870154600a880154600b890154600c8a0154600d909a0154600160a060020a03998a169b909916999798969795969495939492939192909160ff8082169261010090920416908d565b6000878152600260205260408120600c015460ff161515611e9d5760408051600080516020612864833981519152815260206004820152600d60248201527f4c4320697320636c6f7365642e00000000000000000000000000000000000000604482015290519081900360640190fd5b60008781526001602052604090205460ff1615611f095760408051600080516020612864833981519152815260206004820152600d60248201527f564320697320636c6f7365642e00000000000000000000000000000000000000604482015290519081900360640190fd5b600087815260016020819052604090912001548611611f9d5760408051600080516020612864833981519152815260206004820152602b60248201527f56432073657175656e636520697320686967686572207468616e20757064617460448201527f652073657175656e63652e000000000000000000000000000000000000000000606482015290519081900360840190fd5b60208084015160008981526001909252604090912060080154106120365760408051600080516020612864833981519152815260206004820152603260248201527f53746174652075706461746573206d6179206f6e6c7920696e6372656173652060448201527f726563697069656e742062616c616e63652e0000000000000000000000000000606482015290519081900360840190fd5b602080840151845160008a815260019093526040909220600901549101146120d257604080516000805160206128648339815191528152602060048201526024808201527f496e636f72726563742062616c616e63657320666f7220626f6e64656420616d60448201527f6f756e7400000000000000000000000000000000000000000000000000000000606482015290519081900360840190fd5b6000888152600260205260409020600b015442116120ef57600080fd5b6000878152600160209081526040918290206009015485518683015184518085018d90528086018c90526c01000000000000000000000000600160a060020a03808d16820260608401528b16026074820152608881019390935260a883019190915260c8808301919091528351808303909101815260e89091019283905280519092918291908401908083835b6020831061219b5780518252601f19909201916020918201910161217c565b51815160209384036101000a6000190180199092169116179052604080519290940182900382207fdca95419000000000000000000000000000000000000000000000000000000008352600483018181526024840195865289516044850152895191985073__ECTools_______________________________975063dca95419965088958a9550909390926064909101919085019080838360005b8381101561224e578181015183820152602001612236565b50505050905090810190601f16801561227b5780820380516001836020036101000a031916815260200191505b50935050505060206040518083038186803b15801561229957600080fd5b505af41580156122ad573d6000803e3d6000fd5b505050506040513d60208110156122c357600080fd5b5051600088815260016020526040902060040154600160a060020a039081169116146122ee57600080fd5b6000878152600160208190526040822060028101805473ffffffffffffffffffffffffffffffffffffffff19163317905501879055839060209081029190910151600089815260019283905260409020600701558390602090810291909101516000898152600180845260408083206008808201959095558d845260028652908320909301548b83529352429092016003820155805461ff001916610100179055879089907f1bfe1ed988e2858b674914f8271b4e1d1175facec158ae6deaf2de8845a4777d908990879060200201518760016020908102919091015160008e81526001835260409081902060030154815195865292850193909352838301523360608401526080830152519081900360a00190a35050505050505050565b6000828152600260205260409020600c015460ff16151561247d5760408051600080516020612864833981519152815260206004820152600d60248201527f4c4320697320636c6f7365642e00000000000000000000000000000000000000604482015290519081900360640190fd5b600081815260016020526040902054610100900460ff1615156124ef5760408051600080516020612864833981519152815260206004820152601e60248201527f5643206973206e6f7420696e20736574746c656d656e742073746174652e0000604482015290519081900360640190fd5b60008181526001602052604090206003015442116125825760408051600080516020612864833981519152815260206004820152602260248201527f5570646174652076632074696d656f757420686173206e6f7420656c6170736560448201527f642e000000000000000000000000000000000000000000000000000000000000606482015290519081900360840190fd5b6000828152600260209081526040808320600d810180546000190190558484526001928390529220805460ff191690911781559054600490910154600160a060020a039182169116141561261457600081815260016020908152604080832060078101548685526002938490529190932091820180549091019055600890910154600390910180549091019055612688565b600082815260026020908152604080832054848452600190925290912060050154600160a060020a0390811691161415612688576000818152600160209081526040808320600881015486855260029384905291909320918201805490910190556007909101546003909101805490910190555b60008181526001602090815260409182902060078101546008909101548351918252918101919091528151839285927f6ffd15c8707cc55ead84f4bd6e1a07360d2a825d7dacb1456403604948e7ebbf929081900390910190a35050565b60408051808201909152600581527f302e302e31000000000000000000000000000000000000000000000000000000602082015281565b6000838160405b8551811161284857858101519150818310156127bf57604080516020808201869052818301859052825180830384018152606090920192839052815191929182918401908083835b6020831061278b5780518252601f19909201916020918201910161276c565b6001836020036101000a03801982511681845116808217855250505050505090500191505060405180910390209250612840565b604080516020808201859052818301869052825180830384018152606090920192839052815191929182918401908083835b602083106128105780518252601f1990920191602091820191016127f1565b6001836020036101000a038019825116818451168082178552505050505050905001915050604051809103902092505b602001612724565b5050919091149392505050565b506000815560010160009055560008c379a000000000000000000000000000000000000000000000000000000000a165627a7a72305820801ad789f6d02345169eb5d4eaff621fbd19e0a0590fa866ca60e5359ef91baa0029",
  "source": "pragma solidity ^0.4.23;\n\nimport \"./lib/ECTools.sol\";\n\n/// @title Set Virtual Channels - A layer2 hub and spoke payment network \n/// @author Nathan Ginnever\n\ncontract LedgerChannel {\n\n    string public constant NAME = \"Ledger Channel\";\n    string public constant VERSION = \"0.0.1\";\n\n    uint256 public numChannels = 0;\n\n    event DidLCOpen (\n        bytes32 indexed channelId,\n        address indexed partyA,\n        address indexed partyI,\n        uint256 balanceA,\n        uint256 LCopenTimeout\n    );\n\n    event DidLCJoin (\n        bytes32 indexed channelId,\n        uint256 balanceI\n    );\n\n    event DidLCDeposit (\n        bytes32 indexed channelId,\n        address indexed recipient,\n        uint256 deposit\n    );\n\n    event DidLCUpdateState (\n        bytes32 indexed channelId, \n        uint256 sequence, \n        uint256 numOpenVc, \n        uint256 balanceA, \n        uint256 balanceI, \n        bytes32 vcRoot,\n        uint256 updateLCtimeout\n    );\n\n    event DidLCClose (\n        bytes32 indexed channelId,\n        uint256 sequence,\n        uint256 balanceA,\n        uint256 balanceI\n    );\n\n    event DidVCInit (\n        bytes32 indexed lcId, \n        bytes32 indexed vcId, \n        bytes proof, \n        uint256 sequence, \n        address partyA, \n        address partyB, \n        uint256 balanceA, \n        uint256 balanceB \n    );\n\n    event DidVCSettle (\n        bytes32 indexed lcId, \n        bytes32 indexed vcId,\n        uint256 updateSeq, \n        uint256 updateBalA, \n        uint256 updateBalB,\n        address challenger,\n        uint256 updateVCtimeout\n    );\n\n    event DidVCClose(\n        bytes32 indexed lcId, \n        bytes32 indexed vcId, \n        uint256 balanceA, \n        uint256 balanceB\n    );\n\n    struct Channel {\n        address partyA;\n        address partyI;\n        uint256 balanceA;\n        uint256 balanceI;\n        uint256[2] deposited;\n        uint256 initialDeposit;\n        uint256 sequence;\n        uint256 confirmTime;\n        bytes32 VCrootHash;\n        uint256 LCopenTimeout;\n        uint256 updateLCtimeout; // when update LC times out\n        bool isOpen; // true when both parties have joined\n        bool isUpdateLCSettling;\n        uint256 numOpenVC;\n        //address closingParty;\n    }\n\n    // virtual-channel state\n    struct VirtualChannel {\n        bool isClose;\n        bool isInSettlementState;\n        uint256 sequence;\n        address challenger; // Initiator of challenge\n        uint256 updateVCtimeout; // when update VC times out\n        // channel state\n        address partyA; // VC participant A\n        address partyB; // VC participant B\n        address partyI; // LC hub\n        uint256 balanceA;\n        uint256 balanceB;\n        uint256 bond;\n        //uint256 balanceI;\n    }\n\n    mapping(bytes32 => VirtualChannel) public virtualChannels;\n    mapping(bytes32 => Channel) public Channels;\n\n    function createChannel(bytes32 _lcID, address _partyI, uint256 _confirmTime) public payable {\n        require(Channels[_lcID].partyA == address(0), \"Channel has already been created.\");\n        require(_partyI != 0x0, \"No partyI address provided to LC creation\");\n        // Set initial ledger channel state\n        // Alice must execute this and we assume the initial state \n        // to be signed from this requirement\n        // Alternative is to check a sig as in joinThread\n        Channels[_lcID].partyA = msg.sender;\n        Channels[_lcID].partyI = _partyI;\n        Channels[_lcID].balanceA = msg.value;\n        Channels[_lcID].sequence = 0;\n        Channels[_lcID].confirmTime = _confirmTime;\n        // is close flag, lc state sequence, number open vc, vc root hash, partyA... \n        //Channels[_lcID].stateHash = keccak256(uint256(0), uint256(0), uint256(0), bytes32(0x0), bytes32(msg.sender), bytes32(_partyI), balanceA, balanceI);\n        Channels[_lcID].LCopenTimeout = now + _confirmTime;\n        Channels[_lcID].initialDeposit = msg.value;\n\n        emit DidLCOpen(_lcID, msg.sender, _partyI, msg.value, Channels[_lcID].LCopenTimeout);\n    }\n\n    function LCOpenTimeout(bytes32 _lcID) public {\n        require(msg.sender == Channels[_lcID].partyA && Channels[_lcID].isOpen == false);\n        require(now > Channels[_lcID].LCopenTimeout);\n        Channels[_lcID].partyA.transfer(Channels[_lcID].balanceA);\n        // only safe to delete since no action was taken on this channel\n        emit DidLCClose(_lcID, 0, Channels[_lcID].balanceA, 0);\n        delete Channels[_lcID];\n    }\n\n    function joinThread(bytes32 _lcID) public payable {\n        // require the channel is not open yet\n        require(Channels[_lcID].isOpen == false);\n        require(msg.sender == Channels[_lcID].partyI);\n        // Initial state\n        //address recover = ECTools.recoverSigner(Channels[_lcID].stateHash, _sigI);\n        Channels[_lcID].balanceI = msg.value;\n        Channels[_lcID].initialDeposit+=msg.value;\n        // no longer allow joining functions to be called\n        Channels[_lcID].isOpen = true;\n        numChannels++;\n\n        emit DidLCJoin(_lcID, msg.value);\n    }\n\n\n    // additive updates of monetary state\n    function deposit(bytes32 _lcID, address recipient) public payable {\n        require(Channels[_lcID].isOpen == true, \"Tried adding funds to a closed channel\");\n        require(recipient == Channels[_lcID].partyA || recipient == Channels[_lcID].partyI);\n\n        if (Channels[_lcID].partyA == recipient) { Channels[_lcID].deposited[0] += msg.value; }\n        if (Channels[_lcID].partyI == recipient) { Channels[_lcID].deposited[1] += msg.value; }\n        \n        emit DidLCDeposit(_lcID, recipient, msg.value);\n    }\n\n    // TODO: Check there are no open virtual channels, the client should have cought this before signing a close LC state update\n    function consensusCloseChannel(\n        bytes32 _lcID, \n        uint256 _sequence, \n        uint256 _balanceA, \n        uint256 _balanceI, \n        string _sigA, \n        string _sigI\n    ) \n        public \n    {\n        // assume num open vc is 0 and root hash is 0x0\n        //require(Channels[_lcID].sequence < _sequence);\n        require(Channels[_lcID].isOpen == true);\n        uint256 totalDeposit = Channels[_lcID].initialDeposit + Channels[_lcID].deposited[0] + Channels[_lcID].deposited[1];\n        require(totalDeposit == _balanceA + _balanceI);\n\n        bytes32 _state = keccak256(\n            abi.encodePacked(\n                true,\n                _sequence,\n                uint256(0),\n                bytes32(0x0),\n                Channels[_lcID].partyA, \n                Channels[_lcID].partyI, \n                _balanceA, \n                _balanceI\n            )\n        );\n\n        require(Channels[_lcID].partyA == ECTools.recoverSigner(_state, _sigA));\n        require(Channels[_lcID].partyI == ECTools.recoverSigner(_state, _sigI));\n\n        Channels[_lcID].isOpen = false;\n\n        Channels[_lcID].partyA.transfer(_balanceA);\n        Channels[_lcID].partyI.transfer(_balanceI);\n\n        numChannels--;\n\n        emit DidLCClose(_lcID, _sequence, _balanceA, _balanceI);\n    }\n\n    // Byzantine functions\n\n    function updateLCstate(\n        bytes32 _lcID, \n        uint256[4] updateParams, // [sequence, numOpenVc, balanceA, balanceI]\n        bytes32 _VCroot, \n        string _sigA, \n        string _sigI\n    ) \n        public \n    {\n        require(Channels[_lcID].isOpen);\n        require(Channels[_lcID].sequence < updateParams[0]); // do same as vc sequence check\n        require(Channels[_lcID].balanceA + Channels[_lcID].balanceI >= updateParams[2] + updateParams[3]);\n        \n        if(Channels[_lcID].isUpdateLCSettling == true) { \n          require(Channels[_lcID].updateLCtimeout > now);\n        }\n      \n        bytes32 _state = keccak256(\n            abi.encodePacked(\n                false, \n                updateParams[0], \n                updateParams[1], \n                _VCroot, \n                Channels[_lcID].partyA, \n                Channels[_lcID].partyI, \n                updateParams[2], \n                updateParams[3]\n            )\n        );\n\n        require(Channels[_lcID].partyA == ECTools.recoverSigner(_state, _sigA));\n        require(Channels[_lcID].partyI == ECTools.recoverSigner(_state, _sigI));\n\n        // update LC state\n        Channels[_lcID].sequence = updateParams[0];\n        Channels[_lcID].numOpenVC = updateParams[1];\n        Channels[_lcID].balanceA = updateParams[2];\n        Channels[_lcID].balanceI = updateParams[3];\n        Channels[_lcID].VCrootHash = _VCroot;\n        Channels[_lcID].isUpdateLCSettling = true;\n        Channels[_lcID].updateLCtimeout = now + Channels[_lcID].confirmTime;\n\n        // make settlement flag\n\n        emit DidLCUpdateState (\n            _lcID, \n            updateParams[0], \n            updateParams[1], \n            updateParams[2], \n            updateParams[3], \n            _VCroot,\n            Channels[_lcID].updateLCtimeout\n        );\n    }\n\n    // supply initial state of VC to \"prime\" the force push game  \n    function initVCstate(\n        bytes32 _lcID, \n        bytes32 _vcID, \n        bytes _proof, \n        address _partyA, \n        address _partyB, \n        uint256 _bond,\n        uint256 _balanceA,\n        uint256 _balanceB,\n        string sigA\n    ) \n        public \n    {\n        require(Channels[_lcID].isOpen, \"LC is closed.\");\n        // sub-channel must be open\n        require(!virtualChannels[_vcID].isClose, \"VC is closed.\");\n        // Check time has passed on updateLCtimeout and has not passed the time to store a vc state\n        require(Channels[_lcID].updateLCtimeout < now, \"LC timeout over.\");\n        // prevent rentry of initializing vc state\n        require(virtualChannels[_vcID].updateVCtimeout == 0);\n        // partyB is now Ingrid\n        bytes32 _initState = keccak256(\n            abi.encodePacked(_vcID, uint256(0), _partyA, _partyB, _bond, _balanceA, _balanceB)\n        );\n\n        // Make sure Alice has signed initial vc state (A/B in oldState)\n        require(_partyA == ECTools.recoverSigner(_initState, sigA));\n\n        // Check the oldState is in the root hash\n        require(_isContained(_initState, _proof, Channels[_lcID].VCrootHash) == true);\n\n        virtualChannels[_vcID].partyA = _partyA; // VC participant A\n        virtualChannels[_vcID].partyB = _partyB; // VC participant B\n        virtualChannels[_vcID].sequence = uint256(0);\n        virtualChannels[_vcID].balanceA = _balanceA;\n        virtualChannels[_vcID].balanceB = _balanceB;\n        virtualChannels[_vcID].bond = _bond;\n        virtualChannels[_vcID].updateVCtimeout = now + Channels[_lcID].confirmTime;\n\n        emit DidVCInit(_lcID, _vcID, _proof, uint256(0), _partyA, _partyB, _balanceA, _balanceB);\n    }\n\n    //TODO: verify state transition since the hub did not agree to this state\n    // make sure the A/B balances are not beyond ingrids bonds  \n    // Params: vc init state, vc final balance, vcID\n    function settleVC(\n        bytes32 _lcID, \n        bytes32 _vcID, \n        uint256 updateSeq, \n        address _partyA, \n        address _partyB,\n        uint256[2] updateBal, // [updateBalA, updateBalB]\n        string sigA\n    ) \n        public \n    {\n        require(Channels[_lcID].isOpen, \"LC is closed.\");\n        // sub-channel must be open\n        require(!virtualChannels[_vcID].isClose, \"VC is closed.\");\n        require(virtualChannels[_vcID].sequence < updateSeq, \"VC sequence is higher than update sequence.\");\n        require(virtualChannels[_vcID].balanceB < updateBal[1], \"State updates may only increase recipient balance.\");\n        require(virtualChannels[_vcID].bond == updateBal[0] + updateBal[1], \"Incorrect balances for bonded amount\");\n        // Check time has passed on updateLCtimeout and has not passed the time to store a vc state\n        // virtualChannels[_vcID].updateVCtimeout should be 0 on uninitialized vc state, and this should\n        // fail if initVC() isn't called first\n        //require(Channels[_lcID].updateLCtimeout < now && now < virtualChannels[_vcID].updateVCtimeout);\n        require(Channels[_lcID].updateLCtimeout < now); // for testing!\n\n        bytes32 _updateState = keccak256(\n            abi.encodePacked(_vcID, updateSeq, _partyA, _partyB, virtualChannels[_vcID].bond, updateBal[0], updateBal[1])\n        );\n\n        // Make sure Alice has signed a higher sequence new state\n        require(virtualChannels[_vcID].partyA == ECTools.recoverSigner(_updateState, sigA));\n\n        // store VC data\n        // we may want to record who is initiating on-chain settles\n        virtualChannels[_vcID].challenger = msg.sender;\n        virtualChannels[_vcID].sequence = updateSeq;\n\n        // channel state\n        virtualChannels[_vcID].balanceA = updateBal[0];\n        virtualChannels[_vcID].balanceB = updateBal[1];\n\n        virtualChannels[_vcID].updateVCtimeout = now + Channels[_lcID].confirmTime;\n        virtualChannels[_vcID].isInSettlementState = true;\n\n        emit DidVCSettle(_lcID, _vcID, updateSeq, updateBal[0], updateBal[1], msg.sender, virtualChannels[_vcID].updateVCtimeout);\n    }\n\n    function closeVirtualChannel(bytes32 _lcID, bytes32 _vcID) public {\n        // require(updateLCtimeout > now)\n        require(Channels[_lcID].isOpen, \"LC is closed.\");\n        require(virtualChannels[_vcID].isInSettlementState, \"VC is not in settlement state.\");\n        require(virtualChannels[_vcID].updateVCtimeout < now, \"Update vc timeout has not elapsed.\");\n        // reduce the number of open virtual channels stored on LC\n        Channels[_lcID].numOpenVC--;\n        // close vc flags\n        virtualChannels[_vcID].isClose = true;\n        // re-introduce the balances back into the LC state from the settled VC\n        // decide if this lc is alice or bob in the vc\n        if(virtualChannels[_vcID].partyA == Channels[_lcID].partyA) {\n            Channels[_lcID].balanceA += virtualChannels[_vcID].balanceA;\n            Channels[_lcID].balanceI += virtualChannels[_vcID].balanceB;\n        } else if (virtualChannels[_vcID].partyB == Channels[_lcID].partyA) {\n            Channels[_lcID].balanceA += virtualChannels[_vcID].balanceB;\n            Channels[_lcID].balanceI += virtualChannels[_vcID].balanceA;\n        }\n\n        emit DidVCClose(_lcID, _vcID, virtualChannels[_vcID].balanceA, virtualChannels[_vcID].balanceB);\n    }\n\n\n    // todo: allow ethier lc.end-user to nullify the settled LC state and return to off-chain\n    function byzantineCloseChannel(bytes32 _lcID) public{\n        // check settlement flag\n        require(Channels[_lcID].isUpdateLCSettling == true);\n        require(Channels[_lcID].numOpenVC == 0);\n        require(Channels[_lcID].updateLCtimeout < now, \"LC timeout over.\");\n\n        // if off chain state update didnt reblance deposits, just return to deposit owner\n        uint256 totalDeposit = Channels[_lcID].initialDeposit + Channels[_lcID].deposited[0] + Channels[_lcID].deposited[1];\n\n        uint256 possibleTotalBeforeDeposit = Channels[_lcID].balanceA + Channels[_lcID].balanceI;\n\n        if(possibleTotalBeforeDeposit < totalDeposit) {\n            Channels[_lcID].balanceA+=Channels[_lcID].deposited[0];\n            Channels[_lcID].balanceI+=Channels[_lcID].deposited[1];\n        } else {\n            require(possibleTotalBeforeDeposit == totalDeposit);\n        }\n\n        // reentrancy\n        uint256 balanceA = Channels[_lcID].balanceA;\n        uint256 balanceI = Channels[_lcID].balanceI;\n        Channels[_lcID].balanceA = 0;\n        Channels[_lcID].balanceI = 0;\n\n        Channels[_lcID].partyA.transfer(balanceA);\n        Channels[_lcID].partyI.transfer(balanceI);\n        Channels[_lcID].isOpen = false;\n        numChannels--;\n\n        emit DidLCClose(_lcID, Channels[_lcID].sequence, balanceA, balanceI);\n    }\n\n    function _isContained(bytes32 _hash, bytes _proof, bytes32 _root) internal pure returns (bool) {\n        bytes32 cursor = _hash;\n        bytes32 proofElem;\n\n        for (uint256 i = 64; i <= _proof.length; i += 32) {\n            assembly { proofElem := mload(add(_proof, i)) }\n\n            if (cursor < proofElem) {\n                cursor = keccak256(abi.encodePacked(cursor, proofElem));\n            } else {\n                cursor = keccak256(abi.encodePacked(proofElem, cursor));\n            }\n        }\n\n        return cursor == _root;\n    }\n}\n",
  "sourcePath": "/Users/laynehaber/Developer/connext/repos/spankchain/virtual-channels/contracts/LedgerChannel.sol",
  "compiler": {
    "name": "solc",
    "version": "0.4.24+commit.e67f0147.Emscripten.clang"
  },
  "schemaVersion": "2.0.0",
  "updatedAt": "2018-07-25T20:36:09.968Z"
}